{
	"contracts/4_Project.sol": {
		"local": {
			"abi": [
				{
					"inputs": [],
					"stateMutability": "nonpayable",
					"type": "constructor"
				},
				{
					"inputs": [
						{
							"internalType": "string",
							"name": "_nameOfOcaasion",
							"type": "string"
						},
						{
							"internalType": "address payable",
							"name": "_ocassionManager",
							"type": "address"
						},
						{
							"internalType": "string",
							"name": "_description",
							"type": "string"
						},
						{
							"internalType": "uint256",
							"name": "_maxNoOfTicekts",
							"type": "uint256"
						},
						{
							"internalType": "uint256",
							"name": "_date",
							"type": "uint256"
						},
						{
							"internalType": "string",
							"name": "_loaction",
							"type": "string"
						},
						{
							"internalType": "uint256",
							"name": "_price",
							"type": "uint256"
						},
						{
							"internalType": "string",
							"name": "_time",
							"type": "string"
						}
					],
					"name": "addEvent",
					"outputs": [],
					"stateMutability": "nonpayable",
					"type": "function"
				},
				{
					"inputs": [
						{
							"internalType": "uint256",
							"name": "",
							"type": "uint256"
						}
					],
					"name": "arr",
					"outputs": [
						{
							"internalType": "string",
							"name": "nameOfOcaasion",
							"type": "string"
						},
						{
							"internalType": "address payable",
							"name": "ocassionManager",
							"type": "address"
						},
						{
							"internalType": "string",
							"name": "description",
							"type": "string"
						},
						{
							"internalType": "uint256",
							"name": "maxNoOfTicekts",
							"type": "uint256"
						},
						{
							"internalType": "uint256",
							"name": "nthTicket",
							"type": "uint256"
						},
						{
							"internalType": "uint256",
							"name": "date",
							"type": "uint256"
						},
						{
							"internalType": "string",
							"name": "location",
							"type": "string"
						},
						{
							"internalType": "uint256",
							"name": "price",
							"type": "uint256"
						},
						{
							"internalType": "string",
							"name": "time",
							"type": "string"
						}
					],
					"stateMutability": "view",
					"type": "function"
				},
				{
					"inputs": [],
					"name": "buyGoldenTokens",
					"outputs": [],
					"stateMutability": "payable",
					"type": "function"
				},
				{
					"inputs": [
						{
							"internalType": "uint256",
							"name": "id",
							"type": "uint256"
						}
					],
					"name": "buyTicket",
					"outputs": [],
					"stateMutability": "payable",
					"type": "function"
				},
				{
					"inputs": [
						{
							"internalType": "uint256",
							"name": "id",
							"type": "uint256"
						}
					],
					"name": "getAddressList",
					"outputs": [
						{
							"internalType": "address[]",
							"name": "",
							"type": "address[]"
						}
					],
					"stateMutability": "view",
					"type": "function"
				},
				{
					"inputs": [
						{
							"internalType": "uint256",
							"name": "",
							"type": "uint256"
						}
					],
					"name": "goldAddress",
					"outputs": [
						{
							"internalType": "address",
							"name": "",
							"type": "address"
						}
					],
					"stateMutability": "view",
					"type": "function"
				},
				{
					"inputs": [],
					"name": "goldTokens",
					"outputs": [
						{
							"internalType": "uint256",
							"name": "",
							"type": "uint256"
						}
					],
					"stateMutability": "view",
					"type": "function"
				},
				{
					"inputs": [
						{
							"internalType": "uint256",
							"name": "",
							"type": "uint256"
						}
					],
					"name": "noOfOcassions",
					"outputs": [
						{
							"internalType": "string",
							"name": "nameOfOcaasion",
							"type": "string"
						},
						{
							"internalType": "address payable",
							"name": "ocassionManager",
							"type": "address"
						},
						{
							"internalType": "string",
							"name": "description",
							"type": "string"
						},
						{
							"internalType": "uint256",
							"name": "maxNoOfTicekts",
							"type": "uint256"
						},
						{
							"internalType": "uint256",
							"name": "nthTicket",
							"type": "uint256"
						},
						{
							"internalType": "uint256",
							"name": "date",
							"type": "uint256"
						},
						{
							"internalType": "string",
							"name": "location",
							"type": "string"
						},
						{
							"internalType": "uint256",
							"name": "price",
							"type": "uint256"
						},
						{
							"internalType": "string",
							"name": "time",
							"type": "string"
						}
					],
					"stateMutability": "view",
					"type": "function"
				},
				{
					"inputs": [],
					"name": "nthOcassion",
					"outputs": [
						{
							"internalType": "uint256",
							"name": "",
							"type": "uint256"
						}
					],
					"stateMutability": "view",
					"type": "function"
				},
				{
					"inputs": [],
					"name": "owner",
					"outputs": [
						{
							"internalType": "address",
							"name": "",
							"type": "address"
						}
					],
					"stateMutability": "view",
					"type": "function"
				},
				{
					"inputs": [
						{
							"internalType": "uint256",
							"name": "id",
							"type": "uint256"
						}
					],
					"name": "showTickets",
					"outputs": [
						{
							"internalType": "uint256",
							"name": "",
							"type": "uint256"
						}
					],
					"stateMutability": "view",
					"type": "function"
				}
			],
			"devdoc": {
				"kind": "dev",
				"methods": {},
				"version": 1
			},
			"evm": {
				"assembly": "    /* \"contracts/4_Project.sol\":68:4812  contract local {... */\n  mstore(0x40, 0x80)\n    /* \"contracts/4_Project.sol\":2023:2026  100 */\n  0x64\n    /* \"contracts/4_Project.sol\":1995:2026  uint256 public goldTokens = 100 */\n  0x05\n  sstore\n    /* \"contracts/4_Project.sol\":122:173  constructor() {... */\n  callvalue\n  dup1\n  iszero\n  tag_1\n  jumpi\n  0x00\n  dup1\n  revert\ntag_1:\n  pop\n    /* \"contracts/4_Project.sol\":155:165  msg.sender */\n  caller\n    /* \"contracts/4_Project.sol\":147:152  owner */\n  0x00\n  dup1\n    /* \"contracts/4_Project.sol\":147:165  owner = msg.sender */\n  0x0100\n  exp\n  dup2\n  sload\n  dup2\n  0xffffffffffffffffffffffffffffffffffffffff\n  mul\n  not\n  and\n  swap1\n  dup4\n  0xffffffffffffffffffffffffffffffffffffffff\n  and\n  mul\n  or\n  swap1\n  sstore\n  pop\n    /* \"contracts/4_Project.sol\":68:4812  contract local {... */\n  dataSize(sub_0)\n  dup1\n  dataOffset(sub_0)\n  0x00\n  codecopy\n  0x00\n  return\nstop\n\nsub_0: assembly {\n        /* \"contracts/4_Project.sol\":68:4812  contract local {... */\n      mstore(0x40, 0x80)\n      jumpi(tag_1, lt(calldatasize, 0x04))\n      shr(0xe0, calldataload(0x00))\n      dup1\n      0x71e5ee5f\n      gt\n      tag_13\n      jumpi\n      dup1\n      0x71e5ee5f\n      eq\n      tag_7\n      jumpi\n      dup1\n      0x8da5cb5b\n      eq\n      tag_8\n      jumpi\n      dup1\n      0x97b10afa\n      eq\n      tag_9\n      jumpi\n      dup1\n      0xa87b0d97\n      eq\n      tag_10\n      jumpi\n      dup1\n      0xf6f937b4\n      eq\n      tag_11\n      jumpi\n      dup1\n      0xfb9f8dd1\n      eq\n      tag_12\n      jumpi\n      jump(tag_1)\n    tag_13:\n      dup1\n      0x0b031f32\n      eq\n      tag_2\n      jumpi\n      dup1\n      0x1f1d5326\n      eq\n      tag_3\n      jumpi\n      dup1\n      0x32ab9503\n      eq\n      tag_4\n      jumpi\n      dup1\n      0x56699251\n      eq\n      tag_5\n      jumpi\n      dup1\n      0x67dd74ca\n      eq\n      tag_6\n      jumpi\n    tag_1:\n      0x00\n      dup1\n      revert\n        /* \"contracts/4_Project.sol\":563:612  mapping(uint256 => Ocassion) public noOfOcassions */\n    tag_2:\n      callvalue\n      dup1\n      iszero\n      tag_14\n      jumpi\n      0x00\n      dup1\n      revert\n    tag_14:\n      pop\n      tag_15\n      0x04\n      dup1\n      calldatasize\n      sub\n      dup2\n      add\n      swap1\n      tag_16\n      swap2\n      swap1\n      tag_17\n      jump\t// in\n    tag_16:\n      tag_18\n      jump\t// in\n    tag_15:\n      mload(0x40)\n      tag_19\n      swap10\n      swap9\n      swap8\n      swap7\n      swap6\n      swap5\n      swap4\n      swap3\n      swap2\n      swap1\n      tag_20\n      jump\t// in\n    tag_19:\n      mload(0x40)\n      dup1\n      swap2\n      sub\n      swap1\n      return\n        /* \"contracts/4_Project.sol\":3488:4031  function buyGoldenTokens() public payable {... */\n    tag_3:\n      tag_21\n      tag_22\n      jump\t// in\n    tag_21:\n      stop\n        /* \"contracts/4_Project.sol\":1960:1988  address[] public goldAddress */\n    tag_4:\n      callvalue\n      dup1\n      iszero\n      tag_23\n      jumpi\n      0x00\n      dup1\n      revert\n    tag_23:\n      pop\n      tag_24\n      0x04\n      dup1\n      calldatasize\n      sub\n      dup2\n      add\n      swap1\n      tag_25\n      swap2\n      swap1\n      tag_17\n      jump\t// in\n    tag_25:\n      tag_26\n      jump\t// in\n    tag_24:\n      mload(0x40)\n      tag_27\n      swap2\n      swap1\n      tag_28\n      jump\t// in\n    tag_27:\n      mload(0x40)\n      dup1\n      swap2\n      sub\n      swap1\n      return\n        /* \"contracts/4_Project.sol\":655:681  uint256 public nthOcassion */\n    tag_5:\n      callvalue\n      dup1\n      iszero\n      tag_29\n      jumpi\n      0x00\n      dup1\n      revert\n    tag_29:\n      pop\n      tag_30\n      tag_31\n      jump\t// in\n    tag_30:\n      mload(0x40)\n      tag_32\n      swap2\n      swap1\n      tag_33\n      jump\t// in\n    tag_32:\n      mload(0x40)\n      dup1\n      swap2\n      sub\n      swap1\n      return\n        /* \"contracts/4_Project.sol\":2039:3476  function buyTicket(uint256 id) public payable {... */\n    tag_6:\n      tag_34\n      0x04\n      dup1\n      calldatasize\n      sub\n      dup2\n      add\n      swap1\n      tag_35\n      swap2\n      swap1\n      tag_17\n      jump\t// in\n    tag_35:\n      tag_36\n      jump\t// in\n    tag_34:\n      stop\n        /* \"contracts/4_Project.sol\":694:715  Ocassion[] public arr */\n    tag_7:\n      callvalue\n      dup1\n      iszero\n      tag_37\n      jumpi\n      0x00\n      dup1\n      revert\n    tag_37:\n      pop\n      tag_38\n      0x04\n      dup1\n      calldatasize\n      sub\n      dup2\n      add\n      swap1\n      tag_39\n      swap2\n      swap1\n      tag_17\n      jump\t// in\n    tag_39:\n      tag_40\n      jump\t// in\n    tag_38:\n      mload(0x40)\n      tag_41\n      swap10\n      swap9\n      swap8\n      swap7\n      swap6\n      swap5\n      swap4\n      swap3\n      swap2\n      swap1\n      tag_20\n      jump\t// in\n    tag_41:\n      mload(0x40)\n      dup1\n      swap2\n      sub\n      swap1\n      return\n        /* \"contracts/4_Project.sol\":90:110  address public owner */\n    tag_8:\n      callvalue\n      dup1\n      iszero\n      tag_42\n      jumpi\n      0x00\n      dup1\n      revert\n    tag_42:\n      pop\n      tag_43\n      tag_44\n      jump\t// in\n    tag_43:\n      mload(0x40)\n      tag_45\n      swap2\n      swap1\n      tag_28\n      jump\t// in\n    tag_45:\n      mload(0x40)\n      dup1\n      swap2\n      sub\n      swap1\n      return\n        /* \"contracts/4_Project.sol\":4033:4409  function showTickets(uint id) view  public returns(uint) {... */\n    tag_9:\n      callvalue\n      dup1\n      iszero\n      tag_46\n      jumpi\n      0x00\n      dup1\n      revert\n    tag_46:\n      pop\n      tag_47\n      0x04\n      dup1\n      calldatasize\n      sub\n      dup2\n      add\n      swap1\n      tag_48\n      swap2\n      swap1\n      tag_17\n      jump\t// in\n    tag_48:\n      tag_49\n      jump\t// in\n    tag_47:\n      mload(0x40)\n      tag_50\n      swap2\n      swap1\n      tag_33\n      jump\t// in\n    tag_50:\n      mload(0x40)\n      dup1\n      swap2\n      sub\n      swap1\n      return\n        /* \"contracts/4_Project.sol\":1121:1952  function addEvent(... */\n    tag_10:\n      callvalue\n      dup1\n      iszero\n      tag_51\n      jumpi\n      0x00\n      dup1\n      revert\n    tag_51:\n      pop\n      tag_52\n      0x04\n      dup1\n      calldatasize\n      sub\n      dup2\n      add\n      swap1\n      tag_53\n      swap2\n      swap1\n      tag_54\n      jump\t// in\n    tag_53:\n      tag_55\n      jump\t// in\n    tag_52:\n      stop\n        /* \"contracts/4_Project.sol\":923:1109  function getAddressList(uint256 id) public view returns (address[] memory) {... */\n    tag_11:\n      callvalue\n      dup1\n      iszero\n      tag_56\n      jumpi\n      0x00\n      dup1\n      revert\n    tag_56:\n      pop\n      tag_57\n      0x04\n      dup1\n      calldatasize\n      sub\n      dup2\n      add\n      swap1\n      tag_58\n      swap2\n      swap1\n      tag_17\n      jump\t// in\n    tag_58:\n      tag_59\n      jump\t// in\n    tag_57:\n      mload(0x40)\n      tag_60\n      swap2\n      swap1\n      tag_61\n      jump\t// in\n    tag_60:\n      mload(0x40)\n      dup1\n      swap2\n      sub\n      swap1\n      return\n        /* \"contracts/4_Project.sol\":1995:2026  uint256 public goldTokens = 100 */\n    tag_12:\n      callvalue\n      dup1\n      iszero\n      tag_62\n      jumpi\n      0x00\n      dup1\n      revert\n    tag_62:\n      pop\n      tag_63\n      tag_64\n      jump\t// in\n    tag_63:\n      mload(0x40)\n      tag_65\n      swap2\n      swap1\n      tag_33\n      jump\t// in\n    tag_65:\n      mload(0x40)\n      dup1\n      swap2\n      sub\n      swap1\n      return\n        /* \"contracts/4_Project.sol\":563:612  mapping(uint256 => Ocassion) public noOfOcassions */\n    tag_18:\n      mstore(0x20, 0x01)\n      dup1\n      0x00\n      mstore\n      keccak256(0x00, 0x40)\n      0x00\n      swap2\n      pop\n      swap1\n      pop\n      dup1\n      0x00\n      add\n      dup1\n      sload\n      tag_66\n      swap1\n      tag_67\n      jump\t// in\n    tag_66:\n      dup1\n      0x1f\n      add\n      0x20\n      dup1\n      swap2\n      div\n      mul\n      0x20\n      add\n      mload(0x40)\n      swap1\n      dup2\n      add\n      0x40\n      mstore\n      dup1\n      swap3\n      swap2\n      swap1\n      dup2\n      dup2\n      mstore\n      0x20\n      add\n      dup3\n      dup1\n      sload\n      tag_68\n      swap1\n      tag_67\n      jump\t// in\n    tag_68:\n      dup1\n      iszero\n      tag_69\n      jumpi\n      dup1\n      0x1f\n      lt\n      tag_70\n      jumpi\n      0x0100\n      dup1\n      dup4\n      sload\n      div\n      mul\n      dup4\n      mstore\n      swap2\n      0x20\n      add\n      swap2\n      jump(tag_69)\n    tag_70:\n      dup3\n      add\n      swap2\n      swap1\n      0x00\n      mstore\n      keccak256(0x00, 0x20)\n      swap1\n    tag_71:\n      dup2\n      sload\n      dup2\n      mstore\n      swap1\n      0x01\n      add\n      swap1\n      0x20\n      add\n      dup1\n      dup4\n      gt\n      tag_71\n      jumpi\n      dup3\n      swap1\n      sub\n      0x1f\n      and\n      dup3\n      add\n      swap2\n    tag_69:\n      pop\n      pop\n      pop\n      pop\n      pop\n      swap1\n      dup1\n      0x01\n      add\n      0x00\n      swap1\n      sload\n      swap1\n      0x0100\n      exp\n      swap1\n      div\n      0xffffffffffffffffffffffffffffffffffffffff\n      and\n      swap1\n      dup1\n      0x02\n      add\n      dup1\n      sload\n      tag_72\n      swap1\n      tag_67\n      jump\t// in\n    tag_72:\n      dup1\n      0x1f\n      add\n      0x20\n      dup1\n      swap2\n      div\n      mul\n      0x20\n      add\n      mload(0x40)\n      swap1\n      dup2\n      add\n      0x40\n      mstore\n      dup1\n      swap3\n      swap2\n      swap1\n      dup2\n      dup2\n      mstore\n      0x20\n      add\n      dup3\n      dup1\n      sload\n      tag_73\n      swap1\n      tag_67\n      jump\t// in\n    tag_73:\n      dup1\n      iszero\n      tag_74\n      jumpi\n      dup1\n      0x1f\n      lt\n      tag_75\n      jumpi\n      0x0100\n      dup1\n      dup4\n      sload\n      div\n      mul\n      dup4\n      mstore\n      swap2\n      0x20\n      add\n      swap2\n      jump(tag_74)\n    tag_75:\n      dup3\n      add\n      swap2\n      swap1\n      0x00\n      mstore\n      keccak256(0x00, 0x20)\n      swap1\n    tag_76:\n      dup2\n      sload\n      dup2\n      mstore\n      swap1\n      0x01\n      add\n      swap1\n      0x20\n      add\n      dup1\n      dup4\n      gt\n      tag_76\n      jumpi\n      dup3\n      swap1\n      sub\n      0x1f\n      and\n      dup3\n      add\n      swap2\n    tag_74:\n      pop\n      pop\n      pop\n      pop\n      pop\n      swap1\n      dup1\n      0x03\n      add\n      sload\n      swap1\n      dup1\n      0x04\n      add\n      sload\n      swap1\n      dup1\n      0x05\n      add\n      sload\n      swap1\n      dup1\n      0x06\n      add\n      dup1\n      sload\n      tag_77\n      swap1\n      tag_67\n      jump\t// in\n    tag_77:\n      dup1\n      0x1f\n      add\n      0x20\n      dup1\n      swap2\n      div\n      mul\n      0x20\n      add\n      mload(0x40)\n      swap1\n      dup2\n      add\n      0x40\n      mstore\n      dup1\n      swap3\n      swap2\n      swap1\n      dup2\n      dup2\n      mstore\n      0x20\n      add\n      dup3\n      dup1\n      sload\n      tag_78\n      swap1\n      tag_67\n      jump\t// in\n    tag_78:\n      dup1\n      iszero\n      tag_79\n      jumpi\n      dup1\n      0x1f\n      lt\n      tag_80\n      jumpi\n      0x0100\n      dup1\n      dup4\n      sload\n      div\n      mul\n      dup4\n      mstore\n      swap2\n      0x20\n      add\n      swap2\n      jump(tag_79)\n    tag_80:\n      dup3\n      add\n      swap2\n      swap1\n      0x00\n      mstore\n      keccak256(0x00, 0x20)\n      swap1\n    tag_81:\n      dup2\n      sload\n      dup2\n      mstore\n      swap1\n      0x01\n      add\n      swap1\n      0x20\n      add\n      dup1\n      dup4\n      gt\n      tag_81\n      jumpi\n      dup3\n      swap1\n      sub\n      0x1f\n      and\n      dup3\n      add\n      swap2\n    tag_79:\n      pop\n      pop\n      pop\n      pop\n      pop\n      swap1\n      dup1\n      0x07\n      add\n      sload\n      swap1\n      dup1\n      0x08\n      add\n      dup1\n      sload\n      tag_82\n      swap1\n      tag_67\n      jump\t// in\n    tag_82:\n      dup1\n      0x1f\n      add\n      0x20\n      dup1\n      swap2\n      div\n      mul\n      0x20\n      add\n      mload(0x40)\n      swap1\n      dup2\n      add\n      0x40\n      mstore\n      dup1\n      swap3\n      swap2\n      swap1\n      dup2\n      dup2\n      mstore\n      0x20\n      add\n      dup3\n      dup1\n      sload\n      tag_83\n      swap1\n      tag_67\n      jump\t// in\n    tag_83:\n      dup1\n      iszero\n      tag_84\n      jumpi\n      dup1\n      0x1f\n      lt\n      tag_85\n      jumpi\n      0x0100\n      dup1\n      dup4\n      sload\n      div\n      mul\n      dup4\n      mstore\n      swap2\n      0x20\n      add\n      swap2\n      jump(tag_84)\n    tag_85:\n      dup3\n      add\n      swap2\n      swap1\n      0x00\n      mstore\n      keccak256(0x00, 0x20)\n      swap1\n    tag_86:\n      dup2\n      sload\n      dup2\n      mstore\n      swap1\n      0x01\n      add\n      swap1\n      0x20\n      add\n      dup1\n      dup4\n      gt\n      tag_86\n      jumpi\n      dup3\n      swap1\n      sub\n      0x1f\n      and\n      dup3\n      add\n      swap2\n    tag_84:\n      pop\n      pop\n      pop\n      pop\n      pop\n      swap1\n      pop\n      dup10\n      jump\t// out\n        /* \"contracts/4_Project.sol\":3488:4031  function buyGoldenTokens() public payable {... */\n    tag_22:\n        /* \"contracts/4_Project.sol\":3541:3559  bool goldenAddress */\n      0x00\n        /* \"contracts/4_Project.sol\":3575:3584  uint256 i */\n      dup1\n        /* \"contracts/4_Project.sol\":3587:3588  0 */\n      0x00\n        /* \"contracts/4_Project.sol\":3575:3588  uint256 i = 0 */\n      swap1\n      pop\n        /* \"contracts/4_Project.sol\":3570:3734  for (uint256 i = 0; i < goldAddress.length; i++) {... */\n    tag_88:\n        /* \"contracts/4_Project.sol\":3594:3605  goldAddress */\n      0x04\n        /* \"contracts/4_Project.sol\":3594:3612  goldAddress.length */\n      dup1\n      sload\n      swap1\n      pop\n        /* \"contracts/4_Project.sol\":3590:3591  i */\n      dup2\n        /* \"contracts/4_Project.sol\":3590:3612  i < goldAddress.length */\n      lt\n        /* \"contracts/4_Project.sol\":3570:3734  for (uint256 i = 0; i < goldAddress.length; i++) {... */\n      iszero\n      tag_89\n      jumpi\n        /* \"contracts/4_Project.sol\":3652:3663  goldAddress */\n      0x04\n        /* \"contracts/4_Project.sol\":3664:3665  i */\n      dup2\n        /* \"contracts/4_Project.sol\":3652:3666  goldAddress[i] */\n      dup2\n      sload\n      dup2\n      lt\n      tag_91\n      jumpi\n      tag_92\n      tag_93\n      jump\t// in\n    tag_92:\n    tag_91:\n      swap1\n      0x00\n      mstore\n      keccak256(0x00, 0x20)\n      add\n      0x00\n      swap1\n      sload\n      swap1\n      0x0100\n      exp\n      swap1\n      div\n      0xffffffffffffffffffffffffffffffffffffffff\n      and\n        /* \"contracts/4_Project.sol\":3638:3666  msg.sender == goldAddress[i] */\n      0xffffffffffffffffffffffffffffffffffffffff\n      and\n        /* \"contracts/4_Project.sol\":3638:3648  msg.sender */\n      caller\n        /* \"contracts/4_Project.sol\":3638:3666  msg.sender == goldAddress[i] */\n      0xffffffffffffffffffffffffffffffffffffffff\n      and\n      sub\n        /* \"contracts/4_Project.sol\":3634:3723  if (msg.sender == goldAddress[i]) {... */\n      tag_95\n      jumpi\n        /* \"contracts/4_Project.sol\":3703:3707  true */\n      0x01\n        /* \"contracts/4_Project.sol\":3687:3707  goldenAddress = true */\n      swap2\n      pop\n        /* \"contracts/4_Project.sol\":3634:3723  if (msg.sender == goldAddress[i]) {... */\n    tag_95:\n        /* \"contracts/4_Project.sol\":3614:3617  i++ */\n      dup1\n      dup1\n      0x01\n      add\n      swap2\n      pop\n      pop\n        /* \"contracts/4_Project.sol\":3570:3734  for (uint256 i = 0; i < goldAddress.length; i++) {... */\n      jump(tag_88)\n    tag_89:\n      pop\n        /* \"contracts/4_Project.sol\":3771:3776  false */\n      0x00\n        /* \"contracts/4_Project.sol\":3754:3776  goldenAddress == false */\n      iszero\n      iszero\n        /* \"contracts/4_Project.sol\":3754:3767  goldenAddress */\n      dup2\n        /* \"contracts/4_Project.sol\":3754:3776  goldenAddress == false */\n      iszero\n      iszero\n      eq\n        /* \"contracts/4_Project.sol\":3746:3810  require(goldenAddress == false, \"You are already a Premium man\") */\n      tag_96\n      jumpi\n      mload(0x40)\n      0x08c379a000000000000000000000000000000000000000000000000000000000\n      dup2\n      mstore\n      0x04\n      add\n      tag_97\n      swap1\n      tag_98\n      jump\t// in\n    tag_97:\n      mload(0x40)\n      dup1\n      swap2\n      sub\n      swap1\n      revert\n    tag_96:\n        /* \"contracts/4_Project.sol\":3842:3851  0.1 ether */\n      0x016345785d8a0000\n        /* \"contracts/4_Project.sol\":3829:3838  msg.value */\n      callvalue\n        /* \"contracts/4_Project.sol\":3829:3851  msg.value == 0.1 ether */\n      eq\n        /* \"contracts/4_Project.sol\":3821:3879  require(msg.value == 0.1 ether, \"Please pay exact amount\") */\n      tag_99\n      jumpi\n      mload(0x40)\n      0x08c379a000000000000000000000000000000000000000000000000000000000\n      dup2\n      mstore\n      0x04\n      add\n      tag_100\n      swap1\n      tag_101\n      jump\t// in\n    tag_100:\n      mload(0x40)\n      dup1\n      swap2\n      sub\n      swap1\n      revert\n    tag_99:\n        /* \"contracts/4_Project.sol\":3911:3912  0 */\n      0x00\n        /* \"contracts/4_Project.sol\":3898:3908  goldTokens */\n      sload(0x05)\n        /* \"contracts/4_Project.sol\":3898:3912  goldTokens > 0 */\n      gt\n        /* \"contracts/4_Project.sol\":3890:3961  require(goldTokens > 0, \"All Tokens are sold! Try again in a few days\") */\n      tag_102\n      jumpi\n      mload(0x40)\n      0x08c379a000000000000000000000000000000000000000000000000000000000\n      dup2\n      mstore\n      0x04\n      add\n      tag_103\n      swap1\n      tag_104\n      jump\t// in\n    tag_103:\n      mload(0x40)\n      dup1\n      swap2\n      sub\n      swap1\n      revert\n    tag_102:\n        /* \"contracts/4_Project.sol\":3972:3983  goldAddress */\n      0x04\n        /* \"contracts/4_Project.sol\":3989:3999  msg.sender */\n      caller\n        /* \"contracts/4_Project.sol\":3972:4000  goldAddress.push(msg.sender) */\n      swap1\n      dup1\n      0x01\n      dup2\n      sload\n      add\n      dup1\n      dup3\n      sstore\n      dup1\n      swap2\n      pop\n      pop\n      0x01\n      swap1\n      sub\n      swap1\n      0x00\n      mstore\n      keccak256(0x00, 0x20)\n      add\n      0x00\n      swap1\n      swap2\n      swap1\n      swap2\n      swap1\n      swap2\n      0x0100\n      exp\n      dup2\n      sload\n      dup2\n      0xffffffffffffffffffffffffffffffffffffffff\n      mul\n      not\n      and\n      swap1\n      dup4\n      0xffffffffffffffffffffffffffffffffffffffff\n      and\n      mul\n      or\n      swap1\n      sstore\n      pop\n        /* \"contracts/4_Project.sol\":4011:4021  goldTokens */\n      0x05\n      0x00\n        /* \"contracts/4_Project.sol\":4011:4023  goldTokens-- */\n      dup2\n      sload\n      dup1\n      swap3\n      swap2\n      swap1\n      tag_106\n      swap1\n      tag_107\n      jump\t// in\n    tag_106:\n      swap2\n      swap1\n      pop\n      sstore\n      pop\n        /* \"contracts/4_Project.sol\":3530:4031  {... */\n      pop\n        /* \"contracts/4_Project.sol\":3488:4031  function buyGoldenTokens() public payable {... */\n      jump\t// out\n        /* \"contracts/4_Project.sol\":1960:1988  address[] public goldAddress */\n    tag_26:\n      0x04\n      dup2\n      dup2\n      sload\n      dup2\n      lt\n      tag_108\n      jumpi\n      0x00\n      dup1\n      revert\n    tag_108:\n      swap1\n      0x00\n      mstore\n      keccak256(0x00, 0x20)\n      add\n      0x00\n      swap2\n      pop\n      sload\n      swap1\n      0x0100\n      exp\n      swap1\n      div\n      0xffffffffffffffffffffffffffffffffffffffff\n      and\n      dup2\n      jump\t// out\n        /* \"contracts/4_Project.sol\":655:681  uint256 public nthOcassion */\n    tag_31:\n      sload(0x02)\n      dup2\n      jump\t// out\n        /* \"contracts/4_Project.sol\":2039:3476  function buyTicket(uint256 id) public payable {... */\n    tag_36:\n        /* \"contracts/4_Project.sol\":2096:2125  Ocassion storage thisOcassion */\n      0x00\n        /* \"contracts/4_Project.sol\":2128:2141  noOfOcassions */\n      0x01\n        /* \"contracts/4_Project.sol\":2128:2145  noOfOcassions[id] */\n      0x00\n        /* \"contracts/4_Project.sol\":2142:2144  id */\n      dup4\n        /* \"contracts/4_Project.sol\":2128:2145  noOfOcassions[id] */\n      dup2\n      mstore\n      0x20\n      add\n      swap1\n      dup2\n      mstore\n      0x20\n      add\n      0x00\n      keccak256\n        /* \"contracts/4_Project.sol\":2096:2145  Ocassion storage thisOcassion = noOfOcassions[id] */\n      swap1\n      pop\n        /* \"contracts/4_Project.sol\":2209:2221  thisOcassion */\n      dup1\n        /* \"contracts/4_Project.sol\":2209:2231  thisOcassion.nthTicket */\n      0x04\n      add\n      sload\n        /* \"contracts/4_Project.sol\":2178:2190  thisOcassion */\n      dup2\n        /* \"contracts/4_Project.sol\":2178:2205  thisOcassion.maxNoOfTicekts */\n      0x03\n      add\n      sload\n        /* \"contracts/4_Project.sol\":2178:2231  thisOcassion.maxNoOfTicekts >= thisOcassion.nthTicket */\n      lt\n      iszero\n        /* \"contracts/4_Project.sol\":2156:2275  require(... */\n      tag_111\n      jumpi\n      mload(0x40)\n      0x08c379a000000000000000000000000000000000000000000000000000000000\n      dup2\n      mstore\n      0x04\n      add\n      tag_112\n      swap1\n      tag_113\n      jump\t// in\n    tag_112:\n      mload(0x40)\n      dup1\n      swap2\n      sub\n      swap1\n      revert\n    tag_111:\n        /* \"contracts/4_Project.sol\":2288:2303  bool goldenuser */\n      0x00\n        /* \"contracts/4_Project.sol\":2333:2342  uint256 i */\n      dup1\n        /* \"contracts/4_Project.sol\":2345:2346  0 */\n      0x00\n        /* \"contracts/4_Project.sol\":2333:2346  uint256 i = 0 */\n      swap1\n      pop\n        /* \"contracts/4_Project.sol\":2314:3053  for (... */\n    tag_114:\n        /* \"contracts/4_Project.sol\":2365:2376  goldAddress */\n      0x04\n        /* \"contracts/4_Project.sol\":2365:2383  goldAddress.length */\n      dup1\n      sload\n      swap1\n      pop\n        /* \"contracts/4_Project.sol\":2361:2362  i */\n      dup2\n        /* \"contracts/4_Project.sol\":2361:2383  i < goldAddress.length */\n      lt\n        /* \"contracts/4_Project.sol\":2314:3053  for (... */\n      iszero\n      tag_115\n      jumpi\n        /* \"contracts/4_Project.sol\":2485:2496  goldAddress */\n      0x04\n        /* \"contracts/4_Project.sol\":2497:2498  i */\n      dup2\n        /* \"contracts/4_Project.sol\":2485:2499  goldAddress[i] */\n      dup2\n      sload\n      dup2\n      lt\n      tag_117\n      jumpi\n      tag_118\n      tag_93\n      jump\t// in\n    tag_118:\n    tag_117:\n      swap1\n      0x00\n      mstore\n      keccak256(0x00, 0x20)\n      add\n      0x00\n      swap1\n      sload\n      swap1\n      0x0100\n      exp\n      swap1\n      div\n      0xffffffffffffffffffffffffffffffffffffffff\n      and\n        /* \"contracts/4_Project.sol\":2471:2499  msg.sender == goldAddress[i] */\n      0xffffffffffffffffffffffffffffffffffffffff\n      and\n        /* \"contracts/4_Project.sol\":2471:2481  msg.sender */\n      caller\n        /* \"contracts/4_Project.sol\":2471:2499  msg.sender == goldAddress[i] */\n      0xffffffffffffffffffffffffffffffffffffffff\n      and\n      sub\n        /* \"contracts/4_Project.sol\":2467:3042  if (msg.sender == goldAddress[i]) {... */\n      tag_120\n      jumpi\n        /* \"contracts/4_Project.sol\":2520:2532  thisOcassion */\n      dup3\n        /* \"contracts/4_Project.sol\":2520:2542  thisOcassion.nthTicket */\n      0x04\n      add\n      0x00\n        /* \"contracts/4_Project.sol\":2520:2544  thisOcassion.nthTicket++ */\n      dup2\n      sload\n      dup1\n      swap3\n      swap2\n      swap1\n      tag_121\n      swap1\n      tag_122\n      jump\t// in\n    tag_121:\n      swap2\n      swap1\n      pop\n      sstore\n      pop\n        /* \"contracts/4_Project.sol\":2563:2575  thisOcassion */\n      dup3\n        /* \"contracts/4_Project.sol\":2563:2586  thisOcassion.attendants */\n      0x09\n      add\n        /* \"contracts/4_Project.sol\":2592:2602  msg.sender */\n      caller\n        /* \"contracts/4_Project.sol\":2563:2603  thisOcassion.attendants.push(msg.sender) */\n      swap1\n      dup1\n      0x01\n      dup2\n      sload\n      add\n      dup1\n      dup3\n      sstore\n      dup1\n      swap2\n      pop\n      pop\n      0x01\n      swap1\n      sub\n      swap1\n      0x00\n      mstore\n      keccak256(0x00, 0x20)\n      add\n      0x00\n      swap1\n      swap2\n      swap1\n      swap2\n      swap1\n      swap2\n      0x0100\n      exp\n      dup2\n      sload\n      dup2\n      0xffffffffffffffffffffffffffffffffffffffff\n      mul\n      not\n      and\n      swap1\n      dup4\n      0xffffffffffffffffffffffffffffffffffffffff\n      and\n      mul\n      or\n      swap1\n      sstore\n      pop\n        /* \"contracts/4_Project.sol\":2627:2636  uint256 j */\n      0x00\n        /* \"contracts/4_Project.sol\":2639:2640  i */\n      dup2\n        /* \"contracts/4_Project.sol\":2627:2640  uint256 j = i */\n      swap1\n      pop\n        /* \"contracts/4_Project.sol\":2622:2797  for (uint256 j = i; j < goldAddress.length - 1; j++) {... */\n    tag_124:\n        /* \"contracts/4_Project.sol\":2667:2668  1 */\n      0x01\n        /* \"contracts/4_Project.sol\":2646:2657  goldAddress */\n      0x04\n        /* \"contracts/4_Project.sol\":2646:2664  goldAddress.length */\n      dup1\n      sload\n      swap1\n      pop\n        /* \"contracts/4_Project.sol\":2646:2668  goldAddress.length - 1 */\n      tag_127\n      swap2\n      swap1\n      tag_128\n      jump\t// in\n    tag_127:\n        /* \"contracts/4_Project.sol\":2642:2643  j */\n      dup2\n        /* \"contracts/4_Project.sol\":2642:2668  j < goldAddress.length - 1 */\n      lt\n        /* \"contracts/4_Project.sol\":2622:2797  for (uint256 j = i; j < goldAddress.length - 1; j++) {... */\n      iszero\n      tag_125\n      jumpi\n        /* \"contracts/4_Project.sol\":2715:2726  goldAddress */\n      0x04\n        /* \"contracts/4_Project.sol\":2731:2732  1 */\n      0x01\n        /* \"contracts/4_Project.sol\":2727:2728  j */\n      dup3\n        /* \"contracts/4_Project.sol\":2727:2732  j + 1 */\n      tag_129\n      swap2\n      swap1\n      tag_130\n      jump\t// in\n    tag_129:\n        /* \"contracts/4_Project.sol\":2715:2733  goldAddress[j + 1] */\n      dup2\n      sload\n      dup2\n      lt\n      tag_131\n      jumpi\n      tag_132\n      tag_93\n      jump\t// in\n    tag_132:\n    tag_131:\n      swap1\n      0x00\n      mstore\n      keccak256(0x00, 0x20)\n      add\n      0x00\n      swap1\n      sload\n      swap1\n      0x0100\n      exp\n      swap1\n      div\n      0xffffffffffffffffffffffffffffffffffffffff\n      and\n        /* \"contracts/4_Project.sol\":2698:2709  goldAddress */\n      0x04\n        /* \"contracts/4_Project.sol\":2710:2711  j */\n      dup3\n        /* \"contracts/4_Project.sol\":2698:2712  goldAddress[j] */\n      dup2\n      sload\n      dup2\n      lt\n      tag_134\n      jumpi\n      tag_135\n      tag_93\n      jump\t// in\n    tag_135:\n    tag_134:\n      swap1\n      0x00\n      mstore\n      keccak256(0x00, 0x20)\n      add\n      0x00\n        /* \"contracts/4_Project.sol\":2698:2733  goldAddress[j] = goldAddress[j + 1] */\n      0x0100\n      exp\n      dup2\n      sload\n      dup2\n      0xffffffffffffffffffffffffffffffffffffffff\n      mul\n      not\n      and\n      swap1\n      dup4\n      0xffffffffffffffffffffffffffffffffffffffff\n      and\n      mul\n      or\n      swap1\n      sstore\n      pop\n        /* \"contracts/4_Project.sol\":2670:2673  j++ */\n      dup1\n      dup1\n      0x01\n      add\n      swap2\n      pop\n      pop\n        /* \"contracts/4_Project.sol\":2622:2797  for (uint256 j = i; j < goldAddress.length - 1; j++) {... */\n      jump(tag_124)\n    tag_125:\n      pop\n        /* \"contracts/4_Project.sol\":2815:2826  goldAddress */\n      0x04\n        /* \"contracts/4_Project.sol\":2815:2832  goldAddress.pop() */\n      dup1\n      sload\n      dup1\n      tag_137\n      jumpi\n      tag_138\n      tag_139\n      jump\t// in\n    tag_138:\n    tag_137:\n      0x01\n      swap1\n      sub\n      dup2\n      dup2\n      swap1\n      0x00\n      mstore\n      keccak256(0x00, 0x20)\n      add\n      exp(0x0100, 0x00)\n      dup2\n      sload\n      swap1\n      0xffffffffffffffffffffffffffffffffffffffff\n      mul\n      not\n      and\n      swap1\n      sstore\n      swap1\n      sstore\n        /* \"contracts/4_Project.sol\":2961:2971  goldTokens */\n      0x05\n      0x00\n        /* \"contracts/4_Project.sol\":2961:2973  goldTokens++ */\n      dup2\n      sload\n      dup1\n      swap3\n      swap2\n      swap1\n      tag_141\n      swap1\n      tag_122\n      jump\t// in\n    tag_141:\n      swap2\n      swap1\n      pop\n      sstore\n      pop\n        /* \"contracts/4_Project.sol\":3005:3009  true */\n      0x01\n        /* \"contracts/4_Project.sol\":2992:3009  goldenuser = true */\n      swap2\n      pop\n        /* \"contracts/4_Project.sol\":2467:3042  if (msg.sender == goldAddress[i]) {... */\n    tag_120:\n        /* \"contracts/4_Project.sol\":2398:2401  i++ */\n      dup1\n      dup1\n      0x01\n      add\n      swap2\n      pop\n      pop\n        /* \"contracts/4_Project.sol\":2314:3053  for (... */\n      jump(tag_114)\n    tag_115:\n      pop\n        /* \"contracts/4_Project.sol\":3083:3088  false */\n      0x00\n        /* \"contracts/4_Project.sol\":3069:3088  goldenuser == false */\n      iszero\n      iszero\n        /* \"contracts/4_Project.sol\":3069:3079  goldenuser */\n      dup2\n        /* \"contracts/4_Project.sol\":3069:3088  goldenuser == false */\n      iszero\n      iszero\n      sub\n        /* \"contracts/4_Project.sol\":3065:3283  if (goldenuser == false) {... */\n      tag_142\n      jumpi\n        /* \"contracts/4_Project.sol\":3126:3138  thisOcassion */\n      dup2\n        /* \"contracts/4_Project.sol\":3126:3144  thisOcassion.price */\n      0x07\n      add\n      sload\n        /* \"contracts/4_Project.sol\":3113:3122  msg.value */\n      callvalue\n        /* \"contracts/4_Project.sol\":3113:3144  msg.value == thisOcassion.price */\n      eq\n        /* \"contracts/4_Project.sol\":3105:3145  require(msg.value == thisOcassion.price) */\n      tag_143\n      jumpi\n      0x00\n      dup1\n      revert\n    tag_143:\n        /* \"contracts/4_Project.sol\":3160:3172  thisOcassion */\n      dup2\n        /* \"contracts/4_Project.sol\":3160:3182  thisOcassion.nthTicket */\n      0x04\n      add\n      0x00\n        /* \"contracts/4_Project.sol\":3160:3184  thisOcassion.nthTicket++ */\n      dup2\n      sload\n      dup1\n      swap3\n      swap2\n      swap1\n      tag_144\n      swap1\n      tag_122\n      jump\t// in\n    tag_144:\n      swap2\n      swap1\n      pop\n      sstore\n      pop\n        /* \"contracts/4_Project.sol\":3199:3211  thisOcassion */\n      dup2\n        /* \"contracts/4_Project.sol\":3199:3222  thisOcassion.attendants */\n      0x09\n      add\n        /* \"contracts/4_Project.sol\":3228:3238  msg.sender */\n      caller\n        /* \"contracts/4_Project.sol\":3199:3239  thisOcassion.attendants.push(msg.sender) */\n      swap1\n      dup1\n      0x01\n      dup2\n      sload\n      add\n      dup1\n      dup3\n      sstore\n      dup1\n      swap2\n      pop\n      pop\n      0x01\n      swap1\n      sub\n      swap1\n      0x00\n      mstore\n      keccak256(0x00, 0x20)\n      add\n      0x00\n      swap1\n      swap2\n      swap1\n      swap2\n      swap1\n      swap2\n      0x0100\n      exp\n      dup2\n      sload\n      dup2\n      0xffffffffffffffffffffffffffffffffffffffff\n      mul\n      not\n      and\n      swap1\n      dup4\n      0xffffffffffffffffffffffffffffffffffffffff\n      and\n      mul\n      or\n      swap1\n      sstore\n      pop\n        /* \"contracts/4_Project.sol\":3065:3283  if (goldenuser == false) {... */\n    tag_142:\n        /* \"contracts/4_Project.sol\":3295:3317  address  payable  user */\n      0x00\n        /* \"contracts/4_Project.sol\":3320:3332  thisOcassion */\n      dup3\n        /* \"contracts/4_Project.sol\":3320:3348  thisOcassion.ocassionManager */\n      0x01\n      add\n      0x00\n      swap1\n      sload\n      swap1\n      0x0100\n      exp\n      swap1\n      div\n      0xffffffffffffffffffffffffffffffffffffffff\n      and\n        /* \"contracts/4_Project.sol\":3295:3348  address  payable  user = thisOcassion.ocassionManager */\n      swap1\n      pop\n        /* \"contracts/4_Project.sol\":3359:3363  user */\n      dup1\n        /* \"contracts/4_Project.sol\":3359:3372  user.transfer */\n      0xffffffffffffffffffffffffffffffffffffffff\n      and\n        /* \"contracts/4_Project.sol\":3359:3392  user.transfer(thisOcassion.price) */\n      0x08fc\n        /* \"contracts/4_Project.sol\":3373:3385  thisOcassion */\n      dup5\n        /* \"contracts/4_Project.sol\":3373:3391  thisOcassion.price */\n      0x07\n      add\n      sload\n        /* \"contracts/4_Project.sol\":3359:3392  user.transfer(thisOcassion.price) */\n      swap1\n      dup2\n      iszero\n      mul\n      swap1\n      mload(0x40)\n      0x00\n      mload(0x40)\n      dup1\n      dup4\n      sub\n      dup2\n      dup6\n      dup9\n      dup9\n      call\n      swap4\n      pop\n      pop\n      pop\n      pop\n      iszero\n      dup1\n      iszero\n      tag_147\n      jumpi\n      returndatasize\n      0x00\n      dup1\n      returndatacopy\n      revert(0x00, returndatasize)\n    tag_147:\n      pop\n        /* \"contracts/4_Project.sol\":3435:3447  thisOcassion */\n      dup3\n        /* \"contracts/4_Project.sol\":3425:3428  arr */\n      0x03\n        /* \"contracts/4_Project.sol\":3429:3431  id */\n      dup6\n        /* \"contracts/4_Project.sol\":3425:3432  arr[id] */\n      dup2\n      sload\n      dup2\n      lt\n      tag_148\n      jumpi\n      tag_149\n      tag_93\n      jump\t// in\n    tag_149:\n    tag_148:\n      swap1\n      0x00\n      mstore\n      keccak256(0x00, 0x20)\n      swap1\n      0x0a\n      mul\n      add\n        /* \"contracts/4_Project.sol\":3425:3447  arr[id] = thisOcassion */\n      0x00\n      dup3\n      add\n      dup2\n      0x00\n      add\n      swap1\n      dup2\n      tag_151\n      swap2\n      swap1\n      tag_152\n      jump\t// in\n    tag_151:\n      pop\n      0x01\n      dup3\n      add\n      0x00\n      swap1\n      sload\n      swap1\n      0x0100\n      exp\n      swap1\n      div\n      0xffffffffffffffffffffffffffffffffffffffff\n      and\n      dup2\n      0x01\n      add\n      exp(0x0100, 0x00)\n      dup2\n      sload\n      dup2\n      0xffffffffffffffffffffffffffffffffffffffff\n      mul\n      not\n      and\n      swap1\n      dup4\n      0xffffffffffffffffffffffffffffffffffffffff\n      and\n      mul\n      or\n      swap1\n      sstore\n      pop\n      0x02\n      dup3\n      add\n      dup2\n      0x02\n      add\n      swap1\n      dup2\n      tag_153\n      swap2\n      swap1\n      tag_152\n      jump\t// in\n    tag_153:\n      pop\n      0x03\n      dup3\n      add\n      sload\n      dup2\n      0x03\n      add\n      sstore\n      0x04\n      dup3\n      add\n      sload\n      dup2\n      0x04\n      add\n      sstore\n      0x05\n      dup3\n      add\n      sload\n      dup2\n      0x05\n      add\n      sstore\n      0x06\n      dup3\n      add\n      dup2\n      0x06\n      add\n      swap1\n      dup2\n      tag_154\n      swap2\n      swap1\n      tag_152\n      jump\t// in\n    tag_154:\n      pop\n      0x07\n      dup3\n      add\n      sload\n      dup2\n      0x07\n      add\n      sstore\n      0x08\n      dup3\n      add\n      dup2\n      0x08\n      add\n      swap1\n      dup2\n      tag_155\n      swap2\n      swap1\n      tag_152\n      jump\t// in\n    tag_155:\n      pop\n      0x09\n      dup3\n      add\n      dup2\n      0x09\n      add\n      swap1\n      dup1\n      sload\n      tag_156\n      swap3\n      swap2\n      swap1\n      tag_157\n      jump\t// in\n    tag_156:\n      pop\n      swap1\n      pop\n      pop\n        /* \"contracts/4_Project.sol\":2085:3476  {... */\n      pop\n      pop\n      pop\n        /* \"contracts/4_Project.sol\":2039:3476  function buyTicket(uint256 id) public payable {... */\n      pop\n      jump\t// out\n        /* \"contracts/4_Project.sol\":694:715  Ocassion[] public arr */\n    tag_40:\n      0x03\n      dup2\n      dup2\n      sload\n      dup2\n      lt\n      tag_158\n      jumpi\n      0x00\n      dup1\n      revert\n    tag_158:\n      swap1\n      0x00\n      mstore\n      keccak256(0x00, 0x20)\n      swap1\n      0x0a\n      mul\n      add\n      0x00\n      swap2\n      pop\n      swap1\n      pop\n      dup1\n      0x00\n      add\n      dup1\n      sload\n      tag_160\n      swap1\n      tag_67\n      jump\t// in\n    tag_160:\n      dup1\n      0x1f\n      add\n      0x20\n      dup1\n      swap2\n      div\n      mul\n      0x20\n      add\n      mload(0x40)\n      swap1\n      dup2\n      add\n      0x40\n      mstore\n      dup1\n      swap3\n      swap2\n      swap1\n      dup2\n      dup2\n      mstore\n      0x20\n      add\n      dup3\n      dup1\n      sload\n      tag_161\n      swap1\n      tag_67\n      jump\t// in\n    tag_161:\n      dup1\n      iszero\n      tag_162\n      jumpi\n      dup1\n      0x1f\n      lt\n      tag_163\n      jumpi\n      0x0100\n      dup1\n      dup4\n      sload\n      div\n      mul\n      dup4\n      mstore\n      swap2\n      0x20\n      add\n      swap2\n      jump(tag_162)\n    tag_163:\n      dup3\n      add\n      swap2\n      swap1\n      0x00\n      mstore\n      keccak256(0x00, 0x20)\n      swap1\n    tag_164:\n      dup2\n      sload\n      dup2\n      mstore\n      swap1\n      0x01\n      add\n      swap1\n      0x20\n      add\n      dup1\n      dup4\n      gt\n      tag_164\n      jumpi\n      dup3\n      swap1\n      sub\n      0x1f\n      and\n      dup3\n      add\n      swap2\n    tag_162:\n      pop\n      pop\n      pop\n      pop\n      pop\n      swap1\n      dup1\n      0x01\n      add\n      0x00\n      swap1\n      sload\n      swap1\n      0x0100\n      exp\n      swap1\n      div\n      0xffffffffffffffffffffffffffffffffffffffff\n      and\n      swap1\n      dup1\n      0x02\n      add\n      dup1\n      sload\n      tag_165\n      swap1\n      tag_67\n      jump\t// in\n    tag_165:\n      dup1\n      0x1f\n      add\n      0x20\n      dup1\n      swap2\n      div\n      mul\n      0x20\n      add\n      mload(0x40)\n      swap1\n      dup2\n      add\n      0x40\n      mstore\n      dup1\n      swap3\n      swap2\n      swap1\n      dup2\n      dup2\n      mstore\n      0x20\n      add\n      dup3\n      dup1\n      sload\n      tag_166\n      swap1\n      tag_67\n      jump\t// in\n    tag_166:\n      dup1\n      iszero\n      tag_167\n      jumpi\n      dup1\n      0x1f\n      lt\n      tag_168\n      jumpi\n      0x0100\n      dup1\n      dup4\n      sload\n      div\n      mul\n      dup4\n      mstore\n      swap2\n      0x20\n      add\n      swap2\n      jump(tag_167)\n    tag_168:\n      dup3\n      add\n      swap2\n      swap1\n      0x00\n      mstore\n      keccak256(0x00, 0x20)\n      swap1\n    tag_169:\n      dup2\n      sload\n      dup2\n      mstore\n      swap1\n      0x01\n      add\n      swap1\n      0x20\n      add\n      dup1\n      dup4\n      gt\n      tag_169\n      jumpi\n      dup3\n      swap1\n      sub\n      0x1f\n      and\n      dup3\n      add\n      swap2\n    tag_167:\n      pop\n      pop\n      pop\n      pop\n      pop\n      swap1\n      dup1\n      0x03\n      add\n      sload\n      swap1\n      dup1\n      0x04\n      add\n      sload\n      swap1\n      dup1\n      0x05\n      add\n      sload\n      swap1\n      dup1\n      0x06\n      add\n      dup1\n      sload\n      tag_170\n      swap1\n      tag_67\n      jump\t// in\n    tag_170:\n      dup1\n      0x1f\n      add\n      0x20\n      dup1\n      swap2\n      div\n      mul\n      0x20\n      add\n      mload(0x40)\n      swap1\n      dup2\n      add\n      0x40\n      mstore\n      dup1\n      swap3\n      swap2\n      swap1\n      dup2\n      dup2\n      mstore\n      0x20\n      add\n      dup3\n      dup1\n      sload\n      tag_171\n      swap1\n      tag_67\n      jump\t// in\n    tag_171:\n      dup1\n      iszero\n      tag_172\n      jumpi\n      dup1\n      0x1f\n      lt\n      tag_173\n      jumpi\n      0x0100\n      dup1\n      dup4\n      sload\n      div\n      mul\n      dup4\n      mstore\n      swap2\n      0x20\n      add\n      swap2\n      jump(tag_172)\n    tag_173:\n      dup3\n      add\n      swap2\n      swap1\n      0x00\n      mstore\n      keccak256(0x00, 0x20)\n      swap1\n    tag_174:\n      dup2\n      sload\n      dup2\n      mstore\n      swap1\n      0x01\n      add\n      swap1\n      0x20\n      add\n      dup1\n      dup4\n      gt\n      tag_174\n      jumpi\n      dup3\n      swap1\n      sub\n      0x1f\n      and\n      dup3\n      add\n      swap2\n    tag_172:\n      pop\n      pop\n      pop\n      pop\n      pop\n      swap1\n      dup1\n      0x07\n      add\n      sload\n      swap1\n      dup1\n      0x08\n      add\n      dup1\n      sload\n      tag_175\n      swap1\n      tag_67\n      jump\t// in\n    tag_175:\n      dup1\n      0x1f\n      add\n      0x20\n      dup1\n      swap2\n      div\n      mul\n      0x20\n      add\n      mload(0x40)\n      swap1\n      dup2\n      add\n      0x40\n      mstore\n      dup1\n      swap3\n      swap2\n      swap1\n      dup2\n      dup2\n      mstore\n      0x20\n      add\n      dup3\n      dup1\n      sload\n      tag_176\n      swap1\n      tag_67\n      jump\t// in\n    tag_176:\n      dup1\n      iszero\n      tag_177\n      jumpi\n      dup1\n      0x1f\n      lt\n      tag_178\n      jumpi\n      0x0100\n      dup1\n      dup4\n      sload\n      div\n      mul\n      dup4\n      mstore\n      swap2\n      0x20\n      add\n      swap2\n      jump(tag_177)\n    tag_178:\n      dup3\n      add\n      swap2\n      swap1\n      0x00\n      mstore\n      keccak256(0x00, 0x20)\n      swap1\n    tag_179:\n      dup2\n      sload\n      dup2\n      mstore\n      swap1\n      0x01\n      add\n      swap1\n      0x20\n      add\n      dup1\n      dup4\n      gt\n      tag_179\n      jumpi\n      dup3\n      swap1\n      sub\n      0x1f\n      and\n      dup3\n      add\n      swap2\n    tag_177:\n      pop\n      pop\n      pop\n      pop\n      pop\n      swap1\n      pop\n      dup10\n      jump\t// out\n        /* \"contracts/4_Project.sol\":90:110  address public owner */\n    tag_44:\n      0x00\n      dup1\n      sload\n      swap1\n      0x0100\n      exp\n      swap1\n      div\n      0xffffffffffffffffffffffffffffffffffffffff\n      and\n      dup2\n      jump\t// out\n        /* \"contracts/4_Project.sol\":4033:4409  function showTickets(uint id) view  public returns(uint) {... */\n    tag_49:\n        /* \"contracts/4_Project.sol\":4084:4088  uint */\n      0x00\n        /* \"contracts/4_Project.sol\":4101:4117  uint   myTickets */\n      dup1\n        /* \"contracts/4_Project.sol\":4120:4121  0 */\n      0x00\n        /* \"contracts/4_Project.sol\":4101:4121  uint   myTickets = 0 */\n      swap1\n      pop\n        /* \"contracts/4_Project.sol\":4132:4161  Ocassion storage thisOcassion */\n      0x00\n        /* \"contracts/4_Project.sol\":4164:4177  noOfOcassions */\n      0x01\n        /* \"contracts/4_Project.sol\":4164:4181  noOfOcassions[id] */\n      0x00\n        /* \"contracts/4_Project.sol\":4178:4180  id */\n      dup6\n        /* \"contracts/4_Project.sol\":4164:4181  noOfOcassions[id] */\n      dup2\n      mstore\n      0x20\n      add\n      swap1\n      dup2\n      mstore\n      0x20\n      add\n      0x00\n      keccak256\n        /* \"contracts/4_Project.sol\":4132:4181  Ocassion storage thisOcassion = noOfOcassions[id] */\n      swap1\n      pop\n        /* \"contracts/4_Project.sol\":4197:4203  uint i */\n      0x00\n        /* \"contracts/4_Project.sol\":4192:4375  for (uint i =0; i<thisOcassion.attendants.length; i++) ... */\n    tag_181:\n        /* \"contracts/4_Project.sol\":4210:4222  thisOcassion */\n      dup2\n        /* \"contracts/4_Project.sol\":4210:4233  thisOcassion.attendants */\n      0x09\n      add\n        /* \"contracts/4_Project.sol\":4210:4240  thisOcassion.attendants.length */\n      dup1\n      sload\n      swap1\n      pop\n        /* \"contracts/4_Project.sol\":4208:4209  i */\n      dup2\n        /* \"contracts/4_Project.sol\":4208:4240  i<thisOcassion.attendants.length */\n      lt\n        /* \"contracts/4_Project.sol\":4192:4375  for (uint i =0; i<thisOcassion.attendants.length; i++) ... */\n      iszero\n      tag_182\n      jumpi\n        /* \"contracts/4_Project.sol\":4304:4314  msg.sender */\n      caller\n        /* \"contracts/4_Project.sol\":4276:4314  thisOcassion.attendants[i]==msg.sender */\n      0xffffffffffffffffffffffffffffffffffffffff\n      and\n        /* \"contracts/4_Project.sol\":4276:4288  thisOcassion */\n      dup3\n        /* \"contracts/4_Project.sol\":4276:4299  thisOcassion.attendants */\n      0x09\n      add\n        /* \"contracts/4_Project.sol\":4300:4301  i */\n      dup3\n        /* \"contracts/4_Project.sol\":4276:4302  thisOcassion.attendants[i] */\n      dup2\n      sload\n      dup2\n      lt\n      tag_184\n      jumpi\n      tag_185\n      tag_93\n      jump\t// in\n    tag_185:\n    tag_184:\n      swap1\n      0x00\n      mstore\n      keccak256(0x00, 0x20)\n      add\n      0x00\n      swap1\n      sload\n      swap1\n      0x0100\n      exp\n      swap1\n      div\n      0xffffffffffffffffffffffffffffffffffffffff\n      and\n        /* \"contracts/4_Project.sol\":4276:4314  thisOcassion.attendants[i]==msg.sender */\n      0xffffffffffffffffffffffffffffffffffffffff\n      and\n      sub\n        /* \"contracts/4_Project.sol\":4272:4362  if (thisOcassion.attendants[i]==msg.sender) {... */\n      tag_187\n      jumpi\n        /* \"contracts/4_Project.sol\":4335:4346  myTickets++ */\n      dup3\n      dup1\n      tag_188\n      swap1\n      tag_122\n      jump\t// in\n    tag_188:\n      swap4\n      pop\n      pop\n        /* \"contracts/4_Project.sol\":4272:4362  if (thisOcassion.attendants[i]==msg.sender) {... */\n    tag_187:\n        /* \"contracts/4_Project.sol\":4242:4245  i++ */\n      dup1\n      dup1\n      0x01\n      add\n      swap2\n      pop\n      pop\n        /* \"contracts/4_Project.sol\":4192:4375  for (uint i =0; i<thisOcassion.attendants.length; i++) ... */\n      jump(tag_181)\n    tag_182:\n      pop\n        /* \"contracts/4_Project.sol\":4392:4401  myTickets */\n      dup2\n        /* \"contracts/4_Project.sol\":4385:4401  return myTickets */\n      swap3\n      pop\n      pop\n      pop\n        /* \"contracts/4_Project.sol\":4033:4409  function showTickets(uint id) view  public returns(uint) {... */\n      swap2\n      swap1\n      pop\n      jump\t// out\n        /* \"contracts/4_Project.sol\":1121:1952  function addEvent(... */\n    tag_55:\n        /* \"contracts/4_Project.sol\":855:860  owner */\n      0x00\n      dup1\n      sload\n      swap1\n      0x0100\n      exp\n      swap1\n      div\n      0xffffffffffffffffffffffffffffffffffffffff\n      and\n        /* \"contracts/4_Project.sol\":841:860  msg.sender == owner */\n      0xffffffffffffffffffffffffffffffffffffffff\n      and\n        /* \"contracts/4_Project.sol\":841:851  msg.sender */\n      caller\n        /* \"contracts/4_Project.sol\":841:860  msg.sender == owner */\n      0xffffffffffffffffffffffffffffffffffffffff\n      and\n      eq\n        /* \"contracts/4_Project.sol\":833:889  require(msg.sender == owner, \"Only owner can call this\") */\n      tag_190\n      jumpi\n      mload(0x40)\n      0x08c379a000000000000000000000000000000000000000000000000000000000\n      dup2\n      mstore\n      0x04\n      add\n      tag_191\n      swap1\n      tag_192\n      jump\t// in\n    tag_191:\n      mload(0x40)\n      dup1\n      swap2\n      sub\n      swap1\n      revert\n    tag_190:\n        /* \"contracts/4_Project.sol\":1442:1470  Ocassion storage newOcassion */\n      0x00\n        /* \"contracts/4_Project.sol\":1473:1486  noOfOcassions */\n      0x01\n        /* \"contracts/4_Project.sol\":1473:1499  noOfOcassions[nthOcassion] */\n      0x00\n        /* \"contracts/4_Project.sol\":1487:1498  nthOcassion */\n      sload(0x02)\n        /* \"contracts/4_Project.sol\":1473:1499  noOfOcassions[nthOcassion] */\n      dup2\n      mstore\n      0x20\n      add\n      swap1\n      dup2\n      mstore\n      0x20\n      add\n      0x00\n      keccak256\n        /* \"contracts/4_Project.sol\":1442:1499  Ocassion storage newOcassion = noOfOcassions[nthOcassion] */\n      swap1\n      pop\n        /* \"contracts/4_Project.sol\":1536:1548  _description */\n      dup7\n        /* \"contracts/4_Project.sol\":1510:1521  newOcassion */\n      dup2\n        /* \"contracts/4_Project.sol\":1510:1533  newOcassion.description */\n      0x02\n      add\n        /* \"contracts/4_Project.sol\":1510:1548  newOcassion.description = _description */\n      swap1\n      dup2\n      tag_194\n      swap2\n      swap1\n      tag_195\n      jump\t// in\n    tag_194:\n      pop\n        /* \"contracts/4_Project.sol\":1589:1605  _ocassionManager */\n      dup8\n        /* \"contracts/4_Project.sol\":1559:1570  newOcassion */\n      dup2\n        /* \"contracts/4_Project.sol\":1559:1586  newOcassion.ocassionManager */\n      0x01\n      add\n      0x00\n        /* \"contracts/4_Project.sol\":1559:1605  newOcassion.ocassionManager = _ocassionManager */\n      0x0100\n      exp\n      dup2\n      sload\n      dup2\n      0xffffffffffffffffffffffffffffffffffffffff\n      mul\n      not\n      and\n      swap1\n      dup4\n      0xffffffffffffffffffffffffffffffffffffffff\n      and\n      mul\n      or\n      swap1\n      sstore\n      pop\n        /* \"contracts/4_Project.sol\":1645:1660  _nameOfOcaasion */\n      dup9\n        /* \"contracts/4_Project.sol\":1616:1627  newOcassion */\n      dup2\n        /* \"contracts/4_Project.sol\":1616:1642  newOcassion.nameOfOcaasion */\n      0x00\n      add\n        /* \"contracts/4_Project.sol\":1616:1660  newOcassion.nameOfOcaasion = _nameOfOcaasion */\n      swap1\n      dup2\n      tag_196\n      swap2\n      swap1\n      tag_195\n      jump\t// in\n    tag_196:\n      pop\n        /* \"contracts/4_Project.sol\":1700:1715  _maxNoOfTicekts */\n      dup6\n        /* \"contracts/4_Project.sol\":1671:1682  newOcassion */\n      dup2\n        /* \"contracts/4_Project.sol\":1671:1697  newOcassion.maxNoOfTicekts */\n      0x03\n      add\n        /* \"contracts/4_Project.sol\":1671:1715  newOcassion.maxNoOfTicekts = _maxNoOfTicekts */\n      dup2\n      swap1\n      sstore\n      pop\n        /* \"contracts/4_Project.sol\":1745:1750  _date */\n      dup5\n        /* \"contracts/4_Project.sol\":1726:1737  newOcassion */\n      dup2\n        /* \"contracts/4_Project.sol\":1726:1742  newOcassion.date */\n      0x05\n      add\n        /* \"contracts/4_Project.sol\":1726:1750  newOcassion.date = _date */\n      dup2\n      swap1\n      sstore\n      pop\n        /* \"contracts/4_Project.sol\":1784:1793  _loaction */\n      dup4\n        /* \"contracts/4_Project.sol\":1761:1772  newOcassion */\n      dup2\n        /* \"contracts/4_Project.sol\":1761:1781  newOcassion.location */\n      0x06\n      add\n        /* \"contracts/4_Project.sol\":1761:1793  newOcassion.location = _loaction */\n      swap1\n      dup2\n      tag_197\n      swap2\n      swap1\n      tag_195\n      jump\t// in\n    tag_197:\n      pop\n        /* \"contracts/4_Project.sol\":1824:1830  _price */\n      dup3\n        /* \"contracts/4_Project.sol\":1804:1815  newOcassion */\n      dup2\n        /* \"contracts/4_Project.sol\":1804:1821  newOcassion.price */\n      0x07\n      add\n        /* \"contracts/4_Project.sol\":1804:1830  newOcassion.price = _price */\n      dup2\n      swap1\n      sstore\n      pop\n        /* \"contracts/4_Project.sol\":1860:1865  _time */\n      dup2\n        /* \"contracts/4_Project.sol\":1841:1852  newOcassion */\n      dup2\n        /* \"contracts/4_Project.sol\":1841:1857  newOcassion.time */\n      0x08\n      add\n        /* \"contracts/4_Project.sol\":1841:1865  newOcassion.time = _time */\n      swap1\n      dup2\n      tag_198\n      swap2\n      swap1\n      tag_195\n      jump\t// in\n    tag_198:\n      pop\n        /* \"contracts/4_Project.sol\":1878:1889  nthOcassion */\n      0x02\n      0x00\n        /* \"contracts/4_Project.sol\":1878:1891  nthOcassion++ */\n      dup2\n      sload\n      dup1\n      swap3\n      swap2\n      swap1\n      tag_199\n      swap1\n      tag_122\n      jump\t// in\n    tag_199:\n      swap2\n      swap1\n      pop\n      sstore\n      pop\n        /* \"contracts/4_Project.sol\":1902:1905  arr */\n      0x03\n        /* \"contracts/4_Project.sol\":1911:1922  newOcassion */\n      dup2\n        /* \"contracts/4_Project.sol\":1902:1923  arr.push(newOcassion) */\n      swap1\n      dup1\n      0x01\n      dup2\n      sload\n      add\n      dup1\n      dup3\n      sstore\n      dup1\n      swap2\n      pop\n      pop\n      0x01\n      swap1\n      sub\n      swap1\n      0x00\n      mstore\n      keccak256(0x00, 0x20)\n      swap1\n      0x0a\n      mul\n      add\n      0x00\n      swap1\n      swap2\n      swap1\n      swap2\n      swap1\n      swap2\n      pop\n      0x00\n      dup3\n      add\n      dup2\n      0x00\n      add\n      swap1\n      dup2\n      tag_201\n      swap2\n      swap1\n      tag_152\n      jump\t// in\n    tag_201:\n      pop\n      0x01\n      dup3\n      add\n      0x00\n      swap1\n      sload\n      swap1\n      0x0100\n      exp\n      swap1\n      div\n      0xffffffffffffffffffffffffffffffffffffffff\n      and\n      dup2\n      0x01\n      add\n      exp(0x0100, 0x00)\n      dup2\n      sload\n      dup2\n      0xffffffffffffffffffffffffffffffffffffffff\n      mul\n      not\n      and\n      swap1\n      dup4\n      0xffffffffffffffffffffffffffffffffffffffff\n      and\n      mul\n      or\n      swap1\n      sstore\n      pop\n      0x02\n      dup3\n      add\n      dup2\n      0x02\n      add\n      swap1\n      dup2\n      tag_202\n      swap2\n      swap1\n      tag_152\n      jump\t// in\n    tag_202:\n      pop\n      0x03\n      dup3\n      add\n      sload\n      dup2\n      0x03\n      add\n      sstore\n      0x04\n      dup3\n      add\n      sload\n      dup2\n      0x04\n      add\n      sstore\n      0x05\n      dup3\n      add\n      sload\n      dup2\n      0x05\n      add\n      sstore\n      0x06\n      dup3\n      add\n      dup2\n      0x06\n      add\n      swap1\n      dup2\n      tag_203\n      swap2\n      swap1\n      tag_152\n      jump\t// in\n    tag_203:\n      pop\n      0x07\n      dup3\n      add\n      sload\n      dup2\n      0x07\n      add\n      sstore\n      0x08\n      dup3\n      add\n      dup2\n      0x08\n      add\n      swap1\n      dup2\n      tag_204\n      swap2\n      swap1\n      tag_152\n      jump\t// in\n    tag_204:\n      pop\n      0x09\n      dup3\n      add\n      dup2\n      0x09\n      add\n      swap1\n      dup1\n      sload\n      tag_205\n      swap3\n      swap2\n      swap1\n      tag_157\n      jump\t// in\n    tag_205:\n      pop\n      pop\n      pop\n        /* \"contracts/4_Project.sol\":1431:1952  {... */\n      pop\n        /* \"contracts/4_Project.sol\":1121:1952  function addEvent(... */\n      pop\n      pop\n      pop\n      pop\n      pop\n      pop\n      pop\n      pop\n      jump\t// out\n        /* \"contracts/4_Project.sol\":923:1109  function getAddressList(uint256 id) public view returns (address[] memory) {... */\n    tag_59:\n        /* \"contracts/4_Project.sol\":980:996  address[] memory */\n      0x60\n        /* \"contracts/4_Project.sol\":1009:1038  Ocassion storage thisOcassion */\n      0x00\n        /* \"contracts/4_Project.sol\":1041:1054  noOfOcassions */\n      0x01\n        /* \"contracts/4_Project.sol\":1041:1058  noOfOcassions[id] */\n      0x00\n        /* \"contracts/4_Project.sol\":1055:1057  id */\n      dup5\n        /* \"contracts/4_Project.sol\":1041:1058  noOfOcassions[id] */\n      dup2\n      mstore\n      0x20\n      add\n      swap1\n      dup2\n      mstore\n      0x20\n      add\n      0x00\n      keccak256\n        /* \"contracts/4_Project.sol\":1009:1058  Ocassion storage thisOcassion = noOfOcassions[id] */\n      swap1\n      pop\n        /* \"contracts/4_Project.sol\":1078:1090  thisOcassion */\n      dup1\n        /* \"contracts/4_Project.sol\":1078:1101  thisOcassion.attendants */\n      0x09\n      add\n        /* \"contracts/4_Project.sol\":1071:1101  return thisOcassion.attendants */\n      dup1\n      sload\n      dup1\n      0x20\n      mul\n      0x20\n      add\n      mload(0x40)\n      swap1\n      dup2\n      add\n      0x40\n      mstore\n      dup1\n      swap3\n      swap2\n      swap1\n      dup2\n      dup2\n      mstore\n      0x20\n      add\n      dup3\n      dup1\n      sload\n      dup1\n      iszero\n      tag_207\n      jumpi\n      0x20\n      mul\n      dup3\n      add\n      swap2\n      swap1\n      0x00\n      mstore\n      keccak256(0x00, 0x20)\n      swap1\n    tag_208:\n      dup2\n      0x00\n      swap1\n      sload\n      swap1\n      0x0100\n      exp\n      swap1\n      div\n      0xffffffffffffffffffffffffffffffffffffffff\n      and\n      0xffffffffffffffffffffffffffffffffffffffff\n      and\n      dup2\n      mstore\n      0x20\n      add\n      swap1\n      0x01\n      add\n      swap1\n      dup1\n      dup4\n      gt\n      tag_208\n      jumpi\n    tag_207:\n      pop\n      pop\n      pop\n      pop\n      pop\n      swap2\n      pop\n      pop\n        /* \"contracts/4_Project.sol\":923:1109  function getAddressList(uint256 id) public view returns (address[] memory) {... */\n      swap2\n      swap1\n      pop\n      jump\t// out\n        /* \"contracts/4_Project.sol\":1995:2026  uint256 public goldTokens = 100 */\n    tag_64:\n      sload(0x05)\n      dup2\n      jump\t// out\n    tag_157:\n      dup3\n      dup1\n      sload\n      dup3\n      dup3\n      sstore\n      swap1\n      0x00\n      mstore\n      keccak256(0x00, 0x20)\n      swap1\n      dup2\n      add\n      swap3\n      dup3\n      iszero\n      tag_209\n      jumpi\n      0x00\n      mstore\n      keccak256(0x00, 0x20)\n      swap2\n      dup3\n      add\n    tag_210:\n      dup3\n      dup2\n      gt\n      iszero\n      tag_211\n      jumpi\n      dup3\n      sload\n      dup3\n      sstore\n      swap2\n      0x01\n      add\n      swap2\n      swap1\n      0x01\n      add\n      swap1\n      jump(tag_210)\n    tag_211:\n    tag_209:\n      pop\n      swap1\n      pop\n      tag_212\n      swap2\n      swap1\n      tag_213\n      jump\t// in\n    tag_212:\n      pop\n      swap1\n      jump\t// out\n    tag_213:\n    tag_214:\n      dup1\n      dup3\n      gt\n      iszero\n      tag_215\n      jumpi\n      0x00\n      dup2\n      0x00\n      swap1\n      sstore\n      pop\n      0x01\n      add\n      jump(tag_214)\n    tag_215:\n      pop\n      swap1\n      jump\t// out\n        /* \"#utility.yul\":7:82   */\n    tag_216:\n        /* \"#utility.yul\":40:46   */\n      0x00\n        /* \"#utility.yul\":73:75   */\n      0x40\n        /* \"#utility.yul\":67:76   */\n      mload\n        /* \"#utility.yul\":57:76   */\n      swap1\n      pop\n        /* \"#utility.yul\":7:82   */\n      swap1\n      jump\t// out\n        /* \"#utility.yul\":88:205   */\n    tag_217:\n        /* \"#utility.yul\":197:198   */\n      0x00\n        /* \"#utility.yul\":194:195   */\n      dup1\n        /* \"#utility.yul\":187:199   */\n      revert\n        /* \"#utility.yul\":211:328   */\n    tag_218:\n        /* \"#utility.yul\":320:321   */\n      0x00\n        /* \"#utility.yul\":317:318   */\n      dup1\n        /* \"#utility.yul\":310:322   */\n      revert\n        /* \"#utility.yul\":334:411   */\n    tag_219:\n        /* \"#utility.yul\":371:378   */\n      0x00\n        /* \"#utility.yul\":400:405   */\n      dup2\n        /* \"#utility.yul\":389:405   */\n      swap1\n      pop\n        /* \"#utility.yul\":334:411   */\n      swap2\n      swap1\n      pop\n      jump\t// out\n        /* \"#utility.yul\":417:539   */\n    tag_220:\n        /* \"#utility.yul\":490:514   */\n      tag_285\n        /* \"#utility.yul\":508:513   */\n      dup2\n        /* \"#utility.yul\":490:514   */\n      tag_219\n      jump\t// in\n    tag_285:\n        /* \"#utility.yul\":483:488   */\n      dup2\n        /* \"#utility.yul\":480:515   */\n      eq\n        /* \"#utility.yul\":470:533   */\n      tag_286\n      jumpi\n        /* \"#utility.yul\":529:530   */\n      0x00\n        /* \"#utility.yul\":526:527   */\n      dup1\n        /* \"#utility.yul\":519:531   */\n      revert\n        /* \"#utility.yul\":470:533   */\n    tag_286:\n        /* \"#utility.yul\":417:539   */\n      pop\n      jump\t// out\n        /* \"#utility.yul\":545:684   */\n    tag_221:\n        /* \"#utility.yul\":591:596   */\n      0x00\n        /* \"#utility.yul\":629:635   */\n      dup2\n        /* \"#utility.yul\":616:636   */\n      calldataload\n        /* \"#utility.yul\":607:636   */\n      swap1\n      pop\n        /* \"#utility.yul\":645:678   */\n      tag_288\n        /* \"#utility.yul\":672:677   */\n      dup2\n        /* \"#utility.yul\":645:678   */\n      tag_220\n      jump\t// in\n    tag_288:\n        /* \"#utility.yul\":545:684   */\n      swap3\n      swap2\n      pop\n      pop\n      jump\t// out\n        /* \"#utility.yul\":690:1019   */\n    tag_17:\n        /* \"#utility.yul\":749:755   */\n      0x00\n        /* \"#utility.yul\":798:800   */\n      0x20\n        /* \"#utility.yul\":786:795   */\n      dup3\n        /* \"#utility.yul\":777:784   */\n      dup5\n        /* \"#utility.yul\":773:796   */\n      sub\n        /* \"#utility.yul\":769:801   */\n      slt\n        /* \"#utility.yul\":766:885   */\n      iszero\n      tag_290\n      jumpi\n        /* \"#utility.yul\":804:883   */\n      tag_291\n      tag_217\n      jump\t// in\n    tag_291:\n        /* \"#utility.yul\":766:885   */\n    tag_290:\n        /* \"#utility.yul\":924:925   */\n      0x00\n        /* \"#utility.yul\":949:1002   */\n      tag_292\n        /* \"#utility.yul\":994:1001   */\n      dup5\n        /* \"#utility.yul\":985:991   */\n      dup3\n        /* \"#utility.yul\":974:983   */\n      dup6\n        /* \"#utility.yul\":970:992   */\n      add\n        /* \"#utility.yul\":949:1002   */\n      tag_221\n      jump\t// in\n    tag_292:\n        /* \"#utility.yul\":939:1002   */\n      swap2\n      pop\n        /* \"#utility.yul\":895:1012   */\n      pop\n        /* \"#utility.yul\":690:1019   */\n      swap3\n      swap2\n      pop\n      pop\n      jump\t// out\n        /* \"#utility.yul\":1025:1124   */\n    tag_222:\n        /* \"#utility.yul\":1077:1083   */\n      0x00\n        /* \"#utility.yul\":1111:1116   */\n      dup2\n        /* \"#utility.yul\":1105:1117   */\n      mload\n        /* \"#utility.yul\":1095:1117   */\n      swap1\n      pop\n        /* \"#utility.yul\":1025:1124   */\n      swap2\n      swap1\n      pop\n      jump\t// out\n        /* \"#utility.yul\":1130:1299   */\n    tag_223:\n        /* \"#utility.yul\":1214:1225   */\n      0x00\n        /* \"#utility.yul\":1248:1254   */\n      dup3\n        /* \"#utility.yul\":1243:1246   */\n      dup3\n        /* \"#utility.yul\":1236:1255   */\n      mstore\n        /* \"#utility.yul\":1288:1292   */\n      0x20\n        /* \"#utility.yul\":1283:1286   */\n      dup3\n        /* \"#utility.yul\":1279:1293   */\n      add\n        /* \"#utility.yul\":1264:1293   */\n      swap1\n      pop\n        /* \"#utility.yul\":1130:1299   */\n      swap3\n      swap2\n      pop\n      pop\n      jump\t// out\n        /* \"#utility.yul\":1305:1551   */\n    tag_224:\n        /* \"#utility.yul\":1386:1387   */\n      0x00\n        /* \"#utility.yul\":1396:1509   */\n    tag_296:\n        /* \"#utility.yul\":1410:1416   */\n      dup4\n        /* \"#utility.yul\":1407:1408   */\n      dup2\n        /* \"#utility.yul\":1404:1417   */\n      lt\n        /* \"#utility.yul\":1396:1509   */\n      iszero\n      tag_298\n      jumpi\n        /* \"#utility.yul\":1495:1496   */\n      dup1\n        /* \"#utility.yul\":1490:1493   */\n      dup3\n        /* \"#utility.yul\":1486:1497   */\n      add\n        /* \"#utility.yul\":1480:1498   */\n      mload\n        /* \"#utility.yul\":1476:1477   */\n      dup2\n        /* \"#utility.yul\":1471:1474   */\n      dup5\n        /* \"#utility.yul\":1467:1478   */\n      add\n        /* \"#utility.yul\":1460:1499   */\n      mstore\n        /* \"#utility.yul\":1432:1434   */\n      0x20\n        /* \"#utility.yul\":1429:1430   */\n      dup2\n        /* \"#utility.yul\":1425:1435   */\n      add\n        /* \"#utility.yul\":1420:1435   */\n      swap1\n      pop\n        /* \"#utility.yul\":1396:1509   */\n      jump(tag_296)\n    tag_298:\n        /* \"#utility.yul\":1543:1544   */\n      0x00\n        /* \"#utility.yul\":1534:1540   */\n      dup5\n        /* \"#utility.yul\":1529:1532   */\n      dup5\n        /* \"#utility.yul\":1525:1541   */\n      add\n        /* \"#utility.yul\":1518:1545   */\n      mstore\n        /* \"#utility.yul\":1367:1551   */\n      pop\n        /* \"#utility.yul\":1305:1551   */\n      pop\n      pop\n      pop\n      jump\t// out\n        /* \"#utility.yul\":1557:1659   */\n    tag_225:\n        /* \"#utility.yul\":1598:1604   */\n      0x00\n        /* \"#utility.yul\":1649:1651   */\n      0x1f\n        /* \"#utility.yul\":1645:1652   */\n      not\n        /* \"#utility.yul\":1640:1642   */\n      0x1f\n        /* \"#utility.yul\":1633:1638   */\n      dup4\n        /* \"#utility.yul\":1629:1643   */\n      add\n        /* \"#utility.yul\":1625:1653   */\n      and\n        /* \"#utility.yul\":1615:1653   */\n      swap1\n      pop\n        /* \"#utility.yul\":1557:1659   */\n      swap2\n      swap1\n      pop\n      jump\t// out\n        /* \"#utility.yul\":1665:2042   */\n    tag_226:\n        /* \"#utility.yul\":1753:1756   */\n      0x00\n        /* \"#utility.yul\":1781:1820   */\n      tag_301\n        /* \"#utility.yul\":1814:1819   */\n      dup3\n        /* \"#utility.yul\":1781:1820   */\n      tag_222\n      jump\t// in\n    tag_301:\n        /* \"#utility.yul\":1836:1907   */\n      tag_302\n        /* \"#utility.yul\":1900:1906   */\n      dup2\n        /* \"#utility.yul\":1895:1898   */\n      dup6\n        /* \"#utility.yul\":1836:1907   */\n      tag_223\n      jump\t// in\n    tag_302:\n        /* \"#utility.yul\":1829:1907   */\n      swap4\n      pop\n        /* \"#utility.yul\":1916:1981   */\n      tag_303\n        /* \"#utility.yul\":1974:1980   */\n      dup2\n        /* \"#utility.yul\":1969:1972   */\n      dup6\n        /* \"#utility.yul\":1962:1966   */\n      0x20\n        /* \"#utility.yul\":1955:1960   */\n      dup7\n        /* \"#utility.yul\":1951:1967   */\n      add\n        /* \"#utility.yul\":1916:1981   */\n      tag_224\n      jump\t// in\n    tag_303:\n        /* \"#utility.yul\":2006:2035   */\n      tag_304\n        /* \"#utility.yul\":2028:2034   */\n      dup2\n        /* \"#utility.yul\":2006:2035   */\n      tag_225\n      jump\t// in\n    tag_304:\n        /* \"#utility.yul\":2001:2004   */\n      dup5\n        /* \"#utility.yul\":1997:2036   */\n      add\n        /* \"#utility.yul\":1990:2036   */\n      swap2\n      pop\n        /* \"#utility.yul\":1757:2042   */\n      pop\n        /* \"#utility.yul\":1665:2042   */\n      swap3\n      swap2\n      pop\n      pop\n      jump\t// out\n        /* \"#utility.yul\":2048:2174   */\n    tag_227:\n        /* \"#utility.yul\":2085:2092   */\n      0x00\n        /* \"#utility.yul\":2125:2167   */\n      0xffffffffffffffffffffffffffffffffffffffff\n        /* \"#utility.yul\":2118:2123   */\n      dup3\n        /* \"#utility.yul\":2114:2168   */\n      and\n        /* \"#utility.yul\":2103:2168   */\n      swap1\n      pop\n        /* \"#utility.yul\":2048:2174   */\n      swap2\n      swap1\n      pop\n      jump\t// out\n        /* \"#utility.yul\":2180:2284   */\n    tag_228:\n        /* \"#utility.yul\":2225:2232   */\n      0x00\n        /* \"#utility.yul\":2254:2278   */\n      tag_307\n        /* \"#utility.yul\":2272:2277   */\n      dup3\n        /* \"#utility.yul\":2254:2278   */\n      tag_227\n      jump\t// in\n    tag_307:\n        /* \"#utility.yul\":2243:2278   */\n      swap1\n      pop\n        /* \"#utility.yul\":2180:2284   */\n      swap2\n      swap1\n      pop\n      jump\t// out\n        /* \"#utility.yul\":2290:2432   */\n    tag_229:\n        /* \"#utility.yul\":2393:2425   */\n      tag_309\n        /* \"#utility.yul\":2419:2424   */\n      dup2\n        /* \"#utility.yul\":2393:2425   */\n      tag_228\n      jump\t// in\n    tag_309:\n        /* \"#utility.yul\":2388:2391   */\n      dup3\n        /* \"#utility.yul\":2381:2426   */\n      mstore\n        /* \"#utility.yul\":2290:2432   */\n      pop\n      pop\n      jump\t// out\n        /* \"#utility.yul\":2438:2556   */\n    tag_230:\n        /* \"#utility.yul\":2525:2549   */\n      tag_311\n        /* \"#utility.yul\":2543:2548   */\n      dup2\n        /* \"#utility.yul\":2525:2549   */\n      tag_219\n      jump\t// in\n    tag_311:\n        /* \"#utility.yul\":2520:2523   */\n      dup3\n        /* \"#utility.yul\":2513:2550   */\n      mstore\n        /* \"#utility.yul\":2438:2556   */\n      pop\n      pop\n      jump\t// out\n        /* \"#utility.yul\":2562:4066   */\n    tag_20:\n        /* \"#utility.yul\":2975:2979   */\n      0x00\n        /* \"#utility.yul\":3013:3016   */\n      0x0120\n        /* \"#utility.yul\":3002:3011   */\n      dup3\n        /* \"#utility.yul\":2998:3017   */\n      add\n        /* \"#utility.yul\":2990:3017   */\n      swap1\n      pop\n        /* \"#utility.yul\":3063:3072   */\n      dup2\n        /* \"#utility.yul\":3057:3061   */\n      dup2\n        /* \"#utility.yul\":3053:3073   */\n      sub\n        /* \"#utility.yul\":3049:3050   */\n      0x00\n        /* \"#utility.yul\":3038:3047   */\n      dup4\n        /* \"#utility.yul\":3034:3051   */\n      add\n        /* \"#utility.yul\":3027:3074   */\n      mstore\n        /* \"#utility.yul\":3091:3169   */\n      tag_313\n        /* \"#utility.yul\":3164:3168   */\n      dup2\n        /* \"#utility.yul\":3155:3161   */\n      dup13\n        /* \"#utility.yul\":3091:3169   */\n      tag_226\n      jump\t// in\n    tag_313:\n        /* \"#utility.yul\":3083:3169   */\n      swap1\n      pop\n        /* \"#utility.yul\":3179:3267   */\n      tag_314\n        /* \"#utility.yul\":3263:3265   */\n      0x20\n        /* \"#utility.yul\":3252:3261   */\n      dup4\n        /* \"#utility.yul\":3248:3266   */\n      add\n        /* \"#utility.yul\":3239:3245   */\n      dup12\n        /* \"#utility.yul\":3179:3267   */\n      tag_229\n      jump\t// in\n    tag_314:\n        /* \"#utility.yul\":3314:3323   */\n      dup2\n        /* \"#utility.yul\":3308:3312   */\n      dup2\n        /* \"#utility.yul\":3304:3324   */\n      sub\n        /* \"#utility.yul\":3299:3301   */\n      0x40\n        /* \"#utility.yul\":3288:3297   */\n      dup4\n        /* \"#utility.yul\":3284:3302   */\n      add\n        /* \"#utility.yul\":3277:3325   */\n      mstore\n        /* \"#utility.yul\":3342:3420   */\n      tag_315\n        /* \"#utility.yul\":3415:3419   */\n      dup2\n        /* \"#utility.yul\":3406:3412   */\n      dup11\n        /* \"#utility.yul\":3342:3420   */\n      tag_226\n      jump\t// in\n    tag_315:\n        /* \"#utility.yul\":3334:3420   */\n      swap1\n      pop\n        /* \"#utility.yul\":3430:3502   */\n      tag_316\n        /* \"#utility.yul\":3498:3500   */\n      0x60\n        /* \"#utility.yul\":3487:3496   */\n      dup4\n        /* \"#utility.yul\":3483:3501   */\n      add\n        /* \"#utility.yul\":3474:3480   */\n      dup10\n        /* \"#utility.yul\":3430:3502   */\n      tag_230\n      jump\t// in\n    tag_316:\n        /* \"#utility.yul\":3512:3585   */\n      tag_317\n        /* \"#utility.yul\":3580:3583   */\n      0x80\n        /* \"#utility.yul\":3569:3578   */\n      dup4\n        /* \"#utility.yul\":3565:3584   */\n      add\n        /* \"#utility.yul\":3556:3562   */\n      dup9\n        /* \"#utility.yul\":3512:3585   */\n      tag_230\n      jump\t// in\n    tag_317:\n        /* \"#utility.yul\":3595:3668   */\n      tag_318\n        /* \"#utility.yul\":3663:3666   */\n      0xa0\n        /* \"#utility.yul\":3652:3661   */\n      dup4\n        /* \"#utility.yul\":3648:3667   */\n      add\n        /* \"#utility.yul\":3639:3645   */\n      dup8\n        /* \"#utility.yul\":3595:3668   */\n      tag_230\n      jump\t// in\n    tag_318:\n        /* \"#utility.yul\":3716:3725   */\n      dup2\n        /* \"#utility.yul\":3710:3714   */\n      dup2\n        /* \"#utility.yul\":3706:3726   */\n      sub\n        /* \"#utility.yul\":3700:3703   */\n      0xc0\n        /* \"#utility.yul\":3689:3698   */\n      dup4\n        /* \"#utility.yul\":3685:3704   */\n      add\n        /* \"#utility.yul\":3678:3727   */\n      mstore\n        /* \"#utility.yul\":3744:3822   */\n      tag_319\n        /* \"#utility.yul\":3817:3821   */\n      dup2\n        /* \"#utility.yul\":3808:3814   */\n      dup7\n        /* \"#utility.yul\":3744:3822   */\n      tag_226\n      jump\t// in\n    tag_319:\n        /* \"#utility.yul\":3736:3822   */\n      swap1\n      pop\n        /* \"#utility.yul\":3832:3905   */\n      tag_320\n        /* \"#utility.yul\":3900:3903   */\n      0xe0\n        /* \"#utility.yul\":3889:3898   */\n      dup4\n        /* \"#utility.yul\":3885:3904   */\n      add\n        /* \"#utility.yul\":3876:3882   */\n      dup6\n        /* \"#utility.yul\":3832:3905   */\n      tag_230\n      jump\t// in\n    tag_320:\n        /* \"#utility.yul\":3953:3962   */\n      dup2\n        /* \"#utility.yul\":3947:3951   */\n      dup2\n        /* \"#utility.yul\":3943:3963   */\n      sub\n        /* \"#utility.yul\":3937:3940   */\n      0x0100\n        /* \"#utility.yul\":3926:3935   */\n      dup4\n        /* \"#utility.yul\":3922:3941   */\n      add\n        /* \"#utility.yul\":3915:3964   */\n      mstore\n        /* \"#utility.yul\":3981:4059   */\n      tag_321\n        /* \"#utility.yul\":4054:4058   */\n      dup2\n        /* \"#utility.yul\":4045:4051   */\n      dup5\n        /* \"#utility.yul\":3981:4059   */\n      tag_226\n      jump\t// in\n    tag_321:\n        /* \"#utility.yul\":3973:4059   */\n      swap1\n      pop\n        /* \"#utility.yul\":2562:4066   */\n      swap11\n      swap10\n      pop\n      pop\n      pop\n      pop\n      pop\n      pop\n      pop\n      pop\n      pop\n      pop\n      jump\t// out\n        /* \"#utility.yul\":4072:4168   */\n    tag_231:\n        /* \"#utility.yul\":4109:4116   */\n      0x00\n        /* \"#utility.yul\":4138:4162   */\n      tag_323\n        /* \"#utility.yul\":4156:4161   */\n      dup3\n        /* \"#utility.yul\":4138:4162   */\n      tag_227\n      jump\t// in\n    tag_323:\n        /* \"#utility.yul\":4127:4162   */\n      swap1\n      pop\n        /* \"#utility.yul\":4072:4168   */\n      swap2\n      swap1\n      pop\n      jump\t// out\n        /* \"#utility.yul\":4174:4292   */\n    tag_232:\n        /* \"#utility.yul\":4261:4285   */\n      tag_325\n        /* \"#utility.yul\":4279:4284   */\n      dup2\n        /* \"#utility.yul\":4261:4285   */\n      tag_231\n      jump\t// in\n    tag_325:\n        /* \"#utility.yul\":4256:4259   */\n      dup3\n        /* \"#utility.yul\":4249:4286   */\n      mstore\n        /* \"#utility.yul\":4174:4292   */\n      pop\n      pop\n      jump\t// out\n        /* \"#utility.yul\":4298:4520   */\n    tag_28:\n        /* \"#utility.yul\":4391:4395   */\n      0x00\n        /* \"#utility.yul\":4429:4431   */\n      0x20\n        /* \"#utility.yul\":4418:4427   */\n      dup3\n        /* \"#utility.yul\":4414:4432   */\n      add\n        /* \"#utility.yul\":4406:4432   */\n      swap1\n      pop\n        /* \"#utility.yul\":4442:4513   */\n      tag_327\n        /* \"#utility.yul\":4510:4511   */\n      0x00\n        /* \"#utility.yul\":4499:4508   */\n      dup4\n        /* \"#utility.yul\":4495:4512   */\n      add\n        /* \"#utility.yul\":4486:4492   */\n      dup5\n        /* \"#utility.yul\":4442:4513   */\n      tag_232\n      jump\t// in\n    tag_327:\n        /* \"#utility.yul\":4298:4520   */\n      swap3\n      swap2\n      pop\n      pop\n      jump\t// out\n        /* \"#utility.yul\":4526:4748   */\n    tag_33:\n        /* \"#utility.yul\":4619:4623   */\n      0x00\n        /* \"#utility.yul\":4657:4659   */\n      0x20\n        /* \"#utility.yul\":4646:4655   */\n      dup3\n        /* \"#utility.yul\":4642:4660   */\n      add\n        /* \"#utility.yul\":4634:4660   */\n      swap1\n      pop\n        /* \"#utility.yul\":4670:4741   */\n      tag_329\n        /* \"#utility.yul\":4738:4739   */\n      0x00\n        /* \"#utility.yul\":4727:4736   */\n      dup4\n        /* \"#utility.yul\":4723:4740   */\n      add\n        /* \"#utility.yul\":4714:4720   */\n      dup5\n        /* \"#utility.yul\":4670:4741   */\n      tag_230\n      jump\t// in\n    tag_329:\n        /* \"#utility.yul\":4526:4748   */\n      swap3\n      swap2\n      pop\n      pop\n      jump\t// out\n        /* \"#utility.yul\":4754:4871   */\n    tag_233:\n        /* \"#utility.yul\":4863:4864   */\n      0x00\n        /* \"#utility.yul\":4860:4861   */\n      dup1\n        /* \"#utility.yul\":4853:4865   */\n      revert\n        /* \"#utility.yul\":4877:4994   */\n    tag_234:\n        /* \"#utility.yul\":4986:4987   */\n      0x00\n        /* \"#utility.yul\":4983:4984   */\n      dup1\n        /* \"#utility.yul\":4976:4988   */\n      revert\n        /* \"#utility.yul\":5000:5180   */\n    tag_235:\n        /* \"#utility.yul\":5048:5125   */\n      0x4e487b7100000000000000000000000000000000000000000000000000000000\n        /* \"#utility.yul\":5045:5046   */\n      0x00\n        /* \"#utility.yul\":5038:5126   */\n      mstore\n        /* \"#utility.yul\":5145:5149   */\n      0x41\n        /* \"#utility.yul\":5142:5143   */\n      0x04\n        /* \"#utility.yul\":5135:5150   */\n      mstore\n        /* \"#utility.yul\":5169:5173   */\n      0x24\n        /* \"#utility.yul\":5166:5167   */\n      0x00\n        /* \"#utility.yul\":5159:5174   */\n      revert\n        /* \"#utility.yul\":5186:5467   */\n    tag_236:\n        /* \"#utility.yul\":5269:5296   */\n      tag_334\n        /* \"#utility.yul\":5291:5295   */\n      dup3\n        /* \"#utility.yul\":5269:5296   */\n      tag_225\n      jump\t// in\n    tag_334:\n        /* \"#utility.yul\":5261:5267   */\n      dup2\n        /* \"#utility.yul\":5257:5297   */\n      add\n        /* \"#utility.yul\":5399:5405   */\n      dup2\n        /* \"#utility.yul\":5387:5397   */\n      dup2\n        /* \"#utility.yul\":5384:5406   */\n      lt\n        /* \"#utility.yul\":5363:5381   */\n      0xffffffffffffffff\n        /* \"#utility.yul\":5351:5361   */\n      dup3\n        /* \"#utility.yul\":5348:5382   */\n      gt\n        /* \"#utility.yul\":5345:5407   */\n      or\n        /* \"#utility.yul\":5342:5430   */\n      iszero\n      tag_335\n      jumpi\n        /* \"#utility.yul\":5410:5428   */\n      tag_336\n      tag_235\n      jump\t// in\n    tag_336:\n        /* \"#utility.yul\":5342:5430   */\n    tag_335:\n        /* \"#utility.yul\":5450:5460   */\n      dup1\n        /* \"#utility.yul\":5446:5448   */\n      0x40\n        /* \"#utility.yul\":5439:5461   */\n      mstore\n        /* \"#utility.yul\":5229:5467   */\n      pop\n        /* \"#utility.yul\":5186:5467   */\n      pop\n      pop\n      jump\t// out\n        /* \"#utility.yul\":5473:5602   */\n    tag_237:\n        /* \"#utility.yul\":5507:5513   */\n      0x00\n        /* \"#utility.yul\":5534:5554   */\n      tag_338\n      tag_216\n      jump\t// in\n    tag_338:\n        /* \"#utility.yul\":5524:5554   */\n      swap1\n      pop\n        /* \"#utility.yul\":5563:5596   */\n      tag_339\n        /* \"#utility.yul\":5591:5595   */\n      dup3\n        /* \"#utility.yul\":5583:5589   */\n      dup3\n        /* \"#utility.yul\":5563:5596   */\n      tag_236\n      jump\t// in\n    tag_339:\n        /* \"#utility.yul\":5473:5602   */\n      swap2\n      swap1\n      pop\n      jump\t// out\n        /* \"#utility.yul\":5608:5916   */\n    tag_238:\n        /* \"#utility.yul\":5670:5674   */\n      0x00\n        /* \"#utility.yul\":5760:5778   */\n      0xffffffffffffffff\n        /* \"#utility.yul\":5752:5758   */\n      dup3\n        /* \"#utility.yul\":5749:5779   */\n      gt\n        /* \"#utility.yul\":5746:5802   */\n      iszero\n      tag_341\n      jumpi\n        /* \"#utility.yul\":5782:5800   */\n      tag_342\n      tag_235\n      jump\t// in\n    tag_342:\n        /* \"#utility.yul\":5746:5802   */\n    tag_341:\n        /* \"#utility.yul\":5820:5849   */\n      tag_343\n        /* \"#utility.yul\":5842:5848   */\n      dup3\n        /* \"#utility.yul\":5820:5849   */\n      tag_225\n      jump\t// in\n    tag_343:\n        /* \"#utility.yul\":5812:5849   */\n      swap1\n      pop\n        /* \"#utility.yul\":5904:5908   */\n      0x20\n        /* \"#utility.yul\":5898:5902   */\n      dup2\n        /* \"#utility.yul\":5894:5909   */\n      add\n        /* \"#utility.yul\":5886:5909   */\n      swap1\n      pop\n        /* \"#utility.yul\":5608:5916   */\n      swap2\n      swap1\n      pop\n      jump\t// out\n        /* \"#utility.yul\":5922:6068   */\n    tag_239:\n        /* \"#utility.yul\":6019:6025   */\n      dup3\n        /* \"#utility.yul\":6014:6017   */\n      dup2\n        /* \"#utility.yul\":6009:6012   */\n      dup4\n        /* \"#utility.yul\":5996:6026   */\n      calldatacopy\n        /* \"#utility.yul\":6060:6061   */\n      0x00\n        /* \"#utility.yul\":6051:6057   */\n      dup4\n        /* \"#utility.yul\":6046:6049   */\n      dup4\n        /* \"#utility.yul\":6042:6058   */\n      add\n        /* \"#utility.yul\":6035:6062   */\n      mstore\n        /* \"#utility.yul\":5922:6068   */\n      pop\n      pop\n      pop\n      jump\t// out\n        /* \"#utility.yul\":6074:6499   */\n    tag_240:\n        /* \"#utility.yul\":6152:6157   */\n      0x00\n        /* \"#utility.yul\":6177:6243   */\n      tag_346\n        /* \"#utility.yul\":6193:6242   */\n      tag_347\n        /* \"#utility.yul\":6235:6241   */\n      dup5\n        /* \"#utility.yul\":6193:6242   */\n      tag_238\n      jump\t// in\n    tag_347:\n        /* \"#utility.yul\":6177:6243   */\n      tag_237\n      jump\t// in\n    tag_346:\n        /* \"#utility.yul\":6168:6243   */\n      swap1\n      pop\n        /* \"#utility.yul\":6266:6272   */\n      dup3\n        /* \"#utility.yul\":6259:6264   */\n      dup2\n        /* \"#utility.yul\":6252:6273   */\n      mstore\n        /* \"#utility.yul\":6304:6308   */\n      0x20\n        /* \"#utility.yul\":6297:6302   */\n      dup2\n        /* \"#utility.yul\":6293:6309   */\n      add\n        /* \"#utility.yul\":6342:6345   */\n      dup5\n        /* \"#utility.yul\":6333:6339   */\n      dup5\n        /* \"#utility.yul\":6328:6331   */\n      dup5\n        /* \"#utility.yul\":6324:6340   */\n      add\n        /* \"#utility.yul\":6321:6346   */\n      gt\n        /* \"#utility.yul\":6318:6430   */\n      iszero\n      tag_348\n      jumpi\n        /* \"#utility.yul\":6349:6428   */\n      tag_349\n      tag_234\n      jump\t// in\n    tag_349:\n        /* \"#utility.yul\":6318:6430   */\n    tag_348:\n        /* \"#utility.yul\":6439:6493   */\n      tag_350\n        /* \"#utility.yul\":6486:6492   */\n      dup5\n        /* \"#utility.yul\":6481:6484   */\n      dup3\n        /* \"#utility.yul\":6476:6479   */\n      dup6\n        /* \"#utility.yul\":6439:6493   */\n      tag_239\n      jump\t// in\n    tag_350:\n        /* \"#utility.yul\":6158:6499   */\n      pop\n        /* \"#utility.yul\":6074:6499   */\n      swap4\n      swap3\n      pop\n      pop\n      pop\n      jump\t// out\n        /* \"#utility.yul\":6519:6859   */\n    tag_241:\n        /* \"#utility.yul\":6575:6580   */\n      0x00\n        /* \"#utility.yul\":6624:6627   */\n      dup3\n        /* \"#utility.yul\":6617:6621   */\n      0x1f\n        /* \"#utility.yul\":6609:6615   */\n      dup4\n        /* \"#utility.yul\":6605:6622   */\n      add\n        /* \"#utility.yul\":6601:6628   */\n      slt\n        /* \"#utility.yul\":6591:6713   */\n      tag_352\n      jumpi\n        /* \"#utility.yul\":6632:6711   */\n      tag_353\n      tag_233\n      jump\t// in\n    tag_353:\n        /* \"#utility.yul\":6591:6713   */\n    tag_352:\n        /* \"#utility.yul\":6749:6755   */\n      dup2\n        /* \"#utility.yul\":6736:6756   */\n      calldataload\n        /* \"#utility.yul\":6774:6853   */\n      tag_354\n        /* \"#utility.yul\":6849:6852   */\n      dup5\n        /* \"#utility.yul\":6841:6847   */\n      dup3\n        /* \"#utility.yul\":6834:6838   */\n      0x20\n        /* \"#utility.yul\":6826:6832   */\n      dup7\n        /* \"#utility.yul\":6822:6839   */\n      add\n        /* \"#utility.yul\":6774:6853   */\n      tag_240\n      jump\t// in\n    tag_354:\n        /* \"#utility.yul\":6765:6853   */\n      swap2\n      pop\n        /* \"#utility.yul\":6581:6859   */\n      pop\n        /* \"#utility.yul\":6519:6859   */\n      swap3\n      swap2\n      pop\n      pop\n      jump\t// out\n        /* \"#utility.yul\":6865:7003   */\n    tag_242:\n        /* \"#utility.yul\":6946:6978   */\n      tag_356\n        /* \"#utility.yul\":6972:6977   */\n      dup2\n        /* \"#utility.yul\":6946:6978   */\n      tag_228\n      jump\t// in\n    tag_356:\n        /* \"#utility.yul\":6939:6944   */\n      dup2\n        /* \"#utility.yul\":6936:6979   */\n      eq\n        /* \"#utility.yul\":6926:6997   */\n      tag_357\n      jumpi\n        /* \"#utility.yul\":6993:6994   */\n      0x00\n        /* \"#utility.yul\":6990:6991   */\n      dup1\n        /* \"#utility.yul\":6983:6995   */\n      revert\n        /* \"#utility.yul\":6926:6997   */\n    tag_357:\n        /* \"#utility.yul\":6865:7003   */\n      pop\n      jump\t// out\n        /* \"#utility.yul\":7009:7164   */\n    tag_243:\n        /* \"#utility.yul\":7063:7068   */\n      0x00\n        /* \"#utility.yul\":7101:7107   */\n      dup2\n        /* \"#utility.yul\":7088:7108   */\n      calldataload\n        /* \"#utility.yul\":7079:7108   */\n      swap1\n      pop\n        /* \"#utility.yul\":7117:7158   */\n      tag_359\n        /* \"#utility.yul\":7152:7157   */\n      dup2\n        /* \"#utility.yul\":7117:7158   */\n      tag_242\n      jump\t// in\n    tag_359:\n        /* \"#utility.yul\":7009:7164   */\n      swap3\n      swap2\n      pop\n      pop\n      jump\t// out\n        /* \"#utility.yul\":7170:9255   */\n    tag_54:\n        /* \"#utility.yul\":7340:7346   */\n      0x00\n        /* \"#utility.yul\":7348:7354   */\n      dup1\n        /* \"#utility.yul\":7356:7362   */\n      0x00\n        /* \"#utility.yul\":7364:7370   */\n      dup1\n        /* \"#utility.yul\":7372:7378   */\n      0x00\n        /* \"#utility.yul\":7380:7386   */\n      dup1\n        /* \"#utility.yul\":7388:7394   */\n      0x00\n        /* \"#utility.yul\":7396:7402   */\n      dup1\n        /* \"#utility.yul\":7445:7448   */\n      0x0100\n        /* \"#utility.yul\":7433:7442   */\n      dup10\n        /* \"#utility.yul\":7424:7431   */\n      dup12\n        /* \"#utility.yul\":7420:7443   */\n      sub\n        /* \"#utility.yul\":7416:7449   */\n      slt\n        /* \"#utility.yul\":7413:7533   */\n      iszero\n      tag_361\n      jumpi\n        /* \"#utility.yul\":7452:7531   */\n      tag_362\n      tag_217\n      jump\t// in\n    tag_362:\n        /* \"#utility.yul\":7413:7533   */\n    tag_361:\n        /* \"#utility.yul\":7600:7601   */\n      0x00\n        /* \"#utility.yul\":7589:7598   */\n      dup10\n        /* \"#utility.yul\":7585:7602   */\n      add\n        /* \"#utility.yul\":7572:7603   */\n      calldataload\n        /* \"#utility.yul\":7630:7648   */\n      0xffffffffffffffff\n        /* \"#utility.yul\":7622:7628   */\n      dup2\n        /* \"#utility.yul\":7619:7649   */\n      gt\n        /* \"#utility.yul\":7616:7733   */\n      iszero\n      tag_363\n      jumpi\n        /* \"#utility.yul\":7652:7731   */\n      tag_364\n      tag_218\n      jump\t// in\n    tag_364:\n        /* \"#utility.yul\":7616:7733   */\n    tag_363:\n        /* \"#utility.yul\":7757:7820   */\n      tag_365\n        /* \"#utility.yul\":7812:7819   */\n      dup12\n        /* \"#utility.yul\":7803:7809   */\n      dup3\n        /* \"#utility.yul\":7792:7801   */\n      dup13\n        /* \"#utility.yul\":7788:7810   */\n      add\n        /* \"#utility.yul\":7757:7820   */\n      tag_241\n      jump\t// in\n    tag_365:\n        /* \"#utility.yul\":7747:7820   */\n      swap9\n      pop\n        /* \"#utility.yul\":7543:7830   */\n      pop\n        /* \"#utility.yul\":7869:7871   */\n      0x20\n        /* \"#utility.yul\":7895:7956   */\n      tag_366\n        /* \"#utility.yul\":7948:7955   */\n      dup12\n        /* \"#utility.yul\":7939:7945   */\n      dup3\n        /* \"#utility.yul\":7928:7937   */\n      dup13\n        /* \"#utility.yul\":7924:7946   */\n      add\n        /* \"#utility.yul\":7895:7956   */\n      tag_243\n      jump\t// in\n    tag_366:\n        /* \"#utility.yul\":7885:7956   */\n      swap8\n      pop\n        /* \"#utility.yul\":7840:7966   */\n      pop\n        /* \"#utility.yul\":8033:8035   */\n      0x40\n        /* \"#utility.yul\":8022:8031   */\n      dup10\n        /* \"#utility.yul\":8018:8036   */\n      add\n        /* \"#utility.yul\":8005:8037   */\n      calldataload\n        /* \"#utility.yul\":8064:8082   */\n      0xffffffffffffffff\n        /* \"#utility.yul\":8056:8062   */\n      dup2\n        /* \"#utility.yul\":8053:8083   */\n      gt\n        /* \"#utility.yul\":8050:8167   */\n      iszero\n      tag_367\n      jumpi\n        /* \"#utility.yul\":8086:8165   */\n      tag_368\n      tag_218\n      jump\t// in\n    tag_368:\n        /* \"#utility.yul\":8050:8167   */\n    tag_367:\n        /* \"#utility.yul\":8191:8254   */\n      tag_369\n        /* \"#utility.yul\":8246:8253   */\n      dup12\n        /* \"#utility.yul\":8237:8243   */\n      dup3\n        /* \"#utility.yul\":8226:8235   */\n      dup13\n        /* \"#utility.yul\":8222:8244   */\n      add\n        /* \"#utility.yul\":8191:8254   */\n      tag_241\n      jump\t// in\n    tag_369:\n        /* \"#utility.yul\":8181:8254   */\n      swap7\n      pop\n        /* \"#utility.yul\":7976:8264   */\n      pop\n        /* \"#utility.yul\":8303:8305   */\n      0x60\n        /* \"#utility.yul\":8329:8382   */\n      tag_370\n        /* \"#utility.yul\":8374:8381   */\n      dup12\n        /* \"#utility.yul\":8365:8371   */\n      dup3\n        /* \"#utility.yul\":8354:8363   */\n      dup13\n        /* \"#utility.yul\":8350:8372   */\n      add\n        /* \"#utility.yul\":8329:8382   */\n      tag_221\n      jump\t// in\n    tag_370:\n        /* \"#utility.yul\":8319:8382   */\n      swap6\n      pop\n        /* \"#utility.yul\":8274:8392   */\n      pop\n        /* \"#utility.yul\":8431:8434   */\n      0x80\n        /* \"#utility.yul\":8458:8511   */\n      tag_371\n        /* \"#utility.yul\":8503:8510   */\n      dup12\n        /* \"#utility.yul\":8494:8500   */\n      dup3\n        /* \"#utility.yul\":8483:8492   */\n      dup13\n        /* \"#utility.yul\":8479:8501   */\n      add\n        /* \"#utility.yul\":8458:8511   */\n      tag_221\n      jump\t// in\n    tag_371:\n        /* \"#utility.yul\":8448:8511   */\n      swap5\n      pop\n        /* \"#utility.yul\":8402:8521   */\n      pop\n        /* \"#utility.yul\":8588:8591   */\n      0xa0\n        /* \"#utility.yul\":8577:8586   */\n      dup10\n        /* \"#utility.yul\":8573:8592   */\n      add\n        /* \"#utility.yul\":8560:8593   */\n      calldataload\n        /* \"#utility.yul\":8620:8638   */\n      0xffffffffffffffff\n        /* \"#utility.yul\":8612:8618   */\n      dup2\n        /* \"#utility.yul\":8609:8639   */\n      gt\n        /* \"#utility.yul\":8606:8723   */\n      iszero\n      tag_372\n      jumpi\n        /* \"#utility.yul\":8642:8721   */\n      tag_373\n      tag_218\n      jump\t// in\n    tag_373:\n        /* \"#utility.yul\":8606:8723   */\n    tag_372:\n        /* \"#utility.yul\":8747:8810   */\n      tag_374\n        /* \"#utility.yul\":8802:8809   */\n      dup12\n        /* \"#utility.yul\":8793:8799   */\n      dup3\n        /* \"#utility.yul\":8782:8791   */\n      dup13\n        /* \"#utility.yul\":8778:8800   */\n      add\n        /* \"#utility.yul\":8747:8810   */\n      tag_241\n      jump\t// in\n    tag_374:\n        /* \"#utility.yul\":8737:8810   */\n      swap4\n      pop\n        /* \"#utility.yul\":8531:8820   */\n      pop\n        /* \"#utility.yul\":8859:8862   */\n      0xc0\n        /* \"#utility.yul\":8886:8939   */\n      tag_375\n        /* \"#utility.yul\":8931:8938   */\n      dup12\n        /* \"#utility.yul\":8922:8928   */\n      dup3\n        /* \"#utility.yul\":8911:8920   */\n      dup13\n        /* \"#utility.yul\":8907:8929   */\n      add\n        /* \"#utility.yul\":8886:8939   */\n      tag_221\n      jump\t// in\n    tag_375:\n        /* \"#utility.yul\":8876:8939   */\n      swap3\n      pop\n        /* \"#utility.yul\":8830:8949   */\n      pop\n        /* \"#utility.yul\":9016:9019   */\n      0xe0\n        /* \"#utility.yul\":9005:9014   */\n      dup10\n        /* \"#utility.yul\":9001:9020   */\n      add\n        /* \"#utility.yul\":8988:9021   */\n      calldataload\n        /* \"#utility.yul\":9048:9066   */\n      0xffffffffffffffff\n        /* \"#utility.yul\":9040:9046   */\n      dup2\n        /* \"#utility.yul\":9037:9067   */\n      gt\n        /* \"#utility.yul\":9034:9151   */\n      iszero\n      tag_376\n      jumpi\n        /* \"#utility.yul\":9070:9149   */\n      tag_377\n      tag_218\n      jump\t// in\n    tag_377:\n        /* \"#utility.yul\":9034:9151   */\n    tag_376:\n        /* \"#utility.yul\":9175:9238   */\n      tag_378\n        /* \"#utility.yul\":9230:9237   */\n      dup12\n        /* \"#utility.yul\":9221:9227   */\n      dup3\n        /* \"#utility.yul\":9210:9219   */\n      dup13\n        /* \"#utility.yul\":9206:9228   */\n      add\n        /* \"#utility.yul\":9175:9238   */\n      tag_241\n      jump\t// in\n    tag_378:\n        /* \"#utility.yul\":9165:9238   */\n      swap2\n      pop\n        /* \"#utility.yul\":8959:9248   */\n      pop\n        /* \"#utility.yul\":7170:9255   */\n      swap3\n      swap6\n      swap9\n      pop\n      swap3\n      swap6\n      swap9\n      swap1\n      swap4\n      swap7\n      pop\n      jump\t// out\n        /* \"#utility.yul\":9261:9375   */\n    tag_244:\n        /* \"#utility.yul\":9328:9334   */\n      0x00\n        /* \"#utility.yul\":9362:9367   */\n      dup2\n        /* \"#utility.yul\":9356:9368   */\n      mload\n        /* \"#utility.yul\":9346:9368   */\n      swap1\n      pop\n        /* \"#utility.yul\":9261:9375   */\n      swap2\n      swap1\n      pop\n      jump\t// out\n        /* \"#utility.yul\":9381:9565   */\n    tag_245:\n        /* \"#utility.yul\":9480:9491   */\n      0x00\n        /* \"#utility.yul\":9514:9520   */\n      dup3\n        /* \"#utility.yul\":9509:9512   */\n      dup3\n        /* \"#utility.yul\":9502:9521   */\n      mstore\n        /* \"#utility.yul\":9554:9558   */\n      0x20\n        /* \"#utility.yul\":9549:9552   */\n      dup3\n        /* \"#utility.yul\":9545:9559   */\n      add\n        /* \"#utility.yul\":9530:9559   */\n      swap1\n      pop\n        /* \"#utility.yul\":9381:9565   */\n      swap3\n      swap2\n      pop\n      pop\n      jump\t// out\n        /* \"#utility.yul\":9571:9703   */\n    tag_246:\n        /* \"#utility.yul\":9638:9642   */\n      0x00\n        /* \"#utility.yul\":9661:9664   */\n      dup2\n        /* \"#utility.yul\":9653:9664   */\n      swap1\n      pop\n        /* \"#utility.yul\":9691:9695   */\n      0x20\n        /* \"#utility.yul\":9686:9689   */\n      dup3\n        /* \"#utility.yul\":9682:9696   */\n      add\n        /* \"#utility.yul\":9674:9696   */\n      swap1\n      pop\n        /* \"#utility.yul\":9571:9703   */\n      swap2\n      swap1\n      pop\n      jump\t// out\n        /* \"#utility.yul\":9709:9817   */\n    tag_247:\n        /* \"#utility.yul\":9786:9810   */\n      tag_383\n        /* \"#utility.yul\":9804:9809   */\n      dup2\n        /* \"#utility.yul\":9786:9810   */\n      tag_231\n      jump\t// in\n    tag_383:\n        /* \"#utility.yul\":9781:9784   */\n      dup3\n        /* \"#utility.yul\":9774:9811   */\n      mstore\n        /* \"#utility.yul\":9709:9817   */\n      pop\n      pop\n      jump\t// out\n        /* \"#utility.yul\":9823:10002   */\n    tag_248:\n        /* \"#utility.yul\":9892:9902   */\n      0x00\n        /* \"#utility.yul\":9913:9959   */\n      tag_385\n        /* \"#utility.yul\":9955:9958   */\n      dup4\n        /* \"#utility.yul\":9947:9953   */\n      dup4\n        /* \"#utility.yul\":9913:9959   */\n      tag_247\n      jump\t// in\n    tag_385:\n        /* \"#utility.yul\":9991:9995   */\n      0x20\n        /* \"#utility.yul\":9986:9989   */\n      dup4\n        /* \"#utility.yul\":9982:9996   */\n      add\n        /* \"#utility.yul\":9968:9996   */\n      swap1\n      pop\n        /* \"#utility.yul\":9823:10002   */\n      swap3\n      swap2\n      pop\n      pop\n      jump\t// out\n        /* \"#utility.yul\":10008:10121   */\n    tag_249:\n        /* \"#utility.yul\":10078:10082   */\n      0x00\n        /* \"#utility.yul\":10110:10114   */\n      0x20\n        /* \"#utility.yul\":10105:10108   */\n      dup3\n        /* \"#utility.yul\":10101:10115   */\n      add\n        /* \"#utility.yul\":10093:10115   */\n      swap1\n      pop\n        /* \"#utility.yul\":10008:10121   */\n      swap2\n      swap1\n      pop\n      jump\t// out\n        /* \"#utility.yul\":10157:10889   */\n    tag_250:\n        /* \"#utility.yul\":10276:10279   */\n      0x00\n        /* \"#utility.yul\":10305:10359   */\n      tag_388\n        /* \"#utility.yul\":10353:10358   */\n      dup3\n        /* \"#utility.yul\":10305:10359   */\n      tag_244\n      jump\t// in\n    tag_388:\n        /* \"#utility.yul\":10375:10461   */\n      tag_389\n        /* \"#utility.yul\":10454:10460   */\n      dup2\n        /* \"#utility.yul\":10449:10452   */\n      dup6\n        /* \"#utility.yul\":10375:10461   */\n      tag_245\n      jump\t// in\n    tag_389:\n        /* \"#utility.yul\":10368:10461   */\n      swap4\n      pop\n        /* \"#utility.yul\":10485:10541   */\n      tag_390\n        /* \"#utility.yul\":10535:10540   */\n      dup4\n        /* \"#utility.yul\":10485:10541   */\n      tag_246\n      jump\t// in\n    tag_390:\n        /* \"#utility.yul\":10564:10571   */\n      dup1\n        /* \"#utility.yul\":10595:10596   */\n      0x00\n        /* \"#utility.yul\":10580:10864   */\n    tag_391:\n        /* \"#utility.yul\":10605:10611   */\n      dup4\n        /* \"#utility.yul\":10602:10603   */\n      dup2\n        /* \"#utility.yul\":10599:10612   */\n      lt\n        /* \"#utility.yul\":10580:10864   */\n      iszero\n      tag_393\n      jumpi\n        /* \"#utility.yul\":10681:10687   */\n      dup2\n        /* \"#utility.yul\":10675:10688   */\n      mload\n        /* \"#utility.yul\":10708:10771   */\n      tag_394\n        /* \"#utility.yul\":10767:10770   */\n      dup9\n        /* \"#utility.yul\":10752:10765   */\n      dup3\n        /* \"#utility.yul\":10708:10771   */\n      tag_248\n      jump\t// in\n    tag_394:\n        /* \"#utility.yul\":10701:10771   */\n      swap8\n      pop\n        /* \"#utility.yul\":10794:10854   */\n      tag_395\n        /* \"#utility.yul\":10847:10853   */\n      dup4\n        /* \"#utility.yul\":10794:10854   */\n      tag_249\n      jump\t// in\n    tag_395:\n        /* \"#utility.yul\":10784:10854   */\n      swap3\n      pop\n        /* \"#utility.yul\":10640:10864   */\n      pop\n        /* \"#utility.yul\":10627:10628   */\n      0x01\n        /* \"#utility.yul\":10624:10625   */\n      dup2\n        /* \"#utility.yul\":10620:10629   */\n      add\n        /* \"#utility.yul\":10615:10629   */\n      swap1\n      pop\n        /* \"#utility.yul\":10580:10864   */\n      jump(tag_391)\n    tag_393:\n        /* \"#utility.yul\":10584:10598   */\n      pop\n        /* \"#utility.yul\":10880:10883   */\n      dup6\n        /* \"#utility.yul\":10873:10883   */\n      swap4\n      pop\n        /* \"#utility.yul\":10281:10889   */\n      pop\n      pop\n      pop\n        /* \"#utility.yul\":10157:10889   */\n      swap3\n      swap2\n      pop\n      pop\n      jump\t// out\n        /* \"#utility.yul\":10895:11268   */\n    tag_61:\n        /* \"#utility.yul\":11038:11042   */\n      0x00\n        /* \"#utility.yul\":11076:11078   */\n      0x20\n        /* \"#utility.yul\":11065:11074   */\n      dup3\n        /* \"#utility.yul\":11061:11079   */\n      add\n        /* \"#utility.yul\":11053:11079   */\n      swap1\n      pop\n        /* \"#utility.yul\":11125:11134   */\n      dup2\n        /* \"#utility.yul\":11119:11123   */\n      dup2\n        /* \"#utility.yul\":11115:11135   */\n      sub\n        /* \"#utility.yul\":11111:11112   */\n      0x00\n        /* \"#utility.yul\":11100:11109   */\n      dup4\n        /* \"#utility.yul\":11096:11113   */\n      add\n        /* \"#utility.yul\":11089:11136   */\n      mstore\n        /* \"#utility.yul\":11153:11261   */\n      tag_397\n        /* \"#utility.yul\":11256:11260   */\n      dup2\n        /* \"#utility.yul\":11247:11253   */\n      dup5\n        /* \"#utility.yul\":11153:11261   */\n      tag_250\n      jump\t// in\n    tag_397:\n        /* \"#utility.yul\":11145:11261   */\n      swap1\n      pop\n        /* \"#utility.yul\":10895:11268   */\n      swap3\n      swap2\n      pop\n      pop\n      jump\t// out\n        /* \"#utility.yul\":11274:11454   */\n    tag_251:\n        /* \"#utility.yul\":11322:11399   */\n      0x4e487b7100000000000000000000000000000000000000000000000000000000\n        /* \"#utility.yul\":11319:11320   */\n      0x00\n        /* \"#utility.yul\":11312:11400   */\n      mstore\n        /* \"#utility.yul\":11419:11423   */\n      0x22\n        /* \"#utility.yul\":11416:11417   */\n      0x04\n        /* \"#utility.yul\":11409:11424   */\n      mstore\n        /* \"#utility.yul\":11443:11447   */\n      0x24\n        /* \"#utility.yul\":11440:11441   */\n      0x00\n        /* \"#utility.yul\":11433:11448   */\n      revert\n        /* \"#utility.yul\":11460:11780   */\n    tag_67:\n        /* \"#utility.yul\":11504:11510   */\n      0x00\n        /* \"#utility.yul\":11541:11542   */\n      0x02\n        /* \"#utility.yul\":11535:11539   */\n      dup3\n        /* \"#utility.yul\":11531:11543   */\n      div\n        /* \"#utility.yul\":11521:11543   */\n      swap1\n      pop\n        /* \"#utility.yul\":11588:11589   */\n      0x01\n        /* \"#utility.yul\":11582:11586   */\n      dup3\n        /* \"#utility.yul\":11578:11590   */\n      and\n        /* \"#utility.yul\":11609:11627   */\n      dup1\n        /* \"#utility.yul\":11599:11680   */\n      tag_400\n      jumpi\n        /* \"#utility.yul\":11665:11669   */\n      0x7f\n        /* \"#utility.yul\":11657:11663   */\n      dup3\n        /* \"#utility.yul\":11653:11670   */\n      and\n        /* \"#utility.yul\":11643:11670   */\n      swap2\n      pop\n        /* \"#utility.yul\":11599:11680   */\n    tag_400:\n        /* \"#utility.yul\":11727:11729   */\n      0x20\n        /* \"#utility.yul\":11719:11725   */\n      dup3\n        /* \"#utility.yul\":11716:11730   */\n      lt\n        /* \"#utility.yul\":11696:11714   */\n      dup2\n        /* \"#utility.yul\":11693:11731   */\n      sub\n        /* \"#utility.yul\":11690:11774   */\n      tag_401\n      jumpi\n        /* \"#utility.yul\":11746:11764   */\n      tag_402\n      tag_251\n      jump\t// in\n    tag_402:\n        /* \"#utility.yul\":11690:11774   */\n    tag_401:\n        /* \"#utility.yul\":11511:11780   */\n      pop\n        /* \"#utility.yul\":11460:11780   */\n      swap2\n      swap1\n      pop\n      jump\t// out\n        /* \"#utility.yul\":11786:11966   */\n    tag_93:\n        /* \"#utility.yul\":11834:11911   */\n      0x4e487b7100000000000000000000000000000000000000000000000000000000\n        /* \"#utility.yul\":11831:11832   */\n      0x00\n        /* \"#utility.yul\":11824:11912   */\n      mstore\n        /* \"#utility.yul\":11931:11935   */\n      0x32\n        /* \"#utility.yul\":11928:11929   */\n      0x04\n        /* \"#utility.yul\":11921:11936   */\n      mstore\n        /* \"#utility.yul\":11955:11959   */\n      0x24\n        /* \"#utility.yul\":11952:11953   */\n      0x00\n        /* \"#utility.yul\":11945:11960   */\n      revert\n        /* \"#utility.yul\":11972:12151   */\n    tag_252:\n        /* \"#utility.yul\":12112:12143   */\n      0x596f752061726520616c72656164792061205072656d69756d206d616e000000\n        /* \"#utility.yul\":12108:12109   */\n      0x00\n        /* \"#utility.yul\":12100:12106   */\n      dup3\n        /* \"#utility.yul\":12096:12110   */\n      add\n        /* \"#utility.yul\":12089:12144   */\n      mstore\n        /* \"#utility.yul\":11972:12151   */\n      pop\n      jump\t// out\n        /* \"#utility.yul\":12157:12523   */\n    tag_253:\n        /* \"#utility.yul\":12299:12302   */\n      0x00\n        /* \"#utility.yul\":12320:12387   */\n      tag_406\n        /* \"#utility.yul\":12384:12386   */\n      0x1d\n        /* \"#utility.yul\":12379:12382   */\n      dup4\n        /* \"#utility.yul\":12320:12387   */\n      tag_223\n      jump\t// in\n    tag_406:\n        /* \"#utility.yul\":12313:12387   */\n      swap2\n      pop\n        /* \"#utility.yul\":12396:12489   */\n      tag_407\n        /* \"#utility.yul\":12485:12488   */\n      dup3\n        /* \"#utility.yul\":12396:12489   */\n      tag_252\n      jump\t// in\n    tag_407:\n        /* \"#utility.yul\":12514:12516   */\n      0x20\n        /* \"#utility.yul\":12509:12512   */\n      dup3\n        /* \"#utility.yul\":12505:12517   */\n      add\n        /* \"#utility.yul\":12498:12517   */\n      swap1\n      pop\n        /* \"#utility.yul\":12157:12523   */\n      swap2\n      swap1\n      pop\n      jump\t// out\n        /* \"#utility.yul\":12529:12948   */\n    tag_98:\n        /* \"#utility.yul\":12695:12699   */\n      0x00\n        /* \"#utility.yul\":12733:12735   */\n      0x20\n        /* \"#utility.yul\":12722:12731   */\n      dup3\n        /* \"#utility.yul\":12718:12736   */\n      add\n        /* \"#utility.yul\":12710:12736   */\n      swap1\n      pop\n        /* \"#utility.yul\":12782:12791   */\n      dup2\n        /* \"#utility.yul\":12776:12780   */\n      dup2\n        /* \"#utility.yul\":12772:12792   */\n      sub\n        /* \"#utility.yul\":12768:12769   */\n      0x00\n        /* \"#utility.yul\":12757:12766   */\n      dup4\n        /* \"#utility.yul\":12753:12770   */\n      add\n        /* \"#utility.yul\":12746:12793   */\n      mstore\n        /* \"#utility.yul\":12810:12941   */\n      tag_409\n        /* \"#utility.yul\":12936:12940   */\n      dup2\n        /* \"#utility.yul\":12810:12941   */\n      tag_253\n      jump\t// in\n    tag_409:\n        /* \"#utility.yul\":12802:12941   */\n      swap1\n      pop\n        /* \"#utility.yul\":12529:12948   */\n      swap2\n      swap1\n      pop\n      jump\t// out\n        /* \"#utility.yul\":12954:13127   */\n    tag_254:\n        /* \"#utility.yul\":13094:13119   */\n      0x506c656173652070617920657861637420616d6f756e74000000000000000000\n        /* \"#utility.yul\":13090:13091   */\n      0x00\n        /* \"#utility.yul\":13082:13088   */\n      dup3\n        /* \"#utility.yul\":13078:13092   */\n      add\n        /* \"#utility.yul\":13071:13120   */\n      mstore\n        /* \"#utility.yul\":12954:13127   */\n      pop\n      jump\t// out\n        /* \"#utility.yul\":13133:13499   */\n    tag_255:\n        /* \"#utility.yul\":13275:13278   */\n      0x00\n        /* \"#utility.yul\":13296:13363   */\n      tag_412\n        /* \"#utility.yul\":13360:13362   */\n      0x17\n        /* \"#utility.yul\":13355:13358   */\n      dup4\n        /* \"#utility.yul\":13296:13363   */\n      tag_223\n      jump\t// in\n    tag_412:\n        /* \"#utility.yul\":13289:13363   */\n      swap2\n      pop\n        /* \"#utility.yul\":13372:13465   */\n      tag_413\n        /* \"#utility.yul\":13461:13464   */\n      dup3\n        /* \"#utility.yul\":13372:13465   */\n      tag_254\n      jump\t// in\n    tag_413:\n        /* \"#utility.yul\":13490:13492   */\n      0x20\n        /* \"#utility.yul\":13485:13488   */\n      dup3\n        /* \"#utility.yul\":13481:13493   */\n      add\n        /* \"#utility.yul\":13474:13493   */\n      swap1\n      pop\n        /* \"#utility.yul\":13133:13499   */\n      swap2\n      swap1\n      pop\n      jump\t// out\n        /* \"#utility.yul\":13505:13924   */\n    tag_101:\n        /* \"#utility.yul\":13671:13675   */\n      0x00\n        /* \"#utility.yul\":13709:13711   */\n      0x20\n        /* \"#utility.yul\":13698:13707   */\n      dup3\n        /* \"#utility.yul\":13694:13712   */\n      add\n        /* \"#utility.yul\":13686:13712   */\n      swap1\n      pop\n        /* \"#utility.yul\":13758:13767   */\n      dup2\n        /* \"#utility.yul\":13752:13756   */\n      dup2\n        /* \"#utility.yul\":13748:13768   */\n      sub\n        /* \"#utility.yul\":13744:13745   */\n      0x00\n        /* \"#utility.yul\":13733:13742   */\n      dup4\n        /* \"#utility.yul\":13729:13746   */\n      add\n        /* \"#utility.yul\":13722:13769   */\n      mstore\n        /* \"#utility.yul\":13786:13917   */\n      tag_415\n        /* \"#utility.yul\":13912:13916   */\n      dup2\n        /* \"#utility.yul\":13786:13917   */\n      tag_255\n      jump\t// in\n    tag_415:\n        /* \"#utility.yul\":13778:13917   */\n      swap1\n      pop\n        /* \"#utility.yul\":13505:13924   */\n      swap2\n      swap1\n      pop\n      jump\t// out\n        /* \"#utility.yul\":13930:14161   */\n    tag_256:\n        /* \"#utility.yul\":14070:14104   */\n      0x416c6c20546f6b656e732061726520736f6c64212054727920616761696e2069\n        /* \"#utility.yul\":14066:14067   */\n      0x00\n        /* \"#utility.yul\":14058:14064   */\n      dup3\n        /* \"#utility.yul\":14054:14068   */\n      add\n        /* \"#utility.yul\":14047:14105   */\n      mstore\n        /* \"#utility.yul\":14139:14153   */\n      0x6e20612066657720646179730000000000000000000000000000000000000000\n        /* \"#utility.yul\":14134:14136   */\n      0x20\n        /* \"#utility.yul\":14126:14132   */\n      dup3\n        /* \"#utility.yul\":14122:14137   */\n      add\n        /* \"#utility.yul\":14115:14154   */\n      mstore\n        /* \"#utility.yul\":13930:14161   */\n      pop\n      jump\t// out\n        /* \"#utility.yul\":14167:14533   */\n    tag_257:\n        /* \"#utility.yul\":14309:14312   */\n      0x00\n        /* \"#utility.yul\":14330:14397   */\n      tag_418\n        /* \"#utility.yul\":14394:14396   */\n      0x2c\n        /* \"#utility.yul\":14389:14392   */\n      dup4\n        /* \"#utility.yul\":14330:14397   */\n      tag_223\n      jump\t// in\n    tag_418:\n        /* \"#utility.yul\":14323:14397   */\n      swap2\n      pop\n        /* \"#utility.yul\":14406:14499   */\n      tag_419\n        /* \"#utility.yul\":14495:14498   */\n      dup3\n        /* \"#utility.yul\":14406:14499   */\n      tag_256\n      jump\t// in\n    tag_419:\n        /* \"#utility.yul\":14524:14526   */\n      0x40\n        /* \"#utility.yul\":14519:14522   */\n      dup3\n        /* \"#utility.yul\":14515:14527   */\n      add\n        /* \"#utility.yul\":14508:14527   */\n      swap1\n      pop\n        /* \"#utility.yul\":14167:14533   */\n      swap2\n      swap1\n      pop\n      jump\t// out\n        /* \"#utility.yul\":14539:14958   */\n    tag_104:\n        /* \"#utility.yul\":14705:14709   */\n      0x00\n        /* \"#utility.yul\":14743:14745   */\n      0x20\n        /* \"#utility.yul\":14732:14741   */\n      dup3\n        /* \"#utility.yul\":14728:14746   */\n      add\n        /* \"#utility.yul\":14720:14746   */\n      swap1\n      pop\n        /* \"#utility.yul\":14792:14801   */\n      dup2\n        /* \"#utility.yul\":14786:14790   */\n      dup2\n        /* \"#utility.yul\":14782:14802   */\n      sub\n        /* \"#utility.yul\":14778:14779   */\n      0x00\n        /* \"#utility.yul\":14767:14776   */\n      dup4\n        /* \"#utility.yul\":14763:14780   */\n      add\n        /* \"#utility.yul\":14756:14803   */\n      mstore\n        /* \"#utility.yul\":14820:14951   */\n      tag_421\n        /* \"#utility.yul\":14946:14950   */\n      dup2\n        /* \"#utility.yul\":14820:14951   */\n      tag_257\n      jump\t// in\n    tag_421:\n        /* \"#utility.yul\":14812:14951   */\n      swap1\n      pop\n        /* \"#utility.yul\":14539:14958   */\n      swap2\n      swap1\n      pop\n      jump\t// out\n        /* \"#utility.yul\":14964:15144   */\n    tag_258:\n        /* \"#utility.yul\":15012:15089   */\n      0x4e487b7100000000000000000000000000000000000000000000000000000000\n        /* \"#utility.yul\":15009:15010   */\n      0x00\n        /* \"#utility.yul\":15002:15090   */\n      mstore\n        /* \"#utility.yul\":15109:15113   */\n      0x11\n        /* \"#utility.yul\":15106:15107   */\n      0x04\n        /* \"#utility.yul\":15099:15114   */\n      mstore\n        /* \"#utility.yul\":15133:15137   */\n      0x24\n        /* \"#utility.yul\":15130:15131   */\n      0x00\n        /* \"#utility.yul\":15123:15138   */\n      revert\n        /* \"#utility.yul\":15150:15321   */\n    tag_107:\n        /* \"#utility.yul\":15189:15192   */\n      0x00\n        /* \"#utility.yul\":15212:15236   */\n      tag_424\n        /* \"#utility.yul\":15230:15235   */\n      dup3\n        /* \"#utility.yul\":15212:15236   */\n      tag_219\n      jump\t// in\n    tag_424:\n        /* \"#utility.yul\":15203:15236   */\n      swap2\n      pop\n        /* \"#utility.yul\":15258:15262   */\n      0x00\n        /* \"#utility.yul\":15251:15256   */\n      dup3\n        /* \"#utility.yul\":15248:15263   */\n      sub\n        /* \"#utility.yul\":15245:15286   */\n      tag_425\n      jumpi\n        /* \"#utility.yul\":15266:15284   */\n      tag_426\n      tag_258\n      jump\t// in\n    tag_426:\n        /* \"#utility.yul\":15245:15286   */\n    tag_425:\n        /* \"#utility.yul\":15313:15314   */\n      0x01\n        /* \"#utility.yul\":15306:15311   */\n      dup3\n        /* \"#utility.yul\":15302:15315   */\n      sub\n        /* \"#utility.yul\":15295:15315   */\n      swap1\n      pop\n        /* \"#utility.yul\":15150:15321   */\n      swap2\n      swap1\n      pop\n      jump\t// out\n        /* \"#utility.yul\":15327:15493   */\n    tag_259:\n        /* \"#utility.yul\":15467:15485   */\n      0x416c6c20746963656b747320736f6c6400000000000000000000000000000000\n        /* \"#utility.yul\":15463:15464   */\n      0x00\n        /* \"#utility.yul\":15455:15461   */\n      dup3\n        /* \"#utility.yul\":15451:15465   */\n      add\n        /* \"#utility.yul\":15444:15486   */\n      mstore\n        /* \"#utility.yul\":15327:15493   */\n      pop\n      jump\t// out\n        /* \"#utility.yul\":15499:15865   */\n    tag_260:\n        /* \"#utility.yul\":15641:15644   */\n      0x00\n        /* \"#utility.yul\":15662:15729   */\n      tag_429\n        /* \"#utility.yul\":15726:15728   */\n      0x10\n        /* \"#utility.yul\":15721:15724   */\n      dup4\n        /* \"#utility.yul\":15662:15729   */\n      tag_223\n      jump\t// in\n    tag_429:\n        /* \"#utility.yul\":15655:15729   */\n      swap2\n      pop\n        /* \"#utility.yul\":15738:15831   */\n      tag_430\n        /* \"#utility.yul\":15827:15830   */\n      dup3\n        /* \"#utility.yul\":15738:15831   */\n      tag_259\n      jump\t// in\n    tag_430:\n        /* \"#utility.yul\":15856:15858   */\n      0x20\n        /* \"#utility.yul\":15851:15854   */\n      dup3\n        /* \"#utility.yul\":15847:15859   */\n      add\n        /* \"#utility.yul\":15840:15859   */\n      swap1\n      pop\n        /* \"#utility.yul\":15499:15865   */\n      swap2\n      swap1\n      pop\n      jump\t// out\n        /* \"#utility.yul\":15871:16290   */\n    tag_113:\n        /* \"#utility.yul\":16037:16041   */\n      0x00\n        /* \"#utility.yul\":16075:16077   */\n      0x20\n        /* \"#utility.yul\":16064:16073   */\n      dup3\n        /* \"#utility.yul\":16060:16078   */\n      add\n        /* \"#utility.yul\":16052:16078   */\n      swap1\n      pop\n        /* \"#utility.yul\":16124:16133   */\n      dup2\n        /* \"#utility.yul\":16118:16122   */\n      dup2\n        /* \"#utility.yul\":16114:16134   */\n      sub\n        /* \"#utility.yul\":16110:16111   */\n      0x00\n        /* \"#utility.yul\":16099:16108   */\n      dup4\n        /* \"#utility.yul\":16095:16112   */\n      add\n        /* \"#utility.yul\":16088:16135   */\n      mstore\n        /* \"#utility.yul\":16152:16283   */\n      tag_432\n        /* \"#utility.yul\":16278:16282   */\n      dup2\n        /* \"#utility.yul\":16152:16283   */\n      tag_260\n      jump\t// in\n    tag_432:\n        /* \"#utility.yul\":16144:16283   */\n      swap1\n      pop\n        /* \"#utility.yul\":15871:16290   */\n      swap2\n      swap1\n      pop\n      jump\t// out\n        /* \"#utility.yul\":16296:16529   */\n    tag_122:\n        /* \"#utility.yul\":16335:16338   */\n      0x00\n        /* \"#utility.yul\":16358:16382   */\n      tag_434\n        /* \"#utility.yul\":16376:16381   */\n      dup3\n        /* \"#utility.yul\":16358:16382   */\n      tag_219\n      jump\t// in\n    tag_434:\n        /* \"#utility.yul\":16349:16382   */\n      swap2\n      pop\n        /* \"#utility.yul\":16404:16470   */\n      0xffffffffffffffffffffffffffffffffffffffffffffffffffffffffffffffff\n        /* \"#utility.yul\":16397:16402   */\n      dup3\n        /* \"#utility.yul\":16394:16471   */\n      sub\n        /* \"#utility.yul\":16391:16494   */\n      tag_435\n      jumpi\n        /* \"#utility.yul\":16474:16492   */\n      tag_436\n      tag_258\n      jump\t// in\n    tag_436:\n        /* \"#utility.yul\":16391:16494   */\n    tag_435:\n        /* \"#utility.yul\":16521:16522   */\n      0x01\n        /* \"#utility.yul\":16514:16519   */\n      dup3\n        /* \"#utility.yul\":16510:16523   */\n      add\n        /* \"#utility.yul\":16503:16523   */\n      swap1\n      pop\n        /* \"#utility.yul\":16296:16529   */\n      swap2\n      swap1\n      pop\n      jump\t// out\n        /* \"#utility.yul\":16535:16729   */\n    tag_128:\n        /* \"#utility.yul\":16575:16579   */\n      0x00\n        /* \"#utility.yul\":16595:16615   */\n      tag_438\n        /* \"#utility.yul\":16613:16614   */\n      dup3\n        /* \"#utility.yul\":16595:16615   */\n      tag_219\n      jump\t// in\n    tag_438:\n        /* \"#utility.yul\":16590:16615   */\n      swap2\n      pop\n        /* \"#utility.yul\":16629:16649   */\n      tag_439\n        /* \"#utility.yul\":16647:16648   */\n      dup4\n        /* \"#utility.yul\":16629:16649   */\n      tag_219\n      jump\t// in\n    tag_439:\n        /* \"#utility.yul\":16624:16649   */\n      swap3\n      pop\n        /* \"#utility.yul\":16673:16674   */\n      dup3\n        /* \"#utility.yul\":16670:16671   */\n      dup3\n        /* \"#utility.yul\":16666:16675   */\n      sub\n        /* \"#utility.yul\":16658:16675   */\n      swap1\n      pop\n        /* \"#utility.yul\":16697:16698   */\n      dup2\n        /* \"#utility.yul\":16691:16695   */\n      dup2\n        /* \"#utility.yul\":16688:16699   */\n      gt\n        /* \"#utility.yul\":16685:16722   */\n      iszero\n      tag_440\n      jumpi\n        /* \"#utility.yul\":16702:16720   */\n      tag_441\n      tag_258\n      jump\t// in\n    tag_441:\n        /* \"#utility.yul\":16685:16722   */\n    tag_440:\n        /* \"#utility.yul\":16535:16729   */\n      swap3\n      swap2\n      pop\n      pop\n      jump\t// out\n        /* \"#utility.yul\":16735:16926   */\n    tag_130:\n        /* \"#utility.yul\":16775:16778   */\n      0x00\n        /* \"#utility.yul\":16794:16814   */\n      tag_443\n        /* \"#utility.yul\":16812:16813   */\n      dup3\n        /* \"#utility.yul\":16794:16814   */\n      tag_219\n      jump\t// in\n    tag_443:\n        /* \"#utility.yul\":16789:16814   */\n      swap2\n      pop\n        /* \"#utility.yul\":16828:16848   */\n      tag_444\n        /* \"#utility.yul\":16846:16847   */\n      dup4\n        /* \"#utility.yul\":16828:16848   */\n      tag_219\n      jump\t// in\n    tag_444:\n        /* \"#utility.yul\":16823:16848   */\n      swap3\n      pop\n        /* \"#utility.yul\":16871:16872   */\n      dup3\n        /* \"#utility.yul\":16868:16869   */\n      dup3\n        /* \"#utility.yul\":16864:16873   */\n      add\n        /* \"#utility.yul\":16857:16873   */\n      swap1\n      pop\n        /* \"#utility.yul\":16892:16895   */\n      dup1\n        /* \"#utility.yul\":16889:16890   */\n      dup3\n        /* \"#utility.yul\":16886:16896   */\n      gt\n        /* \"#utility.yul\":16883:16919   */\n      iszero\n      tag_445\n      jumpi\n        /* \"#utility.yul\":16899:16917   */\n      tag_446\n      tag_258\n      jump\t// in\n    tag_446:\n        /* \"#utility.yul\":16883:16919   */\n    tag_445:\n        /* \"#utility.yul\":16735:16926   */\n      swap3\n      swap2\n      pop\n      pop\n      jump\t// out\n        /* \"#utility.yul\":16932:17112   */\n    tag_139:\n        /* \"#utility.yul\":16980:17057   */\n      0x4e487b7100000000000000000000000000000000000000000000000000000000\n        /* \"#utility.yul\":16977:16978   */\n      0x00\n        /* \"#utility.yul\":16970:17058   */\n      mstore\n        /* \"#utility.yul\":17077:17081   */\n      0x31\n        /* \"#utility.yul\":17074:17075   */\n      0x04\n        /* \"#utility.yul\":17067:17082   */\n      mstore\n        /* \"#utility.yul\":17101:17105   */\n      0x24\n        /* \"#utility.yul\":17098:17099   */\n      0x00\n        /* \"#utility.yul\":17091:17106   */\n      revert\n        /* \"#utility.yul\":17118:17267   */\n    tag_261:\n        /* \"#utility.yul\":17167:17173   */\n      0x00\n        /* \"#utility.yul\":17201:17206   */\n      dup2\n        /* \"#utility.yul\":17195:17207   */\n      sload\n        /* \"#utility.yul\":17185:17207   */\n      swap1\n      pop\n        /* \"#utility.yul\":17227:17260   */\n      tag_449\n        /* \"#utility.yul\":17253:17259   */\n      dup2\n        /* \"#utility.yul\":17227:17260   */\n      tag_67\n      jump\t// in\n    tag_449:\n        /* \"#utility.yul\":17217:17260   */\n      swap1\n      pop\n        /* \"#utility.yul\":17118:17267   */\n      swap2\n      swap1\n      pop\n      jump\t// out\n        /* \"#utility.yul\":17273:17414   */\n    tag_262:\n        /* \"#utility.yul\":17322:17326   */\n      0x00\n        /* \"#utility.yul\":17345:17348   */\n      dup2\n        /* \"#utility.yul\":17337:17348   */\n      swap1\n      pop\n        /* \"#utility.yul\":17368:17371   */\n      dup2\n        /* \"#utility.yul\":17365:17366   */\n      0x00\n        /* \"#utility.yul\":17358:17372   */\n      mstore\n        /* \"#utility.yul\":17402:17406   */\n      0x20\n        /* \"#utility.yul\":17399:17400   */\n      0x00\n        /* \"#utility.yul\":17389:17407   */\n      keccak256\n        /* \"#utility.yul\":17381:17407   */\n      swap1\n      pop\n        /* \"#utility.yul\":17273:17414   */\n      swap2\n      swap1\n      pop\n      jump\t// out\n        /* \"#utility.yul\":17420:17513   */\n    tag_263:\n        /* \"#utility.yul\":17457:17463   */\n      0x00\n        /* \"#utility.yul\":17504:17506   */\n      0x20\n        /* \"#utility.yul\":17499:17501   */\n      0x1f\n        /* \"#utility.yul\":17492:17497   */\n      dup4\n        /* \"#utility.yul\":17488:17502   */\n      add\n        /* \"#utility.yul\":17484:17507   */\n      div\n        /* \"#utility.yul\":17474:17507   */\n      swap1\n      pop\n        /* \"#utility.yul\":17420:17513   */\n      swap2\n      swap1\n      pop\n      jump\t// out\n        /* \"#utility.yul\":17519:17626   */\n    tag_264:\n        /* \"#utility.yul\":17563:17571   */\n      0x00\n        /* \"#utility.yul\":17613:17618   */\n      dup3\n        /* \"#utility.yul\":17607:17611   */\n      dup3\n        /* \"#utility.yul\":17603:17619   */\n      shl\n        /* \"#utility.yul\":17582:17619   */\n      swap1\n      pop\n        /* \"#utility.yul\":17519:17626   */\n      swap3\n      swap2\n      pop\n      pop\n      jump\t// out\n        /* \"#utility.yul\":17632:18025   */\n    tag_265:\n        /* \"#utility.yul\":17701:17707   */\n      0x00\n        /* \"#utility.yul\":17751:17752   */\n      0x08\n        /* \"#utility.yul\":17739:17749   */\n      dup4\n        /* \"#utility.yul\":17735:17753   */\n      mul\n        /* \"#utility.yul\":17774:17871   */\n      tag_454\n        /* \"#utility.yul\":17804:17870   */\n      0xffffffffffffffffffffffffffffffffffffffffffffffffffffffffffffffff\n        /* \"#utility.yul\":17793:17802   */\n      dup3\n        /* \"#utility.yul\":17774:17871   */\n      tag_264\n      jump\t// in\n    tag_454:\n        /* \"#utility.yul\":17892:17931   */\n      tag_455\n        /* \"#utility.yul\":17922:17930   */\n      dup7\n        /* \"#utility.yul\":17911:17920   */\n      dup4\n        /* \"#utility.yul\":17892:17931   */\n      tag_264\n      jump\t// in\n    tag_455:\n        /* \"#utility.yul\":17880:17931   */\n      swap6\n      pop\n        /* \"#utility.yul\":17964:17968   */\n      dup1\n        /* \"#utility.yul\":17960:17969   */\n      not\n        /* \"#utility.yul\":17953:17958   */\n      dup5\n        /* \"#utility.yul\":17949:17970   */\n      and\n        /* \"#utility.yul\":17940:17970   */\n      swap4\n      pop\n        /* \"#utility.yul\":18013:18017   */\n      dup1\n        /* \"#utility.yul\":18003:18011   */\n      dup7\n        /* \"#utility.yul\":17999:18018   */\n      and\n        /* \"#utility.yul\":17992:17997   */\n      dup5\n        /* \"#utility.yul\":17989:18019   */\n      or\n        /* \"#utility.yul\":17979:18019   */\n      swap3\n      pop\n        /* \"#utility.yul\":17708:18025   */\n      pop\n      pop\n        /* \"#utility.yul\":17632:18025   */\n      swap4\n      swap3\n      pop\n      pop\n      pop\n      jump\t// out\n        /* \"#utility.yul\":18031:18091   */\n    tag_266:\n        /* \"#utility.yul\":18059:18062   */\n      0x00\n        /* \"#utility.yul\":18080:18085   */\n      dup2\n        /* \"#utility.yul\":18073:18085   */\n      swap1\n      pop\n        /* \"#utility.yul\":18031:18091   */\n      swap2\n      swap1\n      pop\n      jump\t// out\n        /* \"#utility.yul\":18097:18239   */\n    tag_267:\n        /* \"#utility.yul\":18147:18156   */\n      0x00\n        /* \"#utility.yul\":18180:18233   */\n      tag_458\n        /* \"#utility.yul\":18198:18232   */\n      tag_459\n        /* \"#utility.yul\":18207:18231   */\n      tag_460\n        /* \"#utility.yul\":18225:18230   */\n      dup5\n        /* \"#utility.yul\":18207:18231   */\n      tag_219\n      jump\t// in\n    tag_460:\n        /* \"#utility.yul\":18198:18232   */\n      tag_266\n      jump\t// in\n    tag_459:\n        /* \"#utility.yul\":18180:18233   */\n      tag_219\n      jump\t// in\n    tag_458:\n        /* \"#utility.yul\":18167:18233   */\n      swap1\n      pop\n        /* \"#utility.yul\":18097:18239   */\n      swap2\n      swap1\n      pop\n      jump\t// out\n        /* \"#utility.yul\":18245:18320   */\n    tag_268:\n        /* \"#utility.yul\":18288:18291   */\n      0x00\n        /* \"#utility.yul\":18309:18314   */\n      dup2\n        /* \"#utility.yul\":18302:18314   */\n      swap1\n      pop\n        /* \"#utility.yul\":18245:18320   */\n      swap2\n      swap1\n      pop\n      jump\t// out\n        /* \"#utility.yul\":18326:18595   */\n    tag_269:\n        /* \"#utility.yul\":18436:18475   */\n      tag_463\n        /* \"#utility.yul\":18467:18474   */\n      dup4\n        /* \"#utility.yul\":18436:18475   */\n      tag_267\n      jump\t// in\n    tag_463:\n        /* \"#utility.yul\":18497:18588   */\n      tag_464\n        /* \"#utility.yul\":18546:18587   */\n      tag_465\n        /* \"#utility.yul\":18570:18586   */\n      dup3\n        /* \"#utility.yul\":18546:18587   */\n      tag_268\n      jump\t// in\n    tag_465:\n        /* \"#utility.yul\":18538:18544   */\n      dup5\n        /* \"#utility.yul\":18531:18535   */\n      dup5\n        /* \"#utility.yul\":18525:18536   */\n      sload\n        /* \"#utility.yul\":18497:18588   */\n      tag_265\n      jump\t// in\n    tag_464:\n        /* \"#utility.yul\":18491:18495   */\n      dup3\n        /* \"#utility.yul\":18484:18589   */\n      sstore\n        /* \"#utility.yul\":18402:18595   */\n      pop\n        /* \"#utility.yul\":18326:18595   */\n      pop\n      pop\n      pop\n      jump\t// out\n        /* \"#utility.yul\":18601:18674   */\n    tag_270:\n        /* \"#utility.yul\":18646:18649   */\n      0x00\n        /* \"#utility.yul\":18601:18674   */\n      swap1\n      jump\t// out\n        /* \"#utility.yul\":18680:18869   */\n    tag_271:\n        /* \"#utility.yul\":18757:18789   */\n      tag_468\n      tag_270\n      jump\t// in\n    tag_468:\n        /* \"#utility.yul\":18798:18863   */\n      tag_469\n        /* \"#utility.yul\":18856:18862   */\n      dup2\n        /* \"#utility.yul\":18848:18854   */\n      dup5\n        /* \"#utility.yul\":18842:18846   */\n      dup5\n        /* \"#utility.yul\":18798:18863   */\n      tag_269\n      jump\t// in\n    tag_469:\n        /* \"#utility.yul\":18733:18869   */\n      pop\n        /* \"#utility.yul\":18680:18869   */\n      pop\n      pop\n      jump\t// out\n        /* \"#utility.yul\":18875:19061   */\n    tag_272:\n        /* \"#utility.yul\":18935:19055   */\n    tag_471:\n        /* \"#utility.yul\":18952:18955   */\n      dup2\n        /* \"#utility.yul\":18945:18950   */\n      dup2\n        /* \"#utility.yul\":18942:18956   */\n      lt\n        /* \"#utility.yul\":18935:19055   */\n      iszero\n      tag_473\n      jumpi\n        /* \"#utility.yul\":19006:19045   */\n      tag_474\n        /* \"#utility.yul\":19043:19044   */\n      0x00\n        /* \"#utility.yul\":19036:19041   */\n      dup3\n        /* \"#utility.yul\":19006:19045   */\n      tag_271\n      jump\t// in\n    tag_474:\n        /* \"#utility.yul\":18979:18980   */\n      0x01\n        /* \"#utility.yul\":18972:18977   */\n      dup2\n        /* \"#utility.yul\":18968:18981   */\n      add\n        /* \"#utility.yul\":18959:18981   */\n      swap1\n      pop\n        /* \"#utility.yul\":18935:19055   */\n      jump(tag_471)\n    tag_473:\n        /* \"#utility.yul\":18875:19061   */\n      pop\n      pop\n      jump\t// out\n        /* \"#utility.yul\":19067:19610   */\n    tag_273:\n        /* \"#utility.yul\":19168:19170   */\n      0x1f\n        /* \"#utility.yul\":19163:19166   */\n      dup3\n        /* \"#utility.yul\":19160:19171   */\n      gt\n        /* \"#utility.yul\":19157:19603   */\n      iszero\n      tag_476\n      jumpi\n        /* \"#utility.yul\":19202:19240   */\n      tag_477\n        /* \"#utility.yul\":19234:19239   */\n      dup2\n        /* \"#utility.yul\":19202:19240   */\n      tag_262\n      jump\t// in\n    tag_477:\n        /* \"#utility.yul\":19286:19315   */\n      tag_478\n        /* \"#utility.yul\":19304:19314   */\n      dup5\n        /* \"#utility.yul\":19286:19315   */\n      tag_263\n      jump\t// in\n    tag_478:\n        /* \"#utility.yul\":19276:19284   */\n      dup2\n        /* \"#utility.yul\":19272:19316   */\n      add\n        /* \"#utility.yul\":19469:19471   */\n      0x20\n        /* \"#utility.yul\":19457:19467   */\n      dup6\n        /* \"#utility.yul\":19454:19472   */\n      lt\n        /* \"#utility.yul\":19451:19500   */\n      iszero\n      tag_479\n      jumpi\n        /* \"#utility.yul\":19490:19498   */\n      dup2\n        /* \"#utility.yul\":19475:19498   */\n      swap1\n      pop\n        /* \"#utility.yul\":19451:19500   */\n    tag_479:\n        /* \"#utility.yul\":19513:19593   */\n      tag_480\n        /* \"#utility.yul\":19569:19591   */\n      tag_481\n        /* \"#utility.yul\":19587:19590   */\n      dup6\n        /* \"#utility.yul\":19569:19591   */\n      tag_263\n      jump\t// in\n    tag_481:\n        /* \"#utility.yul\":19559:19567   */\n      dup4\n        /* \"#utility.yul\":19555:19592   */\n      add\n        /* \"#utility.yul\":19542:19553   */\n      dup3\n        /* \"#utility.yul\":19513:19593   */\n      tag_272\n      jump\t// in\n    tag_480:\n        /* \"#utility.yul\":19172:19603   */\n      pop\n      pop\n        /* \"#utility.yul\":19157:19603   */\n    tag_476:\n        /* \"#utility.yul\":19067:19610   */\n      pop\n      pop\n      pop\n      jump\t// out\n        /* \"#utility.yul\":19616:19733   */\n    tag_274:\n        /* \"#utility.yul\":19670:19678   */\n      0x00\n        /* \"#utility.yul\":19720:19725   */\n      dup3\n        /* \"#utility.yul\":19714:19718   */\n      dup3\n        /* \"#utility.yul\":19710:19726   */\n      shr\n        /* \"#utility.yul\":19689:19726   */\n      swap1\n      pop\n        /* \"#utility.yul\":19616:19733   */\n      swap3\n      swap2\n      pop\n      pop\n      jump\t// out\n        /* \"#utility.yul\":19739:19908   */\n    tag_275:\n        /* \"#utility.yul\":19783:19789   */\n      0x00\n        /* \"#utility.yul\":19816:19867   */\n      tag_484\n        /* \"#utility.yul\":19864:19865   */\n      0x00\n        /* \"#utility.yul\":19860:19866   */\n      not\n        /* \"#utility.yul\":19852:19857   */\n      dup5\n        /* \"#utility.yul\":19849:19850   */\n      0x08\n        /* \"#utility.yul\":19845:19858   */\n      mul\n        /* \"#utility.yul\":19816:19867   */\n      tag_274\n      jump\t// in\n    tag_484:\n        /* \"#utility.yul\":19812:19868   */\n      not\n        /* \"#utility.yul\":19897:19901   */\n      dup1\n        /* \"#utility.yul\":19891:19895   */\n      dup4\n        /* \"#utility.yul\":19887:19902   */\n      and\n        /* \"#utility.yul\":19877:19902   */\n      swap2\n      pop\n        /* \"#utility.yul\":19790:19908   */\n      pop\n        /* \"#utility.yul\":19739:19908   */\n      swap3\n      swap2\n      pop\n      pop\n      jump\t// out\n        /* \"#utility.yul\":19913:20208   */\n    tag_276:\n        /* \"#utility.yul\":19989:19993   */\n      0x00\n        /* \"#utility.yul\":20135:20164   */\n      tag_486\n        /* \"#utility.yul\":20160:20163   */\n      dup4\n        /* \"#utility.yul\":20154:20158   */\n      dup4\n        /* \"#utility.yul\":20135:20164   */\n      tag_275\n      jump\t// in\n    tag_486:\n        /* \"#utility.yul\":20127:20164   */\n      swap2\n      pop\n        /* \"#utility.yul\":20197:20200   */\n      dup3\n        /* \"#utility.yul\":20194:20195   */\n      0x02\n        /* \"#utility.yul\":20190:20201   */\n      mul\n        /* \"#utility.yul\":20184:20188   */\n      dup3\n        /* \"#utility.yul\":20181:20202   */\n      or\n        /* \"#utility.yul\":20173:20202   */\n      swap1\n      pop\n        /* \"#utility.yul\":19913:20208   */\n      swap3\n      swap2\n      pop\n      pop\n      jump\t// out\n        /* \"#utility.yul\":20213:21664   */\n    tag_152:\n        /* \"#utility.yul\":20324:20327   */\n      dup2\n        /* \"#utility.yul\":20318:20322   */\n      dup2\n        /* \"#utility.yul\":20315:20328   */\n      sub\n        /* \"#utility.yul\":20312:20338   */\n      tag_488\n      jumpi\n        /* \"#utility.yul\":20331:20336   */\n      pop\n      pop\n      jump(tag_487)\n        /* \"#utility.yul\":20312:20338   */\n    tag_488:\n        /* \"#utility.yul\":20362:20396   */\n      tag_489\n        /* \"#utility.yul\":20392:20395   */\n      dup3\n        /* \"#utility.yul\":20362:20396   */\n      tag_261\n      jump\t// in\n    tag_489:\n        /* \"#utility.yul\":20461:20479   */\n      0xffffffffffffffff\n        /* \"#utility.yul\":20453:20459   */\n      dup2\n        /* \"#utility.yul\":20450:20480   */\n      gt\n        /* \"#utility.yul\":20447:20503   */\n      iszero\n      tag_490\n      jumpi\n        /* \"#utility.yul\":20483:20501   */\n      tag_491\n      tag_235\n      jump\t// in\n    tag_491:\n        /* \"#utility.yul\":20447:20503   */\n    tag_490:\n        /* \"#utility.yul\":20527:20565   */\n      tag_492\n        /* \"#utility.yul\":20559:20563   */\n      dup3\n        /* \"#utility.yul\":20553:20564   */\n      sload\n        /* \"#utility.yul\":20527:20565   */\n      tag_67\n      jump\t// in\n    tag_492:\n        /* \"#utility.yul\":20612:20679   */\n      tag_493\n        /* \"#utility.yul\":20672:20678   */\n      dup3\n        /* \"#utility.yul\":20664:20670   */\n      dup3\n        /* \"#utility.yul\":20658:20662   */\n      dup6\n        /* \"#utility.yul\":20612:20679   */\n      tag_273\n      jump\t// in\n    tag_493:\n        /* \"#utility.yul\":20706:20707   */\n      0x00\n        /* \"#utility.yul\":20735:20737   */\n      0x1f\n        /* \"#utility.yul\":20727:20733   */\n      dup4\n        /* \"#utility.yul\":20724:20738   */\n      gt\n        /* \"#utility.yul\":20752:20753   */\n      0x01\n        /* \"#utility.yul\":20747:21419   */\n      dup2\n      eq\n      tag_495\n      jumpi\n        /* \"#utility.yul\":21463:21464   */\n      0x00\n        /* \"#utility.yul\":21480:21486   */\n      dup5\n        /* \"#utility.yul\":21477:21554   */\n      iszero\n      tag_496\n      jumpi\n        /* \"#utility.yul\":21529:21538   */\n      dup3\n        /* \"#utility.yul\":21524:21527   */\n      dup8\n        /* \"#utility.yul\":21520:21539   */\n      add\n        /* \"#utility.yul\":21514:21540   */\n      sload\n        /* \"#utility.yul\":21505:21540   */\n      swap1\n      pop\n        /* \"#utility.yul\":21477:21554   */\n    tag_496:\n        /* \"#utility.yul\":21580:21647   */\n      tag_497\n        /* \"#utility.yul\":21640:21646   */\n      dup6\n        /* \"#utility.yul\":21633:21638   */\n      dup3\n        /* \"#utility.yul\":21580:21647   */\n      tag_276\n      jump\t// in\n    tag_497:\n        /* \"#utility.yul\":21574:21578   */\n      dup7\n        /* \"#utility.yul\":21567:21648   */\n      sstore\n        /* \"#utility.yul\":21436:21658   */\n      pop\n        /* \"#utility.yul\":20717:21658   */\n      jump(tag_494)\n        /* \"#utility.yul\":20747:21419   */\n    tag_495:\n        /* \"#utility.yul\":20799:20803   */\n      0x1f\n        /* \"#utility.yul\":20795:20804   */\n      not\n        /* \"#utility.yul\":20787:20793   */\n      dup5\n        /* \"#utility.yul\":20783:20805   */\n      and\n        /* \"#utility.yul\":20825:20861   */\n      tag_498\n        /* \"#utility.yul\":20857:20860   */\n      dup8\n        /* \"#utility.yul\":20825:20861   */\n      tag_262\n      jump\t// in\n    tag_498:\n        /* \"#utility.yul\":20818:20861   */\n      swap7\n      pop\n        /* \"#utility.yul\":20888:20925   */\n      tag_499\n        /* \"#utility.yul\":20920:20924   */\n      dup7\n        /* \"#utility.yul\":20888:20925   */\n      tag_262\n      jump\t// in\n    tag_499:\n        /* \"#utility.yul\":20947:20948   */\n      0x00\n        /* \"#utility.yul\":20961:21168   */\n    tag_500:\n        /* \"#utility.yul\":20975:20982   */\n      dup3\n        /* \"#utility.yul\":20972:20973   */\n      dup2\n        /* \"#utility.yul\":20969:20983   */\n      lt\n        /* \"#utility.yul\":20961:21168   */\n      iszero\n      tag_502\n      jumpi\n        /* \"#utility.yul\":21054:21063   */\n      dup5\n        /* \"#utility.yul\":21049:21052   */\n      dup10\n        /* \"#utility.yul\":21045:21064   */\n      add\n        /* \"#utility.yul\":21039:21065   */\n      sload\n        /* \"#utility.yul\":21031:21037   */\n      dup3\n        /* \"#utility.yul\":21024:21066   */\n      sstore\n        /* \"#utility.yul\":21105:21106   */\n      0x01\n        /* \"#utility.yul\":21097:21103   */\n      dup3\n        /* \"#utility.yul\":21093:21107   */\n      add\n        /* \"#utility.yul\":21083:21107   */\n      swap2\n      pop\n        /* \"#utility.yul\":21152:21153   */\n      0x01\n        /* \"#utility.yul\":21141:21150   */\n      dup6\n        /* \"#utility.yul\":21137:21154   */\n      add\n        /* \"#utility.yul\":21124:21154   */\n      swap5\n      pop\n        /* \"#utility.yul\":20998:21002   */\n      0x20\n        /* \"#utility.yul\":20995:20996   */\n      dup2\n        /* \"#utility.yul\":20991:21003   */\n      add\n        /* \"#utility.yul\":20986:21003   */\n      swap1\n      pop\n        /* \"#utility.yul\":20961:21168   */\n      jump(tag_500)\n    tag_502:\n        /* \"#utility.yul\":21196:21202   */\n      dup7\n        /* \"#utility.yul\":21187:21194   */\n      dup4\n        /* \"#utility.yul\":21184:21203   */\n      lt\n        /* \"#utility.yul\":21181:21360   */\n      iszero\n      tag_503\n      jumpi\n        /* \"#utility.yul\":21254:21263   */\n      dup5\n        /* \"#utility.yul\":21249:21252   */\n      dup10\n        /* \"#utility.yul\":21245:21264   */\n      add\n        /* \"#utility.yul\":21239:21265   */\n      sload\n        /* \"#utility.yul\":21297:21345   */\n      tag_504\n        /* \"#utility.yul\":21339:21343   */\n      0x1f\n        /* \"#utility.yul\":21331:21337   */\n      dup10\n        /* \"#utility.yul\":21327:21344   */\n      and\n        /* \"#utility.yul\":21316:21325   */\n      dup3\n        /* \"#utility.yul\":21297:21345   */\n      tag_275\n      jump\t// in\n    tag_504:\n        /* \"#utility.yul\":21289:21295   */\n      dup4\n        /* \"#utility.yul\":21282:21346   */\n      sstore\n        /* \"#utility.yul\":21204:21360   */\n      pop\n        /* \"#utility.yul\":21181:21360   */\n    tag_503:\n        /* \"#utility.yul\":21406:21407   */\n      0x01\n        /* \"#utility.yul\":21402:21403   */\n      0x02\n        /* \"#utility.yul\":21394:21400   */\n      dup9\n        /* \"#utility.yul\":21390:21404   */\n      mul\n        /* \"#utility.yul\":21386:21408   */\n      add\n        /* \"#utility.yul\":21380:21384   */\n      dup9\n        /* \"#utility.yul\":21373:21409   */\n      sstore\n        /* \"#utility.yul\":20754:21419   */\n      pop\n      pop\n      pop\n        /* \"#utility.yul\":20717:21658   */\n    tag_494:\n      pop\n        /* \"#utility.yul\":20302:21664   */\n      pop\n      pop\n      pop\n        /* \"#utility.yul\":20213:21664   */\n      pop\n      pop\n    tag_487:\n      jump\t// out\n        /* \"#utility.yul\":21670:21844   */\n    tag_277:\n        /* \"#utility.yul\":21810:21836   */\n      0x4f6e6c79206f776e65722063616e2063616c6c20746869730000000000000000\n        /* \"#utility.yul\":21806:21807   */\n      0x00\n        /* \"#utility.yul\":21798:21804   */\n      dup3\n        /* \"#utility.yul\":21794:21808   */\n      add\n        /* \"#utility.yul\":21787:21837   */\n      mstore\n        /* \"#utility.yul\":21670:21844   */\n      pop\n      jump\t// out\n        /* \"#utility.yul\":21850:22216   */\n    tag_278:\n        /* \"#utility.yul\":21992:21995   */\n      0x00\n        /* \"#utility.yul\":22013:22080   */\n      tag_507\n        /* \"#utility.yul\":22077:22079   */\n      0x18\n        /* \"#utility.yul\":22072:22075   */\n      dup4\n        /* \"#utility.yul\":22013:22080   */\n      tag_223\n      jump\t// in\n    tag_507:\n        /* \"#utility.yul\":22006:22080   */\n      swap2\n      pop\n        /* \"#utility.yul\":22089:22182   */\n      tag_508\n        /* \"#utility.yul\":22178:22181   */\n      dup3\n        /* \"#utility.yul\":22089:22182   */\n      tag_277\n      jump\t// in\n    tag_508:\n        /* \"#utility.yul\":22207:22209   */\n      0x20\n        /* \"#utility.yul\":22202:22205   */\n      dup3\n        /* \"#utility.yul\":22198:22210   */\n      add\n        /* \"#utility.yul\":22191:22210   */\n      swap1\n      pop\n        /* \"#utility.yul\":21850:22216   */\n      swap2\n      swap1\n      pop\n      jump\t// out\n        /* \"#utility.yul\":22222:22641   */\n    tag_192:\n        /* \"#utility.yul\":22388:22392   */\n      0x00\n        /* \"#utility.yul\":22426:22428   */\n      0x20\n        /* \"#utility.yul\":22415:22424   */\n      dup3\n        /* \"#utility.yul\":22411:22429   */\n      add\n        /* \"#utility.yul\":22403:22429   */\n      swap1\n      pop\n        /* \"#utility.yul\":22475:22484   */\n      dup2\n        /* \"#utility.yul\":22469:22473   */\n      dup2\n        /* \"#utility.yul\":22465:22485   */\n      sub\n        /* \"#utility.yul\":22461:22462   */\n      0x00\n        /* \"#utility.yul\":22450:22459   */\n      dup4\n        /* \"#utility.yul\":22446:22463   */\n      add\n        /* \"#utility.yul\":22439:22486   */\n      mstore\n        /* \"#utility.yul\":22503:22634   */\n      tag_510\n        /* \"#utility.yul\":22629:22633   */\n      dup2\n        /* \"#utility.yul\":22503:22634   */\n      tag_278\n      jump\t// in\n    tag_510:\n        /* \"#utility.yul\":22495:22634   */\n      swap1\n      pop\n        /* \"#utility.yul\":22222:22641   */\n      swap2\n      swap1\n      pop\n      jump\t// out\n        /* \"#utility.yul\":22647:24042   */\n    tag_195:\n        /* \"#utility.yul\":22764:22801   */\n      tag_512\n        /* \"#utility.yul\":22797:22800   */\n      dup3\n        /* \"#utility.yul\":22764:22801   */\n      tag_222\n      jump\t// in\n    tag_512:\n        /* \"#utility.yul\":22866:22884   */\n      0xffffffffffffffff\n        /* \"#utility.yul\":22858:22864   */\n      dup2\n        /* \"#utility.yul\":22855:22885   */\n      gt\n        /* \"#utility.yul\":22852:22908   */\n      iszero\n      tag_513\n      jumpi\n        /* \"#utility.yul\":22888:22906   */\n      tag_514\n      tag_235\n      jump\t// in\n    tag_514:\n        /* \"#utility.yul\":22852:22908   */\n    tag_513:\n        /* \"#utility.yul\":22932:22970   */\n      tag_515\n        /* \"#utility.yul\":22964:22968   */\n      dup3\n        /* \"#utility.yul\":22958:22969   */\n      sload\n        /* \"#utility.yul\":22932:22970   */\n      tag_67\n      jump\t// in\n    tag_515:\n        /* \"#utility.yul\":23017:23084   */\n      tag_516\n        /* \"#utility.yul\":23077:23083   */\n      dup3\n        /* \"#utility.yul\":23069:23075   */\n      dup3\n        /* \"#utility.yul\":23063:23067   */\n      dup6\n        /* \"#utility.yul\":23017:23084   */\n      tag_273\n      jump\t// in\n    tag_516:\n        /* \"#utility.yul\":23111:23112   */\n      0x00\n        /* \"#utility.yul\":23135:23139   */\n      0x20\n        /* \"#utility.yul\":23122:23139   */\n      swap1\n      pop\n        /* \"#utility.yul\":23167:23169   */\n      0x1f\n        /* \"#utility.yul\":23159:23165   */\n      dup4\n        /* \"#utility.yul\":23156:23170   */\n      gt\n        /* \"#utility.yul\":23184:23185   */\n      0x01\n        /* \"#utility.yul\":23179:23797   */\n      dup2\n      eq\n      tag_518\n      jumpi\n        /* \"#utility.yul\":23841:23842   */\n      0x00\n        /* \"#utility.yul\":23858:23864   */\n      dup5\n        /* \"#utility.yul\":23855:23932   */\n      iszero\n      tag_519\n      jumpi\n        /* \"#utility.yul\":23907:23916   */\n      dup3\n        /* \"#utility.yul\":23902:23905   */\n      dup8\n        /* \"#utility.yul\":23898:23917   */\n      add\n        /* \"#utility.yul\":23892:23918   */\n      mload\n        /* \"#utility.yul\":23883:23918   */\n      swap1\n      pop\n        /* \"#utility.yul\":23855:23932   */\n    tag_519:\n        /* \"#utility.yul\":23958:24025   */\n      tag_520\n        /* \"#utility.yul\":24018:24024   */\n      dup6\n        /* \"#utility.yul\":24011:24016   */\n      dup3\n        /* \"#utility.yul\":23958:24025   */\n      tag_276\n      jump\t// in\n    tag_520:\n        /* \"#utility.yul\":23952:23956   */\n      dup7\n        /* \"#utility.yul\":23945:24026   */\n      sstore\n        /* \"#utility.yul\":23814:24036   */\n      pop\n        /* \"#utility.yul\":23149:24036   */\n      jump(tag_517)\n        /* \"#utility.yul\":23179:23797   */\n    tag_518:\n        /* \"#utility.yul\":23231:23235   */\n      0x1f\n        /* \"#utility.yul\":23227:23236   */\n      not\n        /* \"#utility.yul\":23219:23225   */\n      dup5\n        /* \"#utility.yul\":23215:23237   */\n      and\n        /* \"#utility.yul\":23265:23302   */\n      tag_521\n        /* \"#utility.yul\":23297:23301   */\n      dup7\n        /* \"#utility.yul\":23265:23302   */\n      tag_262\n      jump\t// in\n    tag_521:\n        /* \"#utility.yul\":23324:23325   */\n      0x00\n        /* \"#utility.yul\":23338:23546   */\n    tag_522:\n        /* \"#utility.yul\":23352:23359   */\n      dup3\n        /* \"#utility.yul\":23349:23350   */\n      dup2\n        /* \"#utility.yul\":23346:23360   */\n      lt\n        /* \"#utility.yul\":23338:23546   */\n      iszero\n      tag_524\n      jumpi\n        /* \"#utility.yul\":23431:23440   */\n      dup5\n        /* \"#utility.yul\":23426:23429   */\n      dup10\n        /* \"#utility.yul\":23422:23441   */\n      add\n        /* \"#utility.yul\":23416:23442   */\n      mload\n        /* \"#utility.yul\":23408:23414   */\n      dup3\n        /* \"#utility.yul\":23401:23443   */\n      sstore\n        /* \"#utility.yul\":23482:23483   */\n      0x01\n        /* \"#utility.yul\":23474:23480   */\n      dup3\n        /* \"#utility.yul\":23470:23484   */\n      add\n        /* \"#utility.yul\":23460:23484   */\n      swap2\n      pop\n        /* \"#utility.yul\":23529:23531   */\n      0x20\n        /* \"#utility.yul\":23518:23527   */\n      dup6\n        /* \"#utility.yul\":23514:23532   */\n      add\n        /* \"#utility.yul\":23501:23532   */\n      swap5\n      pop\n        /* \"#utility.yul\":23375:23379   */\n      0x20\n        /* \"#utility.yul\":23372:23373   */\n      dup2\n        /* \"#utility.yul\":23368:23380   */\n      add\n        /* \"#utility.yul\":23363:23380   */\n      swap1\n      pop\n        /* \"#utility.yul\":23338:23546   */\n      jump(tag_522)\n    tag_524:\n        /* \"#utility.yul\":23574:23580   */\n      dup7\n        /* \"#utility.yul\":23565:23572   */\n      dup4\n        /* \"#utility.yul\":23562:23581   */\n      lt\n        /* \"#utility.yul\":23559:23738   */\n      iszero\n      tag_525\n      jumpi\n        /* \"#utility.yul\":23632:23641   */\n      dup5\n        /* \"#utility.yul\":23627:23630   */\n      dup10\n        /* \"#utility.yul\":23623:23642   */\n      add\n        /* \"#utility.yul\":23617:23643   */\n      mload\n        /* \"#utility.yul\":23675:23723   */\n      tag_526\n        /* \"#utility.yul\":23717:23721   */\n      0x1f\n        /* \"#utility.yul\":23709:23715   */\n      dup10\n        /* \"#utility.yul\":23705:23722   */\n      and\n        /* \"#utility.yul\":23694:23703   */\n      dup3\n        /* \"#utility.yul\":23675:23723   */\n      tag_275\n      jump\t// in\n    tag_526:\n        /* \"#utility.yul\":23667:23673   */\n      dup4\n        /* \"#utility.yul\":23660:23724   */\n      sstore\n        /* \"#utility.yul\":23582:23738   */\n      pop\n        /* \"#utility.yul\":23559:23738   */\n    tag_525:\n        /* \"#utility.yul\":23784:23785   */\n      0x01\n        /* \"#utility.yul\":23780:23781   */\n      0x02\n        /* \"#utility.yul\":23772:23778   */\n      dup9\n        /* \"#utility.yul\":23768:23782   */\n      mul\n        /* \"#utility.yul\":23764:23786   */\n      add\n        /* \"#utility.yul\":23758:23762   */\n      dup9\n        /* \"#utility.yul\":23751:23787   */\n      sstore\n        /* \"#utility.yul\":23186:23797   */\n      pop\n      pop\n      pop\n        /* \"#utility.yul\":23149:24036   */\n    tag_517:\n      pop\n        /* \"#utility.yul\":22739:24042   */\n      pop\n      pop\n      pop\n        /* \"#utility.yul\":22647:24042   */\n      pop\n      pop\n      jump\t// out\n\n    auxdata: 0xa26469706673582212203bd67d0c00c03e028fe4d11e547b1fddc2da5a4e678517255dfdd65054e90fef64736f6c63430008160033\n}\n",
				"bytecode": {
					"linkReferences": {},
					"object": "60806040526064600555348015610014575f80fd5b50335f806101000a81548173ffffffffffffffffffffffffffffffffffffffff021916908373ffffffffffffffffffffffffffffffffffffffff160217905550612027806100615f395ff3fe60806040526004361061009b575f3560e01c806371e5ee5f1161006357806371e5ee5f1461016f5780638da5cb5b146101b357806397b10afa146101dd578063a87b0d9714610219578063f6f937b414610241578063fb9f8dd11461027d5761009b565b80630b031f321461009f5780631f1d5326146100e357806332ab9503146100ed578063566992511461012957806367dd74ca14610153575b5f80fd5b3480156100aa575f80fd5b506100c560048036038101906100c0919061135b565b6102a7565b6040516100da9998979695949392919061145e565b60405180910390f35b6100eb610528565b005b3480156100f8575f80fd5b50610113600480360381019061010e919061135b565b61070a565b6040516101209190611525565b60405180910390f35b348015610134575f80fd5b5061013d610745565b60405161014a919061153e565b60405180910390f35b61016d6004803603810190610168919061135b565b61074b565b005b34801561017a575f80fd5b506101956004803603810190610190919061135b565b610c06565b6040516101aa9998979695949392919061145e565b60405180910390f35b3480156101be575f80fd5b506101c7610e96565b6040516101d49190611525565b60405180910390f35b3480156101e8575f80fd5b5061020360048036038101906101fe919061135b565b610eb9565b604051610210919061153e565b60405180910390f35b348015610224575f80fd5b5061023f600480360381019061023a91906116ad565b610f7a565b005b34801561024c575f80fd5b506102676004803603810190610262919061135b565b611204565b6040516102749190611885565b60405180910390f35b348015610288575f80fd5b506102916112a8565b60405161029e919061153e565b60405180910390f35b6001602052805f5260405f205f91509050805f0180546102c6906118d2565b80601f01602080910402602001604051908101604052809291908181526020018280546102f2906118d2565b801561033d5780601f106103145761010080835404028352916020019161033d565b820191905f5260205f20905b81548152906001019060200180831161032057829003601f168201915b505050505090806001015f9054906101000a900473ffffffffffffffffffffffffffffffffffffffff1690806002018054610377906118d2565b80601f01602080910402602001604051908101604052809291908181526020018280546103a3906118d2565b80156103ee5780601f106103c5576101008083540402835291602001916103ee565b820191905f5260205f20905b8154815290600101906020018083116103d157829003601f168201915b505050505090806003015490806004015490806005015490806006018054610415906118d2565b80601f0160208091040260200160405190810160405280929190818152602001828054610441906118d2565b801561048c5780601f106104635761010080835404028352916020019161048c565b820191905f5260205f20905b81548152906001019060200180831161046f57829003601f168201915b5050505050908060070154908060080180546104a7906118d2565b80601f01602080910402602001604051908101604052809291908181526020018280546104d3906118d2565b801561051e5780601f106104f55761010080835404028352916020019161051e565b820191905f5260205f20905b81548152906001019060200180831161050157829003601f168201915b5050505050905089565b5f805f90505b6004805490508110156105bb576004818154811061054f5761054e611902565b5b905f5260205f20015f9054906101000a900473ffffffffffffffffffffffffffffffffffffffff1673ffffffffffffffffffffffffffffffffffffffff163373ffffffffffffffffffffffffffffffffffffffff16036105ae57600191505b808060010191505061052e565b505f151581151514610602576040517f08c379a00000000000000000000000000000000000000000000000000000000081526004016105f990611979565b60405180910390fd5b67016345785d8a0000341461064c576040517f08c379a0000000000000000000000000000000000000000000000000000000008152600401610643906119e1565b60405180910390fd5b5f60055411610690576040517f08c379a000000000000000000000000000000000000000000000000000000000815260040161068790611a6f565b60405180910390fd5b600433908060018154018082558091505060019003905f5260205f20015f9091909190916101000a81548173ffffffffffffffffffffffffffffffffffffffff021916908373ffffffffffffffffffffffffffffffffffffffff16021790555060055f81548092919061070290611aba565b919050555050565b60048181548110610719575f80fd5b905f5260205f20015f915054906101000a900473ffffffffffffffffffffffffffffffffffffffff1681565b60025481565b5f60015f8381526020019081526020015f2090508060040154816003015410156107aa576040517f08c379a00000000000000000000000000000000000000000000000000000000081526004016107a190611b2b565b60405180910390fd5b5f805f90505b6004805490508110156109e057600481815481106107d1576107d0611902565b5b905f5260205f20015f9054906101000a900473ffffffffffffffffffffffffffffffffffffffff1673ffffffffffffffffffffffffffffffffffffffff163373ffffffffffffffffffffffffffffffffffffffff16036109d357826004015f81548092919061083f90611b49565b91905055508260090133908060018154018082558091505060019003905f5260205f20015f9091909190916101000a81548173ffffffffffffffffffffffffffffffffffffffff021916908373ffffffffffffffffffffffffffffffffffffffff1602179055505f8190505b60016004805490506108bd9190611b90565b8110156109725760046001826108d39190611bc3565b815481106108e4576108e3611902565b5b905f5260205f20015f9054906101000a900473ffffffffffffffffffffffffffffffffffffffff16600482815481106109205761091f611902565b5b905f5260205f20015f6101000a81548173ffffffffffffffffffffffffffffffffffffffff021916908373ffffffffffffffffffffffffffffffffffffffff16021790555080806001019150506108ab565b50600480548061098557610984611bf6565b5b600190038181905f5260205f20015f6101000a81549073ffffffffffffffffffffffffffffffffffffffff0219169055905560055f8154809291906109c990611b49565b9190505550600191505b80806001019150506107b0565b505f151581151503610a7757816007015434146109fb575f80fd5b816004015f815480929190610a0f90611b49565b91905055508160090133908060018154018082558091505060019003905f5260205f20015f9091909190916101000a81548173ffffffffffffffffffffffffffffffffffffffff021916908373ffffffffffffffffffffffffffffffffffffffff1602179055505b5f826001015f9054906101000a900473ffffffffffffffffffffffffffffffffffffffff1690508073ffffffffffffffffffffffffffffffffffffffff166108fc846007015490811502906040515f60405180830381858888f19350505050158015610ae5573d5f803e3d5ffd5b508260038581548110610afb57610afa611902565b5b905f5260205f2090600a02015f8201815f019081610b199190611dd5565b50600182015f9054906101000a900473ffffffffffffffffffffffffffffffffffffffff16816001015f6101000a81548173ffffffffffffffffffffffffffffffffffffffff021916908373ffffffffffffffffffffffffffffffffffffffff16021790555060028201816002019081610b939190611dd5565b5060038201548160030155600482015481600401556005820154816005015560068201816006019081610bc69190611dd5565b506007820154816007015560088201816008019081610be59190611dd5565b506009820181600901908054610bfc9291906112ae565b5090505050505050565b60038181548110610c15575f80fd5b905f5260205f2090600a02015f91509050805f018054610c34906118d2565b80601f0160208091040260200160405190810160405280929190818152602001828054610c60906118d2565b8015610cab5780601f10610c8257610100808354040283529160200191610cab565b820191905f5260205f20905b815481529060010190602001808311610c8e57829003601f168201915b505050505090806001015f9054906101000a900473ffffffffffffffffffffffffffffffffffffffff1690806002018054610ce5906118d2565b80601f0160208091040260200160405190810160405280929190818152602001828054610d11906118d2565b8015610d5c5780601f10610d3357610100808354040283529160200191610d5c565b820191905f5260205f20905b815481529060010190602001808311610d3f57829003601f168201915b505050505090806003015490806004015490806005015490806006018054610d83906118d2565b80601f0160208091040260200160405190810160405280929190818152602001828054610daf906118d2565b8015610dfa5780601f10610dd157610100808354040283529160200191610dfa565b820191905f5260205f20905b815481529060010190602001808311610ddd57829003601f168201915b505050505090806007015490806008018054610e15906118d2565b80601f0160208091040260200160405190810160405280929190818152602001828054610e41906118d2565b8015610e8c5780601f10610e6357610100808354040283529160200191610e8c565b820191905f5260205f20905b815481529060010190602001808311610e6f57829003601f168201915b5050505050905089565b5f8054906101000a900473ffffffffffffffffffffffffffffffffffffffff1681565b5f805f90505f60015f8581526020019081526020015f2090505f5b8160090180549050811015610f6f573373ffffffffffffffffffffffffffffffffffffffff16826009018281548110610f1057610f0f611902565b5b905f5260205f20015f9054906101000a900473ffffffffffffffffffffffffffffffffffffffff1673ffffffffffffffffffffffffffffffffffffffff1603610f62578280610f5e90611b49565b9350505b8080600101915050610ed4565b508192505050919050565b5f8054906101000a900473ffffffffffffffffffffffffffffffffffffffff1673ffffffffffffffffffffffffffffffffffffffff163373ffffffffffffffffffffffffffffffffffffffff1614611007576040517f08c379a0000000000000000000000000000000000000000000000000000000008152600401610ffe90611f04565b60405180910390fd5b5f60015f60025481526020019081526020015f2090508681600201908161102e9190611f22565b5087816001015f6101000a81548173ffffffffffffffffffffffffffffffffffffffff021916908373ffffffffffffffffffffffffffffffffffffffff16021790555088815f0190816110819190611f22565b50858160030181905550848160050181905550838160060190816110a59190611f22565b50828160070181905550818160080190816110c09190611f22565b5060025f8154809291906110d390611b49565b9190505550600381908060018154018082558091505060019003905f5260205f2090600a02015f909190919091505f8201815f0190816111139190611dd5565b50600182015f9054906101000a900473ffffffffffffffffffffffffffffffffffffffff16816001015f6101000a81548173ffffffffffffffffffffffffffffffffffffffff021916908373ffffffffffffffffffffffffffffffffffffffff1602179055506002820181600201908161118d9190611dd5565b50600382015481600301556004820154816004015560058201548160050155600682018160060190816111c09190611dd5565b5060078201548160070155600882018160080190816111df9190611dd5565b5060098201816009019080546111f69291906112ae565b505050505050505050505050565b60605f60015f8481526020019081526020015f2090508060090180548060200260200160405190810160405280929190818152602001828054801561129b57602002820191905f5260205f20905b815f9054906101000a900473ffffffffffffffffffffffffffffffffffffffff1673ffffffffffffffffffffffffffffffffffffffff1681526020019060010190808311611252575b5050505050915050919050565b60055481565b828054828255905f5260205f209081019282156112eb575f5260205f209182015b828111156112ea5782548255916001019190600101906112cf565b5b5090506112f891906112fc565b5090565b5b80821115611313575f815f9055506001016112fd565b5090565b5f604051905090565b5f80fd5b5f80fd5b5f819050919050565b61133a81611328565b8114611344575f80fd5b50565b5f8135905061135581611331565b92915050565b5f602082840312156113705761136f611320565b5b5f61137d84828501611347565b91505092915050565b5f81519050919050565b5f82825260208201905092915050565b5f5b838110156113bd5780820151818401526020810190506113a2565b5f8484015250505050565b5f601f19601f8301169050919050565b5f6113e282611386565b6113ec8185611390565b93506113fc8185602086016113a0565b611405816113c8565b840191505092915050565b5f73ffffffffffffffffffffffffffffffffffffffff82169050919050565b5f61143982611410565b9050919050565b6114498161142f565b82525050565b61145881611328565b82525050565b5f610120820190508181035f830152611477818c6113d8565b9050611486602083018b611440565b8181036040830152611498818a6113d8565b90506114a7606083018961144f565b6114b4608083018861144f565b6114c160a083018761144f565b81810360c08301526114d381866113d8565b90506114e260e083018561144f565b8181036101008301526114f581846113d8565b90509a9950505050505050505050565b5f61150f82611410565b9050919050565b61151f81611505565b82525050565b5f6020820190506115385f830184611516565b92915050565b5f6020820190506115515f83018461144f565b92915050565b5f80fd5b5f80fd5b7f4e487b71000000000000000000000000000000000000000000000000000000005f52604160045260245ffd5b611595826113c8565b810181811067ffffffffffffffff821117156115b4576115b361155f565b5b80604052505050565b5f6115c6611317565b90506115d2828261158c565b919050565b5f67ffffffffffffffff8211156115f1576115f061155f565b5b6115fa826113c8565b9050602081019050919050565b828183375f83830152505050565b5f611627611622846115d7565b6115bd565b9050828152602081018484840111156116435761164261155b565b5b61164e848285611607565b509392505050565b5f82601f83011261166a57611669611557565b5b813561167a848260208601611615565b91505092915050565b61168c8161142f565b8114611696575f80fd5b50565b5f813590506116a781611683565b92915050565b5f805f805f805f80610100898b0312156116ca576116c9611320565b5b5f89013567ffffffffffffffff8111156116e7576116e6611324565b5b6116f38b828c01611656565b98505060206117048b828c01611699565b975050604089013567ffffffffffffffff81111561172557611724611324565b5b6117318b828c01611656565b96505060606117428b828c01611347565b95505060806117538b828c01611347565b94505060a089013567ffffffffffffffff81111561177457611773611324565b5b6117808b828c01611656565b93505060c06117918b828c01611347565b92505060e089013567ffffffffffffffff8111156117b2576117b1611324565b5b6117be8b828c01611656565b9150509295985092959890939650565b5f81519050919050565b5f82825260208201905092915050565b5f819050602082019050919050565b61180081611505565b82525050565b5f61181183836117f7565b60208301905092915050565b5f602082019050919050565b5f611833826117ce565b61183d81856117d8565b9350611848836117e8565b805f5b8381101561187857815161185f8882611806565b975061186a8361181d565b92505060018101905061184b565b5085935050505092915050565b5f6020820190508181035f83015261189d8184611829565b905092915050565b7f4e487b71000000000000000000000000000000000000000000000000000000005f52602260045260245ffd5b5f60028204905060018216806118e957607f821691505b6020821081036118fc576118fb6118a5565b5b50919050565b7f4e487b71000000000000000000000000000000000000000000000000000000005f52603260045260245ffd5b7f596f752061726520616c72656164792061205072656d69756d206d616e0000005f82015250565b5f611963601d83611390565b915061196e8261192f565b602082019050919050565b5f6020820190508181035f83015261199081611957565b9050919050565b7f506c656173652070617920657861637420616d6f756e740000000000000000005f82015250565b5f6119cb601783611390565b91506119d682611997565b602082019050919050565b5f6020820190508181035f8301526119f8816119bf565b9050919050565b7f416c6c20546f6b656e732061726520736f6c64212054727920616761696e20695f8201527f6e20612066657720646179730000000000000000000000000000000000000000602082015250565b5f611a59602c83611390565b9150611a64826119ff565b604082019050919050565b5f6020820190508181035f830152611a8681611a4d565b9050919050565b7f4e487b71000000000000000000000000000000000000000000000000000000005f52601160045260245ffd5b5f611ac482611328565b91505f8203611ad657611ad5611a8d565b5b600182039050919050565b7f416c6c20746963656b747320736f6c64000000000000000000000000000000005f82015250565b5f611b15601083611390565b9150611b2082611ae1565b602082019050919050565b5f6020820190508181035f830152611b4281611b09565b9050919050565b5f611b5382611328565b91507fffffffffffffffffffffffffffffffffffffffffffffffffffffffffffffffff8203611b8557611b84611a8d565b5b600182019050919050565b5f611b9a82611328565b9150611ba583611328565b9250828203905081811115611bbd57611bbc611a8d565b5b92915050565b5f611bcd82611328565b9150611bd883611328565b9250828201905080821115611bf057611bef611a8d565b5b92915050565b7f4e487b71000000000000000000000000000000000000000000000000000000005f52603160045260245ffd5b5f81549050611c31816118d2565b9050919050565b5f819050815f5260205f209050919050565b5f6020601f8301049050919050565b5f82821b905092915050565b5f60088302611c947fffffffffffffffffffffffffffffffffffffffffffffffffffffffffffffffff82611c59565b611c9e8683611c59565b95508019841693508086168417925050509392505050565b5f819050919050565b5f611cd9611cd4611ccf84611328565b611cb6565b611328565b9050919050565b5f819050919050565b611cf283611cbf565b611d06611cfe82611ce0565b848454611c65565b825550505050565b5f90565b611d1a611d0e565b611d25818484611ce9565b505050565b5b81811015611d4857611d3d5f82611d12565b600181019050611d2b565b5050565b601f821115611d8d57611d5e81611c38565b611d6784611c4a565b81016020851015611d76578190505b611d8a611d8285611c4a565b830182611d2a565b50505b505050565b5f82821c905092915050565b5f611dad5f1984600802611d92565b1980831691505092915050565b5f611dc58383611d9e565b9150826002028217905092915050565b818103611de3575050611eb8565b611dec82611c23565b67ffffffffffffffff811115611e0557611e0461155f565b5b611e0f82546118d2565b611e1a828285611d4c565b5f601f831160018114611e47575f8415611e35578287015490505b611e3f8582611dba565b865550611eb1565b601f198416611e5587611c38565b9650611e6086611c38565b5f5b82811015611e8757848901548255600182019150600185019450602081019050611e62565b86831015611ea45784890154611ea0601f891682611d9e565b8355505b6001600288020188555050505b5050505050505b565b7f4f6e6c79206f776e65722063616e2063616c6c207468697300000000000000005f82015250565b5f611eee601883611390565b9150611ef982611eba565b602082019050919050565b5f6020820190508181035f830152611f1b81611ee2565b9050919050565b611f2b82611386565b67ffffffffffffffff811115611f4457611f4361155f565b5b611f4e82546118d2565b611f59828285611d4c565b5f60209050601f831160018114611f8a575f8415611f78578287015190505b611f828582611dba565b865550611fe9565b601f198416611f9886611c38565b5f5b82811015611fbf57848901518255600182019150602085019450602081019050611f9a565b86831015611fdc5784890151611fd8601f891682611d9e565b8355505b6001600288020188555050505b50505050505056fea26469706673582212203bd67d0c00c03e028fe4d11e547b1fddc2da5a4e678517255dfdd65054e90fef64736f6c63430008160033",
					"opcodes": "PUSH1 0x80 PUSH1 0x40 MSTORE PUSH1 0x64 PUSH1 0x5 SSTORE CALLVALUE DUP1 ISZERO PUSH2 0x14 JUMPI PUSH0 DUP1 REVERT JUMPDEST POP CALLER PUSH0 DUP1 PUSH2 0x100 EXP DUP2 SLOAD DUP2 PUSH20 0xFFFFFFFFFFFFFFFFFFFFFFFFFFFFFFFFFFFFFFFF MUL NOT AND SWAP1 DUP4 PUSH20 0xFFFFFFFFFFFFFFFFFFFFFFFFFFFFFFFFFFFFFFFF AND MUL OR SWAP1 SSTORE POP PUSH2 0x2027 DUP1 PUSH2 0x61 PUSH0 CODECOPY PUSH0 RETURN INVALID PUSH1 0x80 PUSH1 0x40 MSTORE PUSH1 0x4 CALLDATASIZE LT PUSH2 0x9B JUMPI PUSH0 CALLDATALOAD PUSH1 0xE0 SHR DUP1 PUSH4 0x71E5EE5F GT PUSH2 0x63 JUMPI DUP1 PUSH4 0x71E5EE5F EQ PUSH2 0x16F JUMPI DUP1 PUSH4 0x8DA5CB5B EQ PUSH2 0x1B3 JUMPI DUP1 PUSH4 0x97B10AFA EQ PUSH2 0x1DD JUMPI DUP1 PUSH4 0xA87B0D97 EQ PUSH2 0x219 JUMPI DUP1 PUSH4 0xF6F937B4 EQ PUSH2 0x241 JUMPI DUP1 PUSH4 0xFB9F8DD1 EQ PUSH2 0x27D JUMPI PUSH2 0x9B JUMP JUMPDEST DUP1 PUSH4 0xB031F32 EQ PUSH2 0x9F JUMPI DUP1 PUSH4 0x1F1D5326 EQ PUSH2 0xE3 JUMPI DUP1 PUSH4 0x32AB9503 EQ PUSH2 0xED JUMPI DUP1 PUSH4 0x56699251 EQ PUSH2 0x129 JUMPI DUP1 PUSH4 0x67DD74CA EQ PUSH2 0x153 JUMPI JUMPDEST PUSH0 DUP1 REVERT JUMPDEST CALLVALUE DUP1 ISZERO PUSH2 0xAA JUMPI PUSH0 DUP1 REVERT JUMPDEST POP PUSH2 0xC5 PUSH1 0x4 DUP1 CALLDATASIZE SUB DUP2 ADD SWAP1 PUSH2 0xC0 SWAP2 SWAP1 PUSH2 0x135B JUMP JUMPDEST PUSH2 0x2A7 JUMP JUMPDEST PUSH1 0x40 MLOAD PUSH2 0xDA SWAP10 SWAP9 SWAP8 SWAP7 SWAP6 SWAP5 SWAP4 SWAP3 SWAP2 SWAP1 PUSH2 0x145E JUMP JUMPDEST PUSH1 0x40 MLOAD DUP1 SWAP2 SUB SWAP1 RETURN JUMPDEST PUSH2 0xEB PUSH2 0x528 JUMP JUMPDEST STOP JUMPDEST CALLVALUE DUP1 ISZERO PUSH2 0xF8 JUMPI PUSH0 DUP1 REVERT JUMPDEST POP PUSH2 0x113 PUSH1 0x4 DUP1 CALLDATASIZE SUB DUP2 ADD SWAP1 PUSH2 0x10E SWAP2 SWAP1 PUSH2 0x135B JUMP JUMPDEST PUSH2 0x70A JUMP JUMPDEST PUSH1 0x40 MLOAD PUSH2 0x120 SWAP2 SWAP1 PUSH2 0x1525 JUMP JUMPDEST PUSH1 0x40 MLOAD DUP1 SWAP2 SUB SWAP1 RETURN JUMPDEST CALLVALUE DUP1 ISZERO PUSH2 0x134 JUMPI PUSH0 DUP1 REVERT JUMPDEST POP PUSH2 0x13D PUSH2 0x745 JUMP JUMPDEST PUSH1 0x40 MLOAD PUSH2 0x14A SWAP2 SWAP1 PUSH2 0x153E JUMP JUMPDEST PUSH1 0x40 MLOAD DUP1 SWAP2 SUB SWAP1 RETURN JUMPDEST PUSH2 0x16D PUSH1 0x4 DUP1 CALLDATASIZE SUB DUP2 ADD SWAP1 PUSH2 0x168 SWAP2 SWAP1 PUSH2 0x135B JUMP JUMPDEST PUSH2 0x74B JUMP JUMPDEST STOP JUMPDEST CALLVALUE DUP1 ISZERO PUSH2 0x17A JUMPI PUSH0 DUP1 REVERT JUMPDEST POP PUSH2 0x195 PUSH1 0x4 DUP1 CALLDATASIZE SUB DUP2 ADD SWAP1 PUSH2 0x190 SWAP2 SWAP1 PUSH2 0x135B JUMP JUMPDEST PUSH2 0xC06 JUMP JUMPDEST PUSH1 0x40 MLOAD PUSH2 0x1AA SWAP10 SWAP9 SWAP8 SWAP7 SWAP6 SWAP5 SWAP4 SWAP3 SWAP2 SWAP1 PUSH2 0x145E JUMP JUMPDEST PUSH1 0x40 MLOAD DUP1 SWAP2 SUB SWAP1 RETURN JUMPDEST CALLVALUE DUP1 ISZERO PUSH2 0x1BE JUMPI PUSH0 DUP1 REVERT JUMPDEST POP PUSH2 0x1C7 PUSH2 0xE96 JUMP JUMPDEST PUSH1 0x40 MLOAD PUSH2 0x1D4 SWAP2 SWAP1 PUSH2 0x1525 JUMP JUMPDEST PUSH1 0x40 MLOAD DUP1 SWAP2 SUB SWAP1 RETURN JUMPDEST CALLVALUE DUP1 ISZERO PUSH2 0x1E8 JUMPI PUSH0 DUP1 REVERT JUMPDEST POP PUSH2 0x203 PUSH1 0x4 DUP1 CALLDATASIZE SUB DUP2 ADD SWAP1 PUSH2 0x1FE SWAP2 SWAP1 PUSH2 0x135B JUMP JUMPDEST PUSH2 0xEB9 JUMP JUMPDEST PUSH1 0x40 MLOAD PUSH2 0x210 SWAP2 SWAP1 PUSH2 0x153E JUMP JUMPDEST PUSH1 0x40 MLOAD DUP1 SWAP2 SUB SWAP1 RETURN JUMPDEST CALLVALUE DUP1 ISZERO PUSH2 0x224 JUMPI PUSH0 DUP1 REVERT JUMPDEST POP PUSH2 0x23F PUSH1 0x4 DUP1 CALLDATASIZE SUB DUP2 ADD SWAP1 PUSH2 0x23A SWAP2 SWAP1 PUSH2 0x16AD JUMP JUMPDEST PUSH2 0xF7A JUMP JUMPDEST STOP JUMPDEST CALLVALUE DUP1 ISZERO PUSH2 0x24C JUMPI PUSH0 DUP1 REVERT JUMPDEST POP PUSH2 0x267 PUSH1 0x4 DUP1 CALLDATASIZE SUB DUP2 ADD SWAP1 PUSH2 0x262 SWAP2 SWAP1 PUSH2 0x135B JUMP JUMPDEST PUSH2 0x1204 JUMP JUMPDEST PUSH1 0x40 MLOAD PUSH2 0x274 SWAP2 SWAP1 PUSH2 0x1885 JUMP JUMPDEST PUSH1 0x40 MLOAD DUP1 SWAP2 SUB SWAP1 RETURN JUMPDEST CALLVALUE DUP1 ISZERO PUSH2 0x288 JUMPI PUSH0 DUP1 REVERT JUMPDEST POP PUSH2 0x291 PUSH2 0x12A8 JUMP JUMPDEST PUSH1 0x40 MLOAD PUSH2 0x29E SWAP2 SWAP1 PUSH2 0x153E JUMP JUMPDEST PUSH1 0x40 MLOAD DUP1 SWAP2 SUB SWAP1 RETURN JUMPDEST PUSH1 0x1 PUSH1 0x20 MSTORE DUP1 PUSH0 MSTORE PUSH1 0x40 PUSH0 KECCAK256 PUSH0 SWAP2 POP SWAP1 POP DUP1 PUSH0 ADD DUP1 SLOAD PUSH2 0x2C6 SWAP1 PUSH2 0x18D2 JUMP JUMPDEST DUP1 PUSH1 0x1F ADD PUSH1 0x20 DUP1 SWAP2 DIV MUL PUSH1 0x20 ADD PUSH1 0x40 MLOAD SWAP1 DUP2 ADD PUSH1 0x40 MSTORE DUP1 SWAP3 SWAP2 SWAP1 DUP2 DUP2 MSTORE PUSH1 0x20 ADD DUP3 DUP1 SLOAD PUSH2 0x2F2 SWAP1 PUSH2 0x18D2 JUMP JUMPDEST DUP1 ISZERO PUSH2 0x33D JUMPI DUP1 PUSH1 0x1F LT PUSH2 0x314 JUMPI PUSH2 0x100 DUP1 DUP4 SLOAD DIV MUL DUP4 MSTORE SWAP2 PUSH1 0x20 ADD SWAP2 PUSH2 0x33D JUMP JUMPDEST DUP3 ADD SWAP2 SWAP1 PUSH0 MSTORE PUSH1 0x20 PUSH0 KECCAK256 SWAP1 JUMPDEST DUP2 SLOAD DUP2 MSTORE SWAP1 PUSH1 0x1 ADD SWAP1 PUSH1 0x20 ADD DUP1 DUP4 GT PUSH2 0x320 JUMPI DUP3 SWAP1 SUB PUSH1 0x1F AND DUP3 ADD SWAP2 JUMPDEST POP POP POP POP POP SWAP1 DUP1 PUSH1 0x1 ADD PUSH0 SWAP1 SLOAD SWAP1 PUSH2 0x100 EXP SWAP1 DIV PUSH20 0xFFFFFFFFFFFFFFFFFFFFFFFFFFFFFFFFFFFFFFFF AND SWAP1 DUP1 PUSH1 0x2 ADD DUP1 SLOAD PUSH2 0x377 SWAP1 PUSH2 0x18D2 JUMP JUMPDEST DUP1 PUSH1 0x1F ADD PUSH1 0x20 DUP1 SWAP2 DIV MUL PUSH1 0x20 ADD PUSH1 0x40 MLOAD SWAP1 DUP2 ADD PUSH1 0x40 MSTORE DUP1 SWAP3 SWAP2 SWAP1 DUP2 DUP2 MSTORE PUSH1 0x20 ADD DUP3 DUP1 SLOAD PUSH2 0x3A3 SWAP1 PUSH2 0x18D2 JUMP JUMPDEST DUP1 ISZERO PUSH2 0x3EE JUMPI DUP1 PUSH1 0x1F LT PUSH2 0x3C5 JUMPI PUSH2 0x100 DUP1 DUP4 SLOAD DIV MUL DUP4 MSTORE SWAP2 PUSH1 0x20 ADD SWAP2 PUSH2 0x3EE JUMP JUMPDEST DUP3 ADD SWAP2 SWAP1 PUSH0 MSTORE PUSH1 0x20 PUSH0 KECCAK256 SWAP1 JUMPDEST DUP2 SLOAD DUP2 MSTORE SWAP1 PUSH1 0x1 ADD SWAP1 PUSH1 0x20 ADD DUP1 DUP4 GT PUSH2 0x3D1 JUMPI DUP3 SWAP1 SUB PUSH1 0x1F AND DUP3 ADD SWAP2 JUMPDEST POP POP POP POP POP SWAP1 DUP1 PUSH1 0x3 ADD SLOAD SWAP1 DUP1 PUSH1 0x4 ADD SLOAD SWAP1 DUP1 PUSH1 0x5 ADD SLOAD SWAP1 DUP1 PUSH1 0x6 ADD DUP1 SLOAD PUSH2 0x415 SWAP1 PUSH2 0x18D2 JUMP JUMPDEST DUP1 PUSH1 0x1F ADD PUSH1 0x20 DUP1 SWAP2 DIV MUL PUSH1 0x20 ADD PUSH1 0x40 MLOAD SWAP1 DUP2 ADD PUSH1 0x40 MSTORE DUP1 SWAP3 SWAP2 SWAP1 DUP2 DUP2 MSTORE PUSH1 0x20 ADD DUP3 DUP1 SLOAD PUSH2 0x441 SWAP1 PUSH2 0x18D2 JUMP JUMPDEST DUP1 ISZERO PUSH2 0x48C JUMPI DUP1 PUSH1 0x1F LT PUSH2 0x463 JUMPI PUSH2 0x100 DUP1 DUP4 SLOAD DIV MUL DUP4 MSTORE SWAP2 PUSH1 0x20 ADD SWAP2 PUSH2 0x48C JUMP JUMPDEST DUP3 ADD SWAP2 SWAP1 PUSH0 MSTORE PUSH1 0x20 PUSH0 KECCAK256 SWAP1 JUMPDEST DUP2 SLOAD DUP2 MSTORE SWAP1 PUSH1 0x1 ADD SWAP1 PUSH1 0x20 ADD DUP1 DUP4 GT PUSH2 0x46F JUMPI DUP3 SWAP1 SUB PUSH1 0x1F AND DUP3 ADD SWAP2 JUMPDEST POP POP POP POP POP SWAP1 DUP1 PUSH1 0x7 ADD SLOAD SWAP1 DUP1 PUSH1 0x8 ADD DUP1 SLOAD PUSH2 0x4A7 SWAP1 PUSH2 0x18D2 JUMP JUMPDEST DUP1 PUSH1 0x1F ADD PUSH1 0x20 DUP1 SWAP2 DIV MUL PUSH1 0x20 ADD PUSH1 0x40 MLOAD SWAP1 DUP2 ADD PUSH1 0x40 MSTORE DUP1 SWAP3 SWAP2 SWAP1 DUP2 DUP2 MSTORE PUSH1 0x20 ADD DUP3 DUP1 SLOAD PUSH2 0x4D3 SWAP1 PUSH2 0x18D2 JUMP JUMPDEST DUP1 ISZERO PUSH2 0x51E JUMPI DUP1 PUSH1 0x1F LT PUSH2 0x4F5 JUMPI PUSH2 0x100 DUP1 DUP4 SLOAD DIV MUL DUP4 MSTORE SWAP2 PUSH1 0x20 ADD SWAP2 PUSH2 0x51E JUMP JUMPDEST DUP3 ADD SWAP2 SWAP1 PUSH0 MSTORE PUSH1 0x20 PUSH0 KECCAK256 SWAP1 JUMPDEST DUP2 SLOAD DUP2 MSTORE SWAP1 PUSH1 0x1 ADD SWAP1 PUSH1 0x20 ADD DUP1 DUP4 GT PUSH2 0x501 JUMPI DUP3 SWAP1 SUB PUSH1 0x1F AND DUP3 ADD SWAP2 JUMPDEST POP POP POP POP POP SWAP1 POP DUP10 JUMP JUMPDEST PUSH0 DUP1 PUSH0 SWAP1 POP JUMPDEST PUSH1 0x4 DUP1 SLOAD SWAP1 POP DUP2 LT ISZERO PUSH2 0x5BB JUMPI PUSH1 0x4 DUP2 DUP2 SLOAD DUP2 LT PUSH2 0x54F JUMPI PUSH2 0x54E PUSH2 0x1902 JUMP JUMPDEST JUMPDEST SWAP1 PUSH0 MSTORE PUSH1 0x20 PUSH0 KECCAK256 ADD PUSH0 SWAP1 SLOAD SWAP1 PUSH2 0x100 EXP SWAP1 DIV PUSH20 0xFFFFFFFFFFFFFFFFFFFFFFFFFFFFFFFFFFFFFFFF AND PUSH20 0xFFFFFFFFFFFFFFFFFFFFFFFFFFFFFFFFFFFFFFFF AND CALLER PUSH20 0xFFFFFFFFFFFFFFFFFFFFFFFFFFFFFFFFFFFFFFFF AND SUB PUSH2 0x5AE JUMPI PUSH1 0x1 SWAP2 POP JUMPDEST DUP1 DUP1 PUSH1 0x1 ADD SWAP2 POP POP PUSH2 0x52E JUMP JUMPDEST POP PUSH0 ISZERO ISZERO DUP2 ISZERO ISZERO EQ PUSH2 0x602 JUMPI PUSH1 0x40 MLOAD PUSH32 0x8C379A000000000000000000000000000000000000000000000000000000000 DUP2 MSTORE PUSH1 0x4 ADD PUSH2 0x5F9 SWAP1 PUSH2 0x1979 JUMP JUMPDEST PUSH1 0x40 MLOAD DUP1 SWAP2 SUB SWAP1 REVERT JUMPDEST PUSH8 0x16345785D8A0000 CALLVALUE EQ PUSH2 0x64C JUMPI PUSH1 0x40 MLOAD PUSH32 0x8C379A000000000000000000000000000000000000000000000000000000000 DUP2 MSTORE PUSH1 0x4 ADD PUSH2 0x643 SWAP1 PUSH2 0x19E1 JUMP JUMPDEST PUSH1 0x40 MLOAD DUP1 SWAP2 SUB SWAP1 REVERT JUMPDEST PUSH0 PUSH1 0x5 SLOAD GT PUSH2 0x690 JUMPI PUSH1 0x40 MLOAD PUSH32 0x8C379A000000000000000000000000000000000000000000000000000000000 DUP2 MSTORE PUSH1 0x4 ADD PUSH2 0x687 SWAP1 PUSH2 0x1A6F JUMP JUMPDEST PUSH1 0x40 MLOAD DUP1 SWAP2 SUB SWAP1 REVERT JUMPDEST PUSH1 0x4 CALLER SWAP1 DUP1 PUSH1 0x1 DUP2 SLOAD ADD DUP1 DUP3 SSTORE DUP1 SWAP2 POP POP PUSH1 0x1 SWAP1 SUB SWAP1 PUSH0 MSTORE PUSH1 0x20 PUSH0 KECCAK256 ADD PUSH0 SWAP1 SWAP2 SWAP1 SWAP2 SWAP1 SWAP2 PUSH2 0x100 EXP DUP2 SLOAD DUP2 PUSH20 0xFFFFFFFFFFFFFFFFFFFFFFFFFFFFFFFFFFFFFFFF MUL NOT AND SWAP1 DUP4 PUSH20 0xFFFFFFFFFFFFFFFFFFFFFFFFFFFFFFFFFFFFFFFF AND MUL OR SWAP1 SSTORE POP PUSH1 0x5 PUSH0 DUP2 SLOAD DUP1 SWAP3 SWAP2 SWAP1 PUSH2 0x702 SWAP1 PUSH2 0x1ABA JUMP JUMPDEST SWAP2 SWAP1 POP SSTORE POP POP JUMP JUMPDEST PUSH1 0x4 DUP2 DUP2 SLOAD DUP2 LT PUSH2 0x719 JUMPI PUSH0 DUP1 REVERT JUMPDEST SWAP1 PUSH0 MSTORE PUSH1 0x20 PUSH0 KECCAK256 ADD PUSH0 SWAP2 POP SLOAD SWAP1 PUSH2 0x100 EXP SWAP1 DIV PUSH20 0xFFFFFFFFFFFFFFFFFFFFFFFFFFFFFFFFFFFFFFFF AND DUP2 JUMP JUMPDEST PUSH1 0x2 SLOAD DUP2 JUMP JUMPDEST PUSH0 PUSH1 0x1 PUSH0 DUP4 DUP2 MSTORE PUSH1 0x20 ADD SWAP1 DUP2 MSTORE PUSH1 0x20 ADD PUSH0 KECCAK256 SWAP1 POP DUP1 PUSH1 0x4 ADD SLOAD DUP2 PUSH1 0x3 ADD SLOAD LT ISZERO PUSH2 0x7AA JUMPI PUSH1 0x40 MLOAD PUSH32 0x8C379A000000000000000000000000000000000000000000000000000000000 DUP2 MSTORE PUSH1 0x4 ADD PUSH2 0x7A1 SWAP1 PUSH2 0x1B2B JUMP JUMPDEST PUSH1 0x40 MLOAD DUP1 SWAP2 SUB SWAP1 REVERT JUMPDEST PUSH0 DUP1 PUSH0 SWAP1 POP JUMPDEST PUSH1 0x4 DUP1 SLOAD SWAP1 POP DUP2 LT ISZERO PUSH2 0x9E0 JUMPI PUSH1 0x4 DUP2 DUP2 SLOAD DUP2 LT PUSH2 0x7D1 JUMPI PUSH2 0x7D0 PUSH2 0x1902 JUMP JUMPDEST JUMPDEST SWAP1 PUSH0 MSTORE PUSH1 0x20 PUSH0 KECCAK256 ADD PUSH0 SWAP1 SLOAD SWAP1 PUSH2 0x100 EXP SWAP1 DIV PUSH20 0xFFFFFFFFFFFFFFFFFFFFFFFFFFFFFFFFFFFFFFFF AND PUSH20 0xFFFFFFFFFFFFFFFFFFFFFFFFFFFFFFFFFFFFFFFF AND CALLER PUSH20 0xFFFFFFFFFFFFFFFFFFFFFFFFFFFFFFFFFFFFFFFF AND SUB PUSH2 0x9D3 JUMPI DUP3 PUSH1 0x4 ADD PUSH0 DUP2 SLOAD DUP1 SWAP3 SWAP2 SWAP1 PUSH2 0x83F SWAP1 PUSH2 0x1B49 JUMP JUMPDEST SWAP2 SWAP1 POP SSTORE POP DUP3 PUSH1 0x9 ADD CALLER SWAP1 DUP1 PUSH1 0x1 DUP2 SLOAD ADD DUP1 DUP3 SSTORE DUP1 SWAP2 POP POP PUSH1 0x1 SWAP1 SUB SWAP1 PUSH0 MSTORE PUSH1 0x20 PUSH0 KECCAK256 ADD PUSH0 SWAP1 SWAP2 SWAP1 SWAP2 SWAP1 SWAP2 PUSH2 0x100 EXP DUP2 SLOAD DUP2 PUSH20 0xFFFFFFFFFFFFFFFFFFFFFFFFFFFFFFFFFFFFFFFF MUL NOT AND SWAP1 DUP4 PUSH20 0xFFFFFFFFFFFFFFFFFFFFFFFFFFFFFFFFFFFFFFFF AND MUL OR SWAP1 SSTORE POP PUSH0 DUP2 SWAP1 POP JUMPDEST PUSH1 0x1 PUSH1 0x4 DUP1 SLOAD SWAP1 POP PUSH2 0x8BD SWAP2 SWAP1 PUSH2 0x1B90 JUMP JUMPDEST DUP2 LT ISZERO PUSH2 0x972 JUMPI PUSH1 0x4 PUSH1 0x1 DUP3 PUSH2 0x8D3 SWAP2 SWAP1 PUSH2 0x1BC3 JUMP JUMPDEST DUP2 SLOAD DUP2 LT PUSH2 0x8E4 JUMPI PUSH2 0x8E3 PUSH2 0x1902 JUMP JUMPDEST JUMPDEST SWAP1 PUSH0 MSTORE PUSH1 0x20 PUSH0 KECCAK256 ADD PUSH0 SWAP1 SLOAD SWAP1 PUSH2 0x100 EXP SWAP1 DIV PUSH20 0xFFFFFFFFFFFFFFFFFFFFFFFFFFFFFFFFFFFFFFFF AND PUSH1 0x4 DUP3 DUP2 SLOAD DUP2 LT PUSH2 0x920 JUMPI PUSH2 0x91F PUSH2 0x1902 JUMP JUMPDEST JUMPDEST SWAP1 PUSH0 MSTORE PUSH1 0x20 PUSH0 KECCAK256 ADD PUSH0 PUSH2 0x100 EXP DUP2 SLOAD DUP2 PUSH20 0xFFFFFFFFFFFFFFFFFFFFFFFFFFFFFFFFFFFFFFFF MUL NOT AND SWAP1 DUP4 PUSH20 0xFFFFFFFFFFFFFFFFFFFFFFFFFFFFFFFFFFFFFFFF AND MUL OR SWAP1 SSTORE POP DUP1 DUP1 PUSH1 0x1 ADD SWAP2 POP POP PUSH2 0x8AB JUMP JUMPDEST POP PUSH1 0x4 DUP1 SLOAD DUP1 PUSH2 0x985 JUMPI PUSH2 0x984 PUSH2 0x1BF6 JUMP JUMPDEST JUMPDEST PUSH1 0x1 SWAP1 SUB DUP2 DUP2 SWAP1 PUSH0 MSTORE PUSH1 0x20 PUSH0 KECCAK256 ADD PUSH0 PUSH2 0x100 EXP DUP2 SLOAD SWAP1 PUSH20 0xFFFFFFFFFFFFFFFFFFFFFFFFFFFFFFFFFFFFFFFF MUL NOT AND SWAP1 SSTORE SWAP1 SSTORE PUSH1 0x5 PUSH0 DUP2 SLOAD DUP1 SWAP3 SWAP2 SWAP1 PUSH2 0x9C9 SWAP1 PUSH2 0x1B49 JUMP JUMPDEST SWAP2 SWAP1 POP SSTORE POP PUSH1 0x1 SWAP2 POP JUMPDEST DUP1 DUP1 PUSH1 0x1 ADD SWAP2 POP POP PUSH2 0x7B0 JUMP JUMPDEST POP PUSH0 ISZERO ISZERO DUP2 ISZERO ISZERO SUB PUSH2 0xA77 JUMPI DUP2 PUSH1 0x7 ADD SLOAD CALLVALUE EQ PUSH2 0x9FB JUMPI PUSH0 DUP1 REVERT JUMPDEST DUP2 PUSH1 0x4 ADD PUSH0 DUP2 SLOAD DUP1 SWAP3 SWAP2 SWAP1 PUSH2 0xA0F SWAP1 PUSH2 0x1B49 JUMP JUMPDEST SWAP2 SWAP1 POP SSTORE POP DUP2 PUSH1 0x9 ADD CALLER SWAP1 DUP1 PUSH1 0x1 DUP2 SLOAD ADD DUP1 DUP3 SSTORE DUP1 SWAP2 POP POP PUSH1 0x1 SWAP1 SUB SWAP1 PUSH0 MSTORE PUSH1 0x20 PUSH0 KECCAK256 ADD PUSH0 SWAP1 SWAP2 SWAP1 SWAP2 SWAP1 SWAP2 PUSH2 0x100 EXP DUP2 SLOAD DUP2 PUSH20 0xFFFFFFFFFFFFFFFFFFFFFFFFFFFFFFFFFFFFFFFF MUL NOT AND SWAP1 DUP4 PUSH20 0xFFFFFFFFFFFFFFFFFFFFFFFFFFFFFFFFFFFFFFFF AND MUL OR SWAP1 SSTORE POP JUMPDEST PUSH0 DUP3 PUSH1 0x1 ADD PUSH0 SWAP1 SLOAD SWAP1 PUSH2 0x100 EXP SWAP1 DIV PUSH20 0xFFFFFFFFFFFFFFFFFFFFFFFFFFFFFFFFFFFFFFFF AND SWAP1 POP DUP1 PUSH20 0xFFFFFFFFFFFFFFFFFFFFFFFFFFFFFFFFFFFFFFFF AND PUSH2 0x8FC DUP5 PUSH1 0x7 ADD SLOAD SWAP1 DUP2 ISZERO MUL SWAP1 PUSH1 0x40 MLOAD PUSH0 PUSH1 0x40 MLOAD DUP1 DUP4 SUB DUP2 DUP6 DUP9 DUP9 CALL SWAP4 POP POP POP POP ISZERO DUP1 ISZERO PUSH2 0xAE5 JUMPI RETURNDATASIZE PUSH0 DUP1 RETURNDATACOPY RETURNDATASIZE PUSH0 REVERT JUMPDEST POP DUP3 PUSH1 0x3 DUP6 DUP2 SLOAD DUP2 LT PUSH2 0xAFB JUMPI PUSH2 0xAFA PUSH2 0x1902 JUMP JUMPDEST JUMPDEST SWAP1 PUSH0 MSTORE PUSH1 0x20 PUSH0 KECCAK256 SWAP1 PUSH1 0xA MUL ADD PUSH0 DUP3 ADD DUP2 PUSH0 ADD SWAP1 DUP2 PUSH2 0xB19 SWAP2 SWAP1 PUSH2 0x1DD5 JUMP JUMPDEST POP PUSH1 0x1 DUP3 ADD PUSH0 SWAP1 SLOAD SWAP1 PUSH2 0x100 EXP SWAP1 DIV PUSH20 0xFFFFFFFFFFFFFFFFFFFFFFFFFFFFFFFFFFFFFFFF AND DUP2 PUSH1 0x1 ADD PUSH0 PUSH2 0x100 EXP DUP2 SLOAD DUP2 PUSH20 0xFFFFFFFFFFFFFFFFFFFFFFFFFFFFFFFFFFFFFFFF MUL NOT AND SWAP1 DUP4 PUSH20 0xFFFFFFFFFFFFFFFFFFFFFFFFFFFFFFFFFFFFFFFF AND MUL OR SWAP1 SSTORE POP PUSH1 0x2 DUP3 ADD DUP2 PUSH1 0x2 ADD SWAP1 DUP2 PUSH2 0xB93 SWAP2 SWAP1 PUSH2 0x1DD5 JUMP JUMPDEST POP PUSH1 0x3 DUP3 ADD SLOAD DUP2 PUSH1 0x3 ADD SSTORE PUSH1 0x4 DUP3 ADD SLOAD DUP2 PUSH1 0x4 ADD SSTORE PUSH1 0x5 DUP3 ADD SLOAD DUP2 PUSH1 0x5 ADD SSTORE PUSH1 0x6 DUP3 ADD DUP2 PUSH1 0x6 ADD SWAP1 DUP2 PUSH2 0xBC6 SWAP2 SWAP1 PUSH2 0x1DD5 JUMP JUMPDEST POP PUSH1 0x7 DUP3 ADD SLOAD DUP2 PUSH1 0x7 ADD SSTORE PUSH1 0x8 DUP3 ADD DUP2 PUSH1 0x8 ADD SWAP1 DUP2 PUSH2 0xBE5 SWAP2 SWAP1 PUSH2 0x1DD5 JUMP JUMPDEST POP PUSH1 0x9 DUP3 ADD DUP2 PUSH1 0x9 ADD SWAP1 DUP1 SLOAD PUSH2 0xBFC SWAP3 SWAP2 SWAP1 PUSH2 0x12AE JUMP JUMPDEST POP SWAP1 POP POP POP POP POP POP JUMP JUMPDEST PUSH1 0x3 DUP2 DUP2 SLOAD DUP2 LT PUSH2 0xC15 JUMPI PUSH0 DUP1 REVERT JUMPDEST SWAP1 PUSH0 MSTORE PUSH1 0x20 PUSH0 KECCAK256 SWAP1 PUSH1 0xA MUL ADD PUSH0 SWAP2 POP SWAP1 POP DUP1 PUSH0 ADD DUP1 SLOAD PUSH2 0xC34 SWAP1 PUSH2 0x18D2 JUMP JUMPDEST DUP1 PUSH1 0x1F ADD PUSH1 0x20 DUP1 SWAP2 DIV MUL PUSH1 0x20 ADD PUSH1 0x40 MLOAD SWAP1 DUP2 ADD PUSH1 0x40 MSTORE DUP1 SWAP3 SWAP2 SWAP1 DUP2 DUP2 MSTORE PUSH1 0x20 ADD DUP3 DUP1 SLOAD PUSH2 0xC60 SWAP1 PUSH2 0x18D2 JUMP JUMPDEST DUP1 ISZERO PUSH2 0xCAB JUMPI DUP1 PUSH1 0x1F LT PUSH2 0xC82 JUMPI PUSH2 0x100 DUP1 DUP4 SLOAD DIV MUL DUP4 MSTORE SWAP2 PUSH1 0x20 ADD SWAP2 PUSH2 0xCAB JUMP JUMPDEST DUP3 ADD SWAP2 SWAP1 PUSH0 MSTORE PUSH1 0x20 PUSH0 KECCAK256 SWAP1 JUMPDEST DUP2 SLOAD DUP2 MSTORE SWAP1 PUSH1 0x1 ADD SWAP1 PUSH1 0x20 ADD DUP1 DUP4 GT PUSH2 0xC8E JUMPI DUP3 SWAP1 SUB PUSH1 0x1F AND DUP3 ADD SWAP2 JUMPDEST POP POP POP POP POP SWAP1 DUP1 PUSH1 0x1 ADD PUSH0 SWAP1 SLOAD SWAP1 PUSH2 0x100 EXP SWAP1 DIV PUSH20 0xFFFFFFFFFFFFFFFFFFFFFFFFFFFFFFFFFFFFFFFF AND SWAP1 DUP1 PUSH1 0x2 ADD DUP1 SLOAD PUSH2 0xCE5 SWAP1 PUSH2 0x18D2 JUMP JUMPDEST DUP1 PUSH1 0x1F ADD PUSH1 0x20 DUP1 SWAP2 DIV MUL PUSH1 0x20 ADD PUSH1 0x40 MLOAD SWAP1 DUP2 ADD PUSH1 0x40 MSTORE DUP1 SWAP3 SWAP2 SWAP1 DUP2 DUP2 MSTORE PUSH1 0x20 ADD DUP3 DUP1 SLOAD PUSH2 0xD11 SWAP1 PUSH2 0x18D2 JUMP JUMPDEST DUP1 ISZERO PUSH2 0xD5C JUMPI DUP1 PUSH1 0x1F LT PUSH2 0xD33 JUMPI PUSH2 0x100 DUP1 DUP4 SLOAD DIV MUL DUP4 MSTORE SWAP2 PUSH1 0x20 ADD SWAP2 PUSH2 0xD5C JUMP JUMPDEST DUP3 ADD SWAP2 SWAP1 PUSH0 MSTORE PUSH1 0x20 PUSH0 KECCAK256 SWAP1 JUMPDEST DUP2 SLOAD DUP2 MSTORE SWAP1 PUSH1 0x1 ADD SWAP1 PUSH1 0x20 ADD DUP1 DUP4 GT PUSH2 0xD3F JUMPI DUP3 SWAP1 SUB PUSH1 0x1F AND DUP3 ADD SWAP2 JUMPDEST POP POP POP POP POP SWAP1 DUP1 PUSH1 0x3 ADD SLOAD SWAP1 DUP1 PUSH1 0x4 ADD SLOAD SWAP1 DUP1 PUSH1 0x5 ADD SLOAD SWAP1 DUP1 PUSH1 0x6 ADD DUP1 SLOAD PUSH2 0xD83 SWAP1 PUSH2 0x18D2 JUMP JUMPDEST DUP1 PUSH1 0x1F ADD PUSH1 0x20 DUP1 SWAP2 DIV MUL PUSH1 0x20 ADD PUSH1 0x40 MLOAD SWAP1 DUP2 ADD PUSH1 0x40 MSTORE DUP1 SWAP3 SWAP2 SWAP1 DUP2 DUP2 MSTORE PUSH1 0x20 ADD DUP3 DUP1 SLOAD PUSH2 0xDAF SWAP1 PUSH2 0x18D2 JUMP JUMPDEST DUP1 ISZERO PUSH2 0xDFA JUMPI DUP1 PUSH1 0x1F LT PUSH2 0xDD1 JUMPI PUSH2 0x100 DUP1 DUP4 SLOAD DIV MUL DUP4 MSTORE SWAP2 PUSH1 0x20 ADD SWAP2 PUSH2 0xDFA JUMP JUMPDEST DUP3 ADD SWAP2 SWAP1 PUSH0 MSTORE PUSH1 0x20 PUSH0 KECCAK256 SWAP1 JUMPDEST DUP2 SLOAD DUP2 MSTORE SWAP1 PUSH1 0x1 ADD SWAP1 PUSH1 0x20 ADD DUP1 DUP4 GT PUSH2 0xDDD JUMPI DUP3 SWAP1 SUB PUSH1 0x1F AND DUP3 ADD SWAP2 JUMPDEST POP POP POP POP POP SWAP1 DUP1 PUSH1 0x7 ADD SLOAD SWAP1 DUP1 PUSH1 0x8 ADD DUP1 SLOAD PUSH2 0xE15 SWAP1 PUSH2 0x18D2 JUMP JUMPDEST DUP1 PUSH1 0x1F ADD PUSH1 0x20 DUP1 SWAP2 DIV MUL PUSH1 0x20 ADD PUSH1 0x40 MLOAD SWAP1 DUP2 ADD PUSH1 0x40 MSTORE DUP1 SWAP3 SWAP2 SWAP1 DUP2 DUP2 MSTORE PUSH1 0x20 ADD DUP3 DUP1 SLOAD PUSH2 0xE41 SWAP1 PUSH2 0x18D2 JUMP JUMPDEST DUP1 ISZERO PUSH2 0xE8C JUMPI DUP1 PUSH1 0x1F LT PUSH2 0xE63 JUMPI PUSH2 0x100 DUP1 DUP4 SLOAD DIV MUL DUP4 MSTORE SWAP2 PUSH1 0x20 ADD SWAP2 PUSH2 0xE8C JUMP JUMPDEST DUP3 ADD SWAP2 SWAP1 PUSH0 MSTORE PUSH1 0x20 PUSH0 KECCAK256 SWAP1 JUMPDEST DUP2 SLOAD DUP2 MSTORE SWAP1 PUSH1 0x1 ADD SWAP1 PUSH1 0x20 ADD DUP1 DUP4 GT PUSH2 0xE6F JUMPI DUP3 SWAP1 SUB PUSH1 0x1F AND DUP3 ADD SWAP2 JUMPDEST POP POP POP POP POP SWAP1 POP DUP10 JUMP JUMPDEST PUSH0 DUP1 SLOAD SWAP1 PUSH2 0x100 EXP SWAP1 DIV PUSH20 0xFFFFFFFFFFFFFFFFFFFFFFFFFFFFFFFFFFFFFFFF AND DUP2 JUMP JUMPDEST PUSH0 DUP1 PUSH0 SWAP1 POP PUSH0 PUSH1 0x1 PUSH0 DUP6 DUP2 MSTORE PUSH1 0x20 ADD SWAP1 DUP2 MSTORE PUSH1 0x20 ADD PUSH0 KECCAK256 SWAP1 POP PUSH0 JUMPDEST DUP2 PUSH1 0x9 ADD DUP1 SLOAD SWAP1 POP DUP2 LT ISZERO PUSH2 0xF6F JUMPI CALLER PUSH20 0xFFFFFFFFFFFFFFFFFFFFFFFFFFFFFFFFFFFFFFFF AND DUP3 PUSH1 0x9 ADD DUP3 DUP2 SLOAD DUP2 LT PUSH2 0xF10 JUMPI PUSH2 0xF0F PUSH2 0x1902 JUMP JUMPDEST JUMPDEST SWAP1 PUSH0 MSTORE PUSH1 0x20 PUSH0 KECCAK256 ADD PUSH0 SWAP1 SLOAD SWAP1 PUSH2 0x100 EXP SWAP1 DIV PUSH20 0xFFFFFFFFFFFFFFFFFFFFFFFFFFFFFFFFFFFFFFFF AND PUSH20 0xFFFFFFFFFFFFFFFFFFFFFFFFFFFFFFFFFFFFFFFF AND SUB PUSH2 0xF62 JUMPI DUP3 DUP1 PUSH2 0xF5E SWAP1 PUSH2 0x1B49 JUMP JUMPDEST SWAP4 POP POP JUMPDEST DUP1 DUP1 PUSH1 0x1 ADD SWAP2 POP POP PUSH2 0xED4 JUMP JUMPDEST POP DUP2 SWAP3 POP POP POP SWAP2 SWAP1 POP JUMP JUMPDEST PUSH0 DUP1 SLOAD SWAP1 PUSH2 0x100 EXP SWAP1 DIV PUSH20 0xFFFFFFFFFFFFFFFFFFFFFFFFFFFFFFFFFFFFFFFF AND PUSH20 0xFFFFFFFFFFFFFFFFFFFFFFFFFFFFFFFFFFFFFFFF AND CALLER PUSH20 0xFFFFFFFFFFFFFFFFFFFFFFFFFFFFFFFFFFFFFFFF AND EQ PUSH2 0x1007 JUMPI PUSH1 0x40 MLOAD PUSH32 0x8C379A000000000000000000000000000000000000000000000000000000000 DUP2 MSTORE PUSH1 0x4 ADD PUSH2 0xFFE SWAP1 PUSH2 0x1F04 JUMP JUMPDEST PUSH1 0x40 MLOAD DUP1 SWAP2 SUB SWAP1 REVERT JUMPDEST PUSH0 PUSH1 0x1 PUSH0 PUSH1 0x2 SLOAD DUP2 MSTORE PUSH1 0x20 ADD SWAP1 DUP2 MSTORE PUSH1 0x20 ADD PUSH0 KECCAK256 SWAP1 POP DUP7 DUP2 PUSH1 0x2 ADD SWAP1 DUP2 PUSH2 0x102E SWAP2 SWAP1 PUSH2 0x1F22 JUMP JUMPDEST POP DUP8 DUP2 PUSH1 0x1 ADD PUSH0 PUSH2 0x100 EXP DUP2 SLOAD DUP2 PUSH20 0xFFFFFFFFFFFFFFFFFFFFFFFFFFFFFFFFFFFFFFFF MUL NOT AND SWAP1 DUP4 PUSH20 0xFFFFFFFFFFFFFFFFFFFFFFFFFFFFFFFFFFFFFFFF AND MUL OR SWAP1 SSTORE POP DUP9 DUP2 PUSH0 ADD SWAP1 DUP2 PUSH2 0x1081 SWAP2 SWAP1 PUSH2 0x1F22 JUMP JUMPDEST POP DUP6 DUP2 PUSH1 0x3 ADD DUP2 SWAP1 SSTORE POP DUP5 DUP2 PUSH1 0x5 ADD DUP2 SWAP1 SSTORE POP DUP4 DUP2 PUSH1 0x6 ADD SWAP1 DUP2 PUSH2 0x10A5 SWAP2 SWAP1 PUSH2 0x1F22 JUMP JUMPDEST POP DUP3 DUP2 PUSH1 0x7 ADD DUP2 SWAP1 SSTORE POP DUP2 DUP2 PUSH1 0x8 ADD SWAP1 DUP2 PUSH2 0x10C0 SWAP2 SWAP1 PUSH2 0x1F22 JUMP JUMPDEST POP PUSH1 0x2 PUSH0 DUP2 SLOAD DUP1 SWAP3 SWAP2 SWAP1 PUSH2 0x10D3 SWAP1 PUSH2 0x1B49 JUMP JUMPDEST SWAP2 SWAP1 POP SSTORE POP PUSH1 0x3 DUP2 SWAP1 DUP1 PUSH1 0x1 DUP2 SLOAD ADD DUP1 DUP3 SSTORE DUP1 SWAP2 POP POP PUSH1 0x1 SWAP1 SUB SWAP1 PUSH0 MSTORE PUSH1 0x20 PUSH0 KECCAK256 SWAP1 PUSH1 0xA MUL ADD PUSH0 SWAP1 SWAP2 SWAP1 SWAP2 SWAP1 SWAP2 POP PUSH0 DUP3 ADD DUP2 PUSH0 ADD SWAP1 DUP2 PUSH2 0x1113 SWAP2 SWAP1 PUSH2 0x1DD5 JUMP JUMPDEST POP PUSH1 0x1 DUP3 ADD PUSH0 SWAP1 SLOAD SWAP1 PUSH2 0x100 EXP SWAP1 DIV PUSH20 0xFFFFFFFFFFFFFFFFFFFFFFFFFFFFFFFFFFFFFFFF AND DUP2 PUSH1 0x1 ADD PUSH0 PUSH2 0x100 EXP DUP2 SLOAD DUP2 PUSH20 0xFFFFFFFFFFFFFFFFFFFFFFFFFFFFFFFFFFFFFFFF MUL NOT AND SWAP1 DUP4 PUSH20 0xFFFFFFFFFFFFFFFFFFFFFFFFFFFFFFFFFFFFFFFF AND MUL OR SWAP1 SSTORE POP PUSH1 0x2 DUP3 ADD DUP2 PUSH1 0x2 ADD SWAP1 DUP2 PUSH2 0x118D SWAP2 SWAP1 PUSH2 0x1DD5 JUMP JUMPDEST POP PUSH1 0x3 DUP3 ADD SLOAD DUP2 PUSH1 0x3 ADD SSTORE PUSH1 0x4 DUP3 ADD SLOAD DUP2 PUSH1 0x4 ADD SSTORE PUSH1 0x5 DUP3 ADD SLOAD DUP2 PUSH1 0x5 ADD SSTORE PUSH1 0x6 DUP3 ADD DUP2 PUSH1 0x6 ADD SWAP1 DUP2 PUSH2 0x11C0 SWAP2 SWAP1 PUSH2 0x1DD5 JUMP JUMPDEST POP PUSH1 0x7 DUP3 ADD SLOAD DUP2 PUSH1 0x7 ADD SSTORE PUSH1 0x8 DUP3 ADD DUP2 PUSH1 0x8 ADD SWAP1 DUP2 PUSH2 0x11DF SWAP2 SWAP1 PUSH2 0x1DD5 JUMP JUMPDEST POP PUSH1 0x9 DUP3 ADD DUP2 PUSH1 0x9 ADD SWAP1 DUP1 SLOAD PUSH2 0x11F6 SWAP3 SWAP2 SWAP1 PUSH2 0x12AE JUMP JUMPDEST POP POP POP POP POP POP POP POP POP POP POP POP JUMP JUMPDEST PUSH1 0x60 PUSH0 PUSH1 0x1 PUSH0 DUP5 DUP2 MSTORE PUSH1 0x20 ADD SWAP1 DUP2 MSTORE PUSH1 0x20 ADD PUSH0 KECCAK256 SWAP1 POP DUP1 PUSH1 0x9 ADD DUP1 SLOAD DUP1 PUSH1 0x20 MUL PUSH1 0x20 ADD PUSH1 0x40 MLOAD SWAP1 DUP2 ADD PUSH1 0x40 MSTORE DUP1 SWAP3 SWAP2 SWAP1 DUP2 DUP2 MSTORE PUSH1 0x20 ADD DUP3 DUP1 SLOAD DUP1 ISZERO PUSH2 0x129B JUMPI PUSH1 0x20 MUL DUP3 ADD SWAP2 SWAP1 PUSH0 MSTORE PUSH1 0x20 PUSH0 KECCAK256 SWAP1 JUMPDEST DUP2 PUSH0 SWAP1 SLOAD SWAP1 PUSH2 0x100 EXP SWAP1 DIV PUSH20 0xFFFFFFFFFFFFFFFFFFFFFFFFFFFFFFFFFFFFFFFF AND PUSH20 0xFFFFFFFFFFFFFFFFFFFFFFFFFFFFFFFFFFFFFFFF AND DUP2 MSTORE PUSH1 0x20 ADD SWAP1 PUSH1 0x1 ADD SWAP1 DUP1 DUP4 GT PUSH2 0x1252 JUMPI JUMPDEST POP POP POP POP POP SWAP2 POP POP SWAP2 SWAP1 POP JUMP JUMPDEST PUSH1 0x5 SLOAD DUP2 JUMP JUMPDEST DUP3 DUP1 SLOAD DUP3 DUP3 SSTORE SWAP1 PUSH0 MSTORE PUSH1 0x20 PUSH0 KECCAK256 SWAP1 DUP2 ADD SWAP3 DUP3 ISZERO PUSH2 0x12EB JUMPI PUSH0 MSTORE PUSH1 0x20 PUSH0 KECCAK256 SWAP2 DUP3 ADD JUMPDEST DUP3 DUP2 GT ISZERO PUSH2 0x12EA JUMPI DUP3 SLOAD DUP3 SSTORE SWAP2 PUSH1 0x1 ADD SWAP2 SWAP1 PUSH1 0x1 ADD SWAP1 PUSH2 0x12CF JUMP JUMPDEST JUMPDEST POP SWAP1 POP PUSH2 0x12F8 SWAP2 SWAP1 PUSH2 0x12FC JUMP JUMPDEST POP SWAP1 JUMP JUMPDEST JUMPDEST DUP1 DUP3 GT ISZERO PUSH2 0x1313 JUMPI PUSH0 DUP2 PUSH0 SWAP1 SSTORE POP PUSH1 0x1 ADD PUSH2 0x12FD JUMP JUMPDEST POP SWAP1 JUMP JUMPDEST PUSH0 PUSH1 0x40 MLOAD SWAP1 POP SWAP1 JUMP JUMPDEST PUSH0 DUP1 REVERT JUMPDEST PUSH0 DUP1 REVERT JUMPDEST PUSH0 DUP2 SWAP1 POP SWAP2 SWAP1 POP JUMP JUMPDEST PUSH2 0x133A DUP2 PUSH2 0x1328 JUMP JUMPDEST DUP2 EQ PUSH2 0x1344 JUMPI PUSH0 DUP1 REVERT JUMPDEST POP JUMP JUMPDEST PUSH0 DUP2 CALLDATALOAD SWAP1 POP PUSH2 0x1355 DUP2 PUSH2 0x1331 JUMP JUMPDEST SWAP3 SWAP2 POP POP JUMP JUMPDEST PUSH0 PUSH1 0x20 DUP3 DUP5 SUB SLT ISZERO PUSH2 0x1370 JUMPI PUSH2 0x136F PUSH2 0x1320 JUMP JUMPDEST JUMPDEST PUSH0 PUSH2 0x137D DUP5 DUP3 DUP6 ADD PUSH2 0x1347 JUMP JUMPDEST SWAP2 POP POP SWAP3 SWAP2 POP POP JUMP JUMPDEST PUSH0 DUP2 MLOAD SWAP1 POP SWAP2 SWAP1 POP JUMP JUMPDEST PUSH0 DUP3 DUP3 MSTORE PUSH1 0x20 DUP3 ADD SWAP1 POP SWAP3 SWAP2 POP POP JUMP JUMPDEST PUSH0 JUMPDEST DUP4 DUP2 LT ISZERO PUSH2 0x13BD JUMPI DUP1 DUP3 ADD MLOAD DUP2 DUP5 ADD MSTORE PUSH1 0x20 DUP2 ADD SWAP1 POP PUSH2 0x13A2 JUMP JUMPDEST PUSH0 DUP5 DUP5 ADD MSTORE POP POP POP POP JUMP JUMPDEST PUSH0 PUSH1 0x1F NOT PUSH1 0x1F DUP4 ADD AND SWAP1 POP SWAP2 SWAP1 POP JUMP JUMPDEST PUSH0 PUSH2 0x13E2 DUP3 PUSH2 0x1386 JUMP JUMPDEST PUSH2 0x13EC DUP2 DUP6 PUSH2 0x1390 JUMP JUMPDEST SWAP4 POP PUSH2 0x13FC DUP2 DUP6 PUSH1 0x20 DUP7 ADD PUSH2 0x13A0 JUMP JUMPDEST PUSH2 0x1405 DUP2 PUSH2 0x13C8 JUMP JUMPDEST DUP5 ADD SWAP2 POP POP SWAP3 SWAP2 POP POP JUMP JUMPDEST PUSH0 PUSH20 0xFFFFFFFFFFFFFFFFFFFFFFFFFFFFFFFFFFFFFFFF DUP3 AND SWAP1 POP SWAP2 SWAP1 POP JUMP JUMPDEST PUSH0 PUSH2 0x1439 DUP3 PUSH2 0x1410 JUMP JUMPDEST SWAP1 POP SWAP2 SWAP1 POP JUMP JUMPDEST PUSH2 0x1449 DUP2 PUSH2 0x142F JUMP JUMPDEST DUP3 MSTORE POP POP JUMP JUMPDEST PUSH2 0x1458 DUP2 PUSH2 0x1328 JUMP JUMPDEST DUP3 MSTORE POP POP JUMP JUMPDEST PUSH0 PUSH2 0x120 DUP3 ADD SWAP1 POP DUP2 DUP2 SUB PUSH0 DUP4 ADD MSTORE PUSH2 0x1477 DUP2 DUP13 PUSH2 0x13D8 JUMP JUMPDEST SWAP1 POP PUSH2 0x1486 PUSH1 0x20 DUP4 ADD DUP12 PUSH2 0x1440 JUMP JUMPDEST DUP2 DUP2 SUB PUSH1 0x40 DUP4 ADD MSTORE PUSH2 0x1498 DUP2 DUP11 PUSH2 0x13D8 JUMP JUMPDEST SWAP1 POP PUSH2 0x14A7 PUSH1 0x60 DUP4 ADD DUP10 PUSH2 0x144F JUMP JUMPDEST PUSH2 0x14B4 PUSH1 0x80 DUP4 ADD DUP9 PUSH2 0x144F JUMP JUMPDEST PUSH2 0x14C1 PUSH1 0xA0 DUP4 ADD DUP8 PUSH2 0x144F JUMP JUMPDEST DUP2 DUP2 SUB PUSH1 0xC0 DUP4 ADD MSTORE PUSH2 0x14D3 DUP2 DUP7 PUSH2 0x13D8 JUMP JUMPDEST SWAP1 POP PUSH2 0x14E2 PUSH1 0xE0 DUP4 ADD DUP6 PUSH2 0x144F JUMP JUMPDEST DUP2 DUP2 SUB PUSH2 0x100 DUP4 ADD MSTORE PUSH2 0x14F5 DUP2 DUP5 PUSH2 0x13D8 JUMP JUMPDEST SWAP1 POP SWAP11 SWAP10 POP POP POP POP POP POP POP POP POP POP JUMP JUMPDEST PUSH0 PUSH2 0x150F DUP3 PUSH2 0x1410 JUMP JUMPDEST SWAP1 POP SWAP2 SWAP1 POP JUMP JUMPDEST PUSH2 0x151F DUP2 PUSH2 0x1505 JUMP JUMPDEST DUP3 MSTORE POP POP JUMP JUMPDEST PUSH0 PUSH1 0x20 DUP3 ADD SWAP1 POP PUSH2 0x1538 PUSH0 DUP4 ADD DUP5 PUSH2 0x1516 JUMP JUMPDEST SWAP3 SWAP2 POP POP JUMP JUMPDEST PUSH0 PUSH1 0x20 DUP3 ADD SWAP1 POP PUSH2 0x1551 PUSH0 DUP4 ADD DUP5 PUSH2 0x144F JUMP JUMPDEST SWAP3 SWAP2 POP POP JUMP JUMPDEST PUSH0 DUP1 REVERT JUMPDEST PUSH0 DUP1 REVERT JUMPDEST PUSH32 0x4E487B7100000000000000000000000000000000000000000000000000000000 PUSH0 MSTORE PUSH1 0x41 PUSH1 0x4 MSTORE PUSH1 0x24 PUSH0 REVERT JUMPDEST PUSH2 0x1595 DUP3 PUSH2 0x13C8 JUMP JUMPDEST DUP2 ADD DUP2 DUP2 LT PUSH8 0xFFFFFFFFFFFFFFFF DUP3 GT OR ISZERO PUSH2 0x15B4 JUMPI PUSH2 0x15B3 PUSH2 0x155F JUMP JUMPDEST JUMPDEST DUP1 PUSH1 0x40 MSTORE POP POP POP JUMP JUMPDEST PUSH0 PUSH2 0x15C6 PUSH2 0x1317 JUMP JUMPDEST SWAP1 POP PUSH2 0x15D2 DUP3 DUP3 PUSH2 0x158C JUMP JUMPDEST SWAP2 SWAP1 POP JUMP JUMPDEST PUSH0 PUSH8 0xFFFFFFFFFFFFFFFF DUP3 GT ISZERO PUSH2 0x15F1 JUMPI PUSH2 0x15F0 PUSH2 0x155F JUMP JUMPDEST JUMPDEST PUSH2 0x15FA DUP3 PUSH2 0x13C8 JUMP JUMPDEST SWAP1 POP PUSH1 0x20 DUP2 ADD SWAP1 POP SWAP2 SWAP1 POP JUMP JUMPDEST DUP3 DUP2 DUP4 CALLDATACOPY PUSH0 DUP4 DUP4 ADD MSTORE POP POP POP JUMP JUMPDEST PUSH0 PUSH2 0x1627 PUSH2 0x1622 DUP5 PUSH2 0x15D7 JUMP JUMPDEST PUSH2 0x15BD JUMP JUMPDEST SWAP1 POP DUP3 DUP2 MSTORE PUSH1 0x20 DUP2 ADD DUP5 DUP5 DUP5 ADD GT ISZERO PUSH2 0x1643 JUMPI PUSH2 0x1642 PUSH2 0x155B JUMP JUMPDEST JUMPDEST PUSH2 0x164E DUP5 DUP3 DUP6 PUSH2 0x1607 JUMP JUMPDEST POP SWAP4 SWAP3 POP POP POP JUMP JUMPDEST PUSH0 DUP3 PUSH1 0x1F DUP4 ADD SLT PUSH2 0x166A JUMPI PUSH2 0x1669 PUSH2 0x1557 JUMP JUMPDEST JUMPDEST DUP2 CALLDATALOAD PUSH2 0x167A DUP5 DUP3 PUSH1 0x20 DUP7 ADD PUSH2 0x1615 JUMP JUMPDEST SWAP2 POP POP SWAP3 SWAP2 POP POP JUMP JUMPDEST PUSH2 0x168C DUP2 PUSH2 0x142F JUMP JUMPDEST DUP2 EQ PUSH2 0x1696 JUMPI PUSH0 DUP1 REVERT JUMPDEST POP JUMP JUMPDEST PUSH0 DUP2 CALLDATALOAD SWAP1 POP PUSH2 0x16A7 DUP2 PUSH2 0x1683 JUMP JUMPDEST SWAP3 SWAP2 POP POP JUMP JUMPDEST PUSH0 DUP1 PUSH0 DUP1 PUSH0 DUP1 PUSH0 DUP1 PUSH2 0x100 DUP10 DUP12 SUB SLT ISZERO PUSH2 0x16CA JUMPI PUSH2 0x16C9 PUSH2 0x1320 JUMP JUMPDEST JUMPDEST PUSH0 DUP10 ADD CALLDATALOAD PUSH8 0xFFFFFFFFFFFFFFFF DUP2 GT ISZERO PUSH2 0x16E7 JUMPI PUSH2 0x16E6 PUSH2 0x1324 JUMP JUMPDEST JUMPDEST PUSH2 0x16F3 DUP12 DUP3 DUP13 ADD PUSH2 0x1656 JUMP JUMPDEST SWAP9 POP POP PUSH1 0x20 PUSH2 0x1704 DUP12 DUP3 DUP13 ADD PUSH2 0x1699 JUMP JUMPDEST SWAP8 POP POP PUSH1 0x40 DUP10 ADD CALLDATALOAD PUSH8 0xFFFFFFFFFFFFFFFF DUP2 GT ISZERO PUSH2 0x1725 JUMPI PUSH2 0x1724 PUSH2 0x1324 JUMP JUMPDEST JUMPDEST PUSH2 0x1731 DUP12 DUP3 DUP13 ADD PUSH2 0x1656 JUMP JUMPDEST SWAP7 POP POP PUSH1 0x60 PUSH2 0x1742 DUP12 DUP3 DUP13 ADD PUSH2 0x1347 JUMP JUMPDEST SWAP6 POP POP PUSH1 0x80 PUSH2 0x1753 DUP12 DUP3 DUP13 ADD PUSH2 0x1347 JUMP JUMPDEST SWAP5 POP POP PUSH1 0xA0 DUP10 ADD CALLDATALOAD PUSH8 0xFFFFFFFFFFFFFFFF DUP2 GT ISZERO PUSH2 0x1774 JUMPI PUSH2 0x1773 PUSH2 0x1324 JUMP JUMPDEST JUMPDEST PUSH2 0x1780 DUP12 DUP3 DUP13 ADD PUSH2 0x1656 JUMP JUMPDEST SWAP4 POP POP PUSH1 0xC0 PUSH2 0x1791 DUP12 DUP3 DUP13 ADD PUSH2 0x1347 JUMP JUMPDEST SWAP3 POP POP PUSH1 0xE0 DUP10 ADD CALLDATALOAD PUSH8 0xFFFFFFFFFFFFFFFF DUP2 GT ISZERO PUSH2 0x17B2 JUMPI PUSH2 0x17B1 PUSH2 0x1324 JUMP JUMPDEST JUMPDEST PUSH2 0x17BE DUP12 DUP3 DUP13 ADD PUSH2 0x1656 JUMP JUMPDEST SWAP2 POP POP SWAP3 SWAP6 SWAP9 POP SWAP3 SWAP6 SWAP9 SWAP1 SWAP4 SWAP7 POP JUMP JUMPDEST PUSH0 DUP2 MLOAD SWAP1 POP SWAP2 SWAP1 POP JUMP JUMPDEST PUSH0 DUP3 DUP3 MSTORE PUSH1 0x20 DUP3 ADD SWAP1 POP SWAP3 SWAP2 POP POP JUMP JUMPDEST PUSH0 DUP2 SWAP1 POP PUSH1 0x20 DUP3 ADD SWAP1 POP SWAP2 SWAP1 POP JUMP JUMPDEST PUSH2 0x1800 DUP2 PUSH2 0x1505 JUMP JUMPDEST DUP3 MSTORE POP POP JUMP JUMPDEST PUSH0 PUSH2 0x1811 DUP4 DUP4 PUSH2 0x17F7 JUMP JUMPDEST PUSH1 0x20 DUP4 ADD SWAP1 POP SWAP3 SWAP2 POP POP JUMP JUMPDEST PUSH0 PUSH1 0x20 DUP3 ADD SWAP1 POP SWAP2 SWAP1 POP JUMP JUMPDEST PUSH0 PUSH2 0x1833 DUP3 PUSH2 0x17CE JUMP JUMPDEST PUSH2 0x183D DUP2 DUP6 PUSH2 0x17D8 JUMP JUMPDEST SWAP4 POP PUSH2 0x1848 DUP4 PUSH2 0x17E8 JUMP JUMPDEST DUP1 PUSH0 JUMPDEST DUP4 DUP2 LT ISZERO PUSH2 0x1878 JUMPI DUP2 MLOAD PUSH2 0x185F DUP9 DUP3 PUSH2 0x1806 JUMP JUMPDEST SWAP8 POP PUSH2 0x186A DUP4 PUSH2 0x181D JUMP JUMPDEST SWAP3 POP POP PUSH1 0x1 DUP2 ADD SWAP1 POP PUSH2 0x184B JUMP JUMPDEST POP DUP6 SWAP4 POP POP POP POP SWAP3 SWAP2 POP POP JUMP JUMPDEST PUSH0 PUSH1 0x20 DUP3 ADD SWAP1 POP DUP2 DUP2 SUB PUSH0 DUP4 ADD MSTORE PUSH2 0x189D DUP2 DUP5 PUSH2 0x1829 JUMP JUMPDEST SWAP1 POP SWAP3 SWAP2 POP POP JUMP JUMPDEST PUSH32 0x4E487B7100000000000000000000000000000000000000000000000000000000 PUSH0 MSTORE PUSH1 0x22 PUSH1 0x4 MSTORE PUSH1 0x24 PUSH0 REVERT JUMPDEST PUSH0 PUSH1 0x2 DUP3 DIV SWAP1 POP PUSH1 0x1 DUP3 AND DUP1 PUSH2 0x18E9 JUMPI PUSH1 0x7F DUP3 AND SWAP2 POP JUMPDEST PUSH1 0x20 DUP3 LT DUP2 SUB PUSH2 0x18FC JUMPI PUSH2 0x18FB PUSH2 0x18A5 JUMP JUMPDEST JUMPDEST POP SWAP2 SWAP1 POP JUMP JUMPDEST PUSH32 0x4E487B7100000000000000000000000000000000000000000000000000000000 PUSH0 MSTORE PUSH1 0x32 PUSH1 0x4 MSTORE PUSH1 0x24 PUSH0 REVERT JUMPDEST PUSH32 0x596F752061726520616C72656164792061205072656D69756D206D616E000000 PUSH0 DUP3 ADD MSTORE POP JUMP JUMPDEST PUSH0 PUSH2 0x1963 PUSH1 0x1D DUP4 PUSH2 0x1390 JUMP JUMPDEST SWAP2 POP PUSH2 0x196E DUP3 PUSH2 0x192F JUMP JUMPDEST PUSH1 0x20 DUP3 ADD SWAP1 POP SWAP2 SWAP1 POP JUMP JUMPDEST PUSH0 PUSH1 0x20 DUP3 ADD SWAP1 POP DUP2 DUP2 SUB PUSH0 DUP4 ADD MSTORE PUSH2 0x1990 DUP2 PUSH2 0x1957 JUMP JUMPDEST SWAP1 POP SWAP2 SWAP1 POP JUMP JUMPDEST PUSH32 0x506C656173652070617920657861637420616D6F756E74000000000000000000 PUSH0 DUP3 ADD MSTORE POP JUMP JUMPDEST PUSH0 PUSH2 0x19CB PUSH1 0x17 DUP4 PUSH2 0x1390 JUMP JUMPDEST SWAP2 POP PUSH2 0x19D6 DUP3 PUSH2 0x1997 JUMP JUMPDEST PUSH1 0x20 DUP3 ADD SWAP1 POP SWAP2 SWAP1 POP JUMP JUMPDEST PUSH0 PUSH1 0x20 DUP3 ADD SWAP1 POP DUP2 DUP2 SUB PUSH0 DUP4 ADD MSTORE PUSH2 0x19F8 DUP2 PUSH2 0x19BF JUMP JUMPDEST SWAP1 POP SWAP2 SWAP1 POP JUMP JUMPDEST PUSH32 0x416C6C20546F6B656E732061726520736F6C64212054727920616761696E2069 PUSH0 DUP3 ADD MSTORE PUSH32 0x6E20612066657720646179730000000000000000000000000000000000000000 PUSH1 0x20 DUP3 ADD MSTORE POP JUMP JUMPDEST PUSH0 PUSH2 0x1A59 PUSH1 0x2C DUP4 PUSH2 0x1390 JUMP JUMPDEST SWAP2 POP PUSH2 0x1A64 DUP3 PUSH2 0x19FF JUMP JUMPDEST PUSH1 0x40 DUP3 ADD SWAP1 POP SWAP2 SWAP1 POP JUMP JUMPDEST PUSH0 PUSH1 0x20 DUP3 ADD SWAP1 POP DUP2 DUP2 SUB PUSH0 DUP4 ADD MSTORE PUSH2 0x1A86 DUP2 PUSH2 0x1A4D JUMP JUMPDEST SWAP1 POP SWAP2 SWAP1 POP JUMP JUMPDEST PUSH32 0x4E487B7100000000000000000000000000000000000000000000000000000000 PUSH0 MSTORE PUSH1 0x11 PUSH1 0x4 MSTORE PUSH1 0x24 PUSH0 REVERT JUMPDEST PUSH0 PUSH2 0x1AC4 DUP3 PUSH2 0x1328 JUMP JUMPDEST SWAP2 POP PUSH0 DUP3 SUB PUSH2 0x1AD6 JUMPI PUSH2 0x1AD5 PUSH2 0x1A8D JUMP JUMPDEST JUMPDEST PUSH1 0x1 DUP3 SUB SWAP1 POP SWAP2 SWAP1 POP JUMP JUMPDEST PUSH32 0x416C6C20746963656B747320736F6C6400000000000000000000000000000000 PUSH0 DUP3 ADD MSTORE POP JUMP JUMPDEST PUSH0 PUSH2 0x1B15 PUSH1 0x10 DUP4 PUSH2 0x1390 JUMP JUMPDEST SWAP2 POP PUSH2 0x1B20 DUP3 PUSH2 0x1AE1 JUMP JUMPDEST PUSH1 0x20 DUP3 ADD SWAP1 POP SWAP2 SWAP1 POP JUMP JUMPDEST PUSH0 PUSH1 0x20 DUP3 ADD SWAP1 POP DUP2 DUP2 SUB PUSH0 DUP4 ADD MSTORE PUSH2 0x1B42 DUP2 PUSH2 0x1B09 JUMP JUMPDEST SWAP1 POP SWAP2 SWAP1 POP JUMP JUMPDEST PUSH0 PUSH2 0x1B53 DUP3 PUSH2 0x1328 JUMP JUMPDEST SWAP2 POP PUSH32 0xFFFFFFFFFFFFFFFFFFFFFFFFFFFFFFFFFFFFFFFFFFFFFFFFFFFFFFFFFFFFFFFF DUP3 SUB PUSH2 0x1B85 JUMPI PUSH2 0x1B84 PUSH2 0x1A8D JUMP JUMPDEST JUMPDEST PUSH1 0x1 DUP3 ADD SWAP1 POP SWAP2 SWAP1 POP JUMP JUMPDEST PUSH0 PUSH2 0x1B9A DUP3 PUSH2 0x1328 JUMP JUMPDEST SWAP2 POP PUSH2 0x1BA5 DUP4 PUSH2 0x1328 JUMP JUMPDEST SWAP3 POP DUP3 DUP3 SUB SWAP1 POP DUP2 DUP2 GT ISZERO PUSH2 0x1BBD JUMPI PUSH2 0x1BBC PUSH2 0x1A8D JUMP JUMPDEST JUMPDEST SWAP3 SWAP2 POP POP JUMP JUMPDEST PUSH0 PUSH2 0x1BCD DUP3 PUSH2 0x1328 JUMP JUMPDEST SWAP2 POP PUSH2 0x1BD8 DUP4 PUSH2 0x1328 JUMP JUMPDEST SWAP3 POP DUP3 DUP3 ADD SWAP1 POP DUP1 DUP3 GT ISZERO PUSH2 0x1BF0 JUMPI PUSH2 0x1BEF PUSH2 0x1A8D JUMP JUMPDEST JUMPDEST SWAP3 SWAP2 POP POP JUMP JUMPDEST PUSH32 0x4E487B7100000000000000000000000000000000000000000000000000000000 PUSH0 MSTORE PUSH1 0x31 PUSH1 0x4 MSTORE PUSH1 0x24 PUSH0 REVERT JUMPDEST PUSH0 DUP2 SLOAD SWAP1 POP PUSH2 0x1C31 DUP2 PUSH2 0x18D2 JUMP JUMPDEST SWAP1 POP SWAP2 SWAP1 POP JUMP JUMPDEST PUSH0 DUP2 SWAP1 POP DUP2 PUSH0 MSTORE PUSH1 0x20 PUSH0 KECCAK256 SWAP1 POP SWAP2 SWAP1 POP JUMP JUMPDEST PUSH0 PUSH1 0x20 PUSH1 0x1F DUP4 ADD DIV SWAP1 POP SWAP2 SWAP1 POP JUMP JUMPDEST PUSH0 DUP3 DUP3 SHL SWAP1 POP SWAP3 SWAP2 POP POP JUMP JUMPDEST PUSH0 PUSH1 0x8 DUP4 MUL PUSH2 0x1C94 PUSH32 0xFFFFFFFFFFFFFFFFFFFFFFFFFFFFFFFFFFFFFFFFFFFFFFFFFFFFFFFFFFFFFFFF DUP3 PUSH2 0x1C59 JUMP JUMPDEST PUSH2 0x1C9E DUP7 DUP4 PUSH2 0x1C59 JUMP JUMPDEST SWAP6 POP DUP1 NOT DUP5 AND SWAP4 POP DUP1 DUP7 AND DUP5 OR SWAP3 POP POP POP SWAP4 SWAP3 POP POP POP JUMP JUMPDEST PUSH0 DUP2 SWAP1 POP SWAP2 SWAP1 POP JUMP JUMPDEST PUSH0 PUSH2 0x1CD9 PUSH2 0x1CD4 PUSH2 0x1CCF DUP5 PUSH2 0x1328 JUMP JUMPDEST PUSH2 0x1CB6 JUMP JUMPDEST PUSH2 0x1328 JUMP JUMPDEST SWAP1 POP SWAP2 SWAP1 POP JUMP JUMPDEST PUSH0 DUP2 SWAP1 POP SWAP2 SWAP1 POP JUMP JUMPDEST PUSH2 0x1CF2 DUP4 PUSH2 0x1CBF JUMP JUMPDEST PUSH2 0x1D06 PUSH2 0x1CFE DUP3 PUSH2 0x1CE0 JUMP JUMPDEST DUP5 DUP5 SLOAD PUSH2 0x1C65 JUMP JUMPDEST DUP3 SSTORE POP POP POP POP JUMP JUMPDEST PUSH0 SWAP1 JUMP JUMPDEST PUSH2 0x1D1A PUSH2 0x1D0E JUMP JUMPDEST PUSH2 0x1D25 DUP2 DUP5 DUP5 PUSH2 0x1CE9 JUMP JUMPDEST POP POP POP JUMP JUMPDEST JUMPDEST DUP2 DUP2 LT ISZERO PUSH2 0x1D48 JUMPI PUSH2 0x1D3D PUSH0 DUP3 PUSH2 0x1D12 JUMP JUMPDEST PUSH1 0x1 DUP2 ADD SWAP1 POP PUSH2 0x1D2B JUMP JUMPDEST POP POP JUMP JUMPDEST PUSH1 0x1F DUP3 GT ISZERO PUSH2 0x1D8D JUMPI PUSH2 0x1D5E DUP2 PUSH2 0x1C38 JUMP JUMPDEST PUSH2 0x1D67 DUP5 PUSH2 0x1C4A JUMP JUMPDEST DUP2 ADD PUSH1 0x20 DUP6 LT ISZERO PUSH2 0x1D76 JUMPI DUP2 SWAP1 POP JUMPDEST PUSH2 0x1D8A PUSH2 0x1D82 DUP6 PUSH2 0x1C4A JUMP JUMPDEST DUP4 ADD DUP3 PUSH2 0x1D2A JUMP JUMPDEST POP POP JUMPDEST POP POP POP JUMP JUMPDEST PUSH0 DUP3 DUP3 SHR SWAP1 POP SWAP3 SWAP2 POP POP JUMP JUMPDEST PUSH0 PUSH2 0x1DAD PUSH0 NOT DUP5 PUSH1 0x8 MUL PUSH2 0x1D92 JUMP JUMPDEST NOT DUP1 DUP4 AND SWAP2 POP POP SWAP3 SWAP2 POP POP JUMP JUMPDEST PUSH0 PUSH2 0x1DC5 DUP4 DUP4 PUSH2 0x1D9E JUMP JUMPDEST SWAP2 POP DUP3 PUSH1 0x2 MUL DUP3 OR SWAP1 POP SWAP3 SWAP2 POP POP JUMP JUMPDEST DUP2 DUP2 SUB PUSH2 0x1DE3 JUMPI POP POP PUSH2 0x1EB8 JUMP JUMPDEST PUSH2 0x1DEC DUP3 PUSH2 0x1C23 JUMP JUMPDEST PUSH8 0xFFFFFFFFFFFFFFFF DUP2 GT ISZERO PUSH2 0x1E05 JUMPI PUSH2 0x1E04 PUSH2 0x155F JUMP JUMPDEST JUMPDEST PUSH2 0x1E0F DUP3 SLOAD PUSH2 0x18D2 JUMP JUMPDEST PUSH2 0x1E1A DUP3 DUP3 DUP6 PUSH2 0x1D4C JUMP JUMPDEST PUSH0 PUSH1 0x1F DUP4 GT PUSH1 0x1 DUP2 EQ PUSH2 0x1E47 JUMPI PUSH0 DUP5 ISZERO PUSH2 0x1E35 JUMPI DUP3 DUP8 ADD SLOAD SWAP1 POP JUMPDEST PUSH2 0x1E3F DUP6 DUP3 PUSH2 0x1DBA JUMP JUMPDEST DUP7 SSTORE POP PUSH2 0x1EB1 JUMP JUMPDEST PUSH1 0x1F NOT DUP5 AND PUSH2 0x1E55 DUP8 PUSH2 0x1C38 JUMP JUMPDEST SWAP7 POP PUSH2 0x1E60 DUP7 PUSH2 0x1C38 JUMP JUMPDEST PUSH0 JUMPDEST DUP3 DUP2 LT ISZERO PUSH2 0x1E87 JUMPI DUP5 DUP10 ADD SLOAD DUP3 SSTORE PUSH1 0x1 DUP3 ADD SWAP2 POP PUSH1 0x1 DUP6 ADD SWAP5 POP PUSH1 0x20 DUP2 ADD SWAP1 POP PUSH2 0x1E62 JUMP JUMPDEST DUP7 DUP4 LT ISZERO PUSH2 0x1EA4 JUMPI DUP5 DUP10 ADD SLOAD PUSH2 0x1EA0 PUSH1 0x1F DUP10 AND DUP3 PUSH2 0x1D9E JUMP JUMPDEST DUP4 SSTORE POP JUMPDEST PUSH1 0x1 PUSH1 0x2 DUP9 MUL ADD DUP9 SSTORE POP POP POP JUMPDEST POP POP POP POP POP POP JUMPDEST JUMP JUMPDEST PUSH32 0x4F6E6C79206F776E65722063616E2063616C6C20746869730000000000000000 PUSH0 DUP3 ADD MSTORE POP JUMP JUMPDEST PUSH0 PUSH2 0x1EEE PUSH1 0x18 DUP4 PUSH2 0x1390 JUMP JUMPDEST SWAP2 POP PUSH2 0x1EF9 DUP3 PUSH2 0x1EBA JUMP JUMPDEST PUSH1 0x20 DUP3 ADD SWAP1 POP SWAP2 SWAP1 POP JUMP JUMPDEST PUSH0 PUSH1 0x20 DUP3 ADD SWAP1 POP DUP2 DUP2 SUB PUSH0 DUP4 ADD MSTORE PUSH2 0x1F1B DUP2 PUSH2 0x1EE2 JUMP JUMPDEST SWAP1 POP SWAP2 SWAP1 POP JUMP JUMPDEST PUSH2 0x1F2B DUP3 PUSH2 0x1386 JUMP JUMPDEST PUSH8 0xFFFFFFFFFFFFFFFF DUP2 GT ISZERO PUSH2 0x1F44 JUMPI PUSH2 0x1F43 PUSH2 0x155F JUMP JUMPDEST JUMPDEST PUSH2 0x1F4E DUP3 SLOAD PUSH2 0x18D2 JUMP JUMPDEST PUSH2 0x1F59 DUP3 DUP3 DUP6 PUSH2 0x1D4C JUMP JUMPDEST PUSH0 PUSH1 0x20 SWAP1 POP PUSH1 0x1F DUP4 GT PUSH1 0x1 DUP2 EQ PUSH2 0x1F8A JUMPI PUSH0 DUP5 ISZERO PUSH2 0x1F78 JUMPI DUP3 DUP8 ADD MLOAD SWAP1 POP JUMPDEST PUSH2 0x1F82 DUP6 DUP3 PUSH2 0x1DBA JUMP JUMPDEST DUP7 SSTORE POP PUSH2 0x1FE9 JUMP JUMPDEST PUSH1 0x1F NOT DUP5 AND PUSH2 0x1F98 DUP7 PUSH2 0x1C38 JUMP JUMPDEST PUSH0 JUMPDEST DUP3 DUP2 LT ISZERO PUSH2 0x1FBF JUMPI DUP5 DUP10 ADD MLOAD DUP3 SSTORE PUSH1 0x1 DUP3 ADD SWAP2 POP PUSH1 0x20 DUP6 ADD SWAP5 POP PUSH1 0x20 DUP2 ADD SWAP1 POP PUSH2 0x1F9A JUMP JUMPDEST DUP7 DUP4 LT ISZERO PUSH2 0x1FDC JUMPI DUP5 DUP10 ADD MLOAD PUSH2 0x1FD8 PUSH1 0x1F DUP10 AND DUP3 PUSH2 0x1D9E JUMP JUMPDEST DUP4 SSTORE POP JUMPDEST PUSH1 0x1 PUSH1 0x2 DUP9 MUL ADD DUP9 SSTORE POP POP POP JUMPDEST POP POP POP POP POP POP JUMP INVALID LOG2 PUSH5 0x6970667358 0x22 SLT KECCAK256 EXTCODESIZE 0xD6 PUSH30 0xC00C03E028FE4D11E547B1FDDC2DA5A4E678517255DFDD65054E90FEF64 PUSH20 0x6F6C634300081600330000000000000000000000 "
				},
				"gasEstimates": {
					"creation": {
						"codeDepositCost": "1646200",
						"executionCost": "48098",
						"totalCost": "1694298"
					},
					"external": {
						"addEvent(string,address,string,uint256,uint256,string,uint256,string)": "infinite",
						"arr(uint256)": "infinite",
						"buyGoldenTokens()": "infinite",
						"buyTicket(uint256)": "infinite",
						"getAddressList(uint256)": "infinite",
						"goldAddress(uint256)": "4989",
						"goldTokens()": "2535",
						"noOfOcassions(uint256)": "infinite",
						"nthOcassion()": "2492",
						"owner()": "2527",
						"showTickets(uint256)": "infinite"
					}
				},
				"methodIdentifiers": {
					"addEvent(string,address,string,uint256,uint256,string,uint256,string)": "a87b0d97",
					"arr(uint256)": "71e5ee5f",
					"buyGoldenTokens()": "1f1d5326",
					"buyTicket(uint256)": "67dd74ca",
					"getAddressList(uint256)": "f6f937b4",
					"goldAddress(uint256)": "32ab9503",
					"goldTokens()": "fb9f8dd1",
					"noOfOcassions(uint256)": "0b031f32",
					"nthOcassion()": "56699251",
					"owner()": "8da5cb5b",
					"showTickets(uint256)": "97b10afa"
				}
			},
			"storageLayout": {
				"storage": [
					{
						"astId": 3,
						"contract": "contracts/4_Project.sol:local",
						"label": "owner",
						"offset": 0,
						"slot": "0",
						"type": "t_address"
					},
					{
						"astId": 39,
						"contract": "contracts/4_Project.sol:local",
						"label": "noOfOcassions",
						"offset": 0,
						"slot": "1",
						"type": "t_mapping(t_uint256,t_struct(Ocassion)34_storage)"
					},
					{
						"astId": 41,
						"contract": "contracts/4_Project.sol:local",
						"label": "nthOcassion",
						"offset": 0,
						"slot": "2",
						"type": "t_uint256"
					},
					{
						"astId": 45,
						"contract": "contracts/4_Project.sol:local",
						"label": "arr",
						"offset": 0,
						"slot": "3",
						"type": "t_array(t_struct(Ocassion)34_storage)dyn_storage"
					},
					{
						"astId": 165,
						"contract": "contracts/4_Project.sol:local",
						"label": "goldAddress",
						"offset": 0,
						"slot": "4",
						"type": "t_array(t_address)dyn_storage"
					},
					{
						"astId": 168,
						"contract": "contracts/4_Project.sol:local",
						"label": "goldTokens",
						"offset": 0,
						"slot": "5",
						"type": "t_uint256"
					}
				],
				"types": {
					"t_address": {
						"encoding": "inplace",
						"label": "address",
						"numberOfBytes": "20"
					},
					"t_address_payable": {
						"encoding": "inplace",
						"label": "address payable",
						"numberOfBytes": "20"
					},
					"t_array(t_address)dyn_storage": {
						"base": "t_address",
						"encoding": "dynamic_array",
						"label": "address[]",
						"numberOfBytes": "32"
					},
					"t_array(t_struct(Ocassion)34_storage)dyn_storage": {
						"base": "t_struct(Ocassion)34_storage",
						"encoding": "dynamic_array",
						"label": "struct local.Ocassion[]",
						"numberOfBytes": "32"
					},
					"t_mapping(t_uint256,t_struct(Ocassion)34_storage)": {
						"encoding": "mapping",
						"key": "t_uint256",
						"label": "mapping(uint256 => struct local.Ocassion)",
						"numberOfBytes": "32",
						"value": "t_struct(Ocassion)34_storage"
					},
					"t_string_storage": {
						"encoding": "bytes",
						"label": "string",
						"numberOfBytes": "32"
					},
					"t_struct(Ocassion)34_storage": {
						"encoding": "inplace",
						"label": "struct local.Ocassion",
						"members": [
							{
								"astId": 14,
								"contract": "contracts/4_Project.sol:local",
								"label": "nameOfOcaasion",
								"offset": 0,
								"slot": "0",
								"type": "t_string_storage"
							},
							{
								"astId": 16,
								"contract": "contracts/4_Project.sol:local",
								"label": "ocassionManager",
								"offset": 0,
								"slot": "1",
								"type": "t_address_payable"
							},
							{
								"astId": 18,
								"contract": "contracts/4_Project.sol:local",
								"label": "description",
								"offset": 0,
								"slot": "2",
								"type": "t_string_storage"
							},
							{
								"astId": 20,
								"contract": "contracts/4_Project.sol:local",
								"label": "maxNoOfTicekts",
								"offset": 0,
								"slot": "3",
								"type": "t_uint256"
							},
							{
								"astId": 22,
								"contract": "contracts/4_Project.sol:local",
								"label": "nthTicket",
								"offset": 0,
								"slot": "4",
								"type": "t_uint256"
							},
							{
								"astId": 24,
								"contract": "contracts/4_Project.sol:local",
								"label": "date",
								"offset": 0,
								"slot": "5",
								"type": "t_uint256"
							},
							{
								"astId": 26,
								"contract": "contracts/4_Project.sol:local",
								"label": "location",
								"offset": 0,
								"slot": "6",
								"type": "t_string_storage"
							},
							{
								"astId": 28,
								"contract": "contracts/4_Project.sol:local",
								"label": "price",
								"offset": 0,
								"slot": "7",
								"type": "t_uint256"
							},
							{
								"astId": 30,
								"contract": "contracts/4_Project.sol:local",
								"label": "time",
								"offset": 0,
								"slot": "8",
								"type": "t_string_storage"
							},
							{
								"astId": 33,
								"contract": "contracts/4_Project.sol:local",
								"label": "attendants",
								"offset": 0,
								"slot": "9",
								"type": "t_array(t_address)dyn_storage"
							}
						],
						"numberOfBytes": "320"
					},
					"t_uint256": {
						"encoding": "inplace",
						"label": "uint256",
						"numberOfBytes": "32"
					}
				}
			},
			"userdoc": {
				"kind": "user",
				"methods": {},
				"version": 1
			}
		}
	}
}